{
	"bentoken.sol": {
		"BenToken": {
			"abi": [
				{
					"inputs": [
						{
							"internalType": "string",
							"name": "Benny",
							"type": "string"
						},
						{
							"internalType": "string",
							"name": "BEN",
							"type": "string"
						},
						{
							"internalType": "uint256",
							"name": "_initialSupply",
							"type": "uint256"
						},
						{
							"internalType": "uint256",
							"name": "_buyTaxPercent",
							"type": "uint256"
						},
						{
							"internalType": "uint256",
							"name": "_sellTaxPercent",
							"type": "uint256"
						},
						{
							"internalType": "uint256",
							"name": "_feeConversionRate",
							"type": "uint256"
						}
					],
					"stateMutability": "nonpayable",
					"type": "constructor"
				},
				{
					"anonymous": false,
					"inputs": [
						{
							"indexed": true,
							"internalType": "address",
							"name": "owner",
							"type": "address"
						},
						{
							"indexed": true,
							"internalType": "address",
							"name": "spender",
							"type": "address"
						},
						{
							"indexed": false,
							"internalType": "uint256",
							"name": "value",
							"type": "uint256"
						}
					],
					"name": "Approval",
					"type": "event"
				},
				{
					"anonymous": false,
					"inputs": [
						{
							"indexed": true,
							"internalType": "address",
							"name": "from",
							"type": "address"
						},
						{
							"indexed": true,
							"internalType": "address",
							"name": "to",
							"type": "address"
						},
						{
							"indexed": false,
							"internalType": "uint256",
							"name": "value",
							"type": "uint256"
						}
					],
					"name": "Transfer",
					"type": "event"
				},
				{
					"inputs": [
						{
							"internalType": "address",
							"name": "_owner",
							"type": "address"
						},
						{
							"internalType": "address",
							"name": "_spender",
							"type": "address"
						}
					],
					"name": "allowance",
					"outputs": [
						{
							"internalType": "uint256",
							"name": "remaining",
							"type": "uint256"
						}
					],
					"stateMutability": "view",
					"type": "function"
				},
				{
					"inputs": [
						{
							"internalType": "address",
							"name": "_spender",
							"type": "address"
						},
						{
							"internalType": "uint256",
							"name": "_value",
							"type": "uint256"
						}
					],
					"name": "approve",
					"outputs": [
						{
							"internalType": "bool",
							"name": "success",
							"type": "bool"
						}
					],
					"stateMutability": "nonpayable",
					"type": "function"
				},
				{
					"inputs": [
						{
							"internalType": "address",
							"name": "_owner",
							"type": "address"
						}
					],
					"name": "balanceOf",
					"outputs": [
						{
							"internalType": "uint256",
							"name": "balance",
							"type": "uint256"
						}
					],
					"stateMutability": "view",
					"type": "function"
				},
				{
					"inputs": [],
					"name": "buyTaxPercent",
					"outputs": [
						{
							"internalType": "uint256",
							"name": "",
							"type": "uint256"
						}
					],
					"stateMutability": "view",
					"type": "function"
				},
				{
					"inputs": [],
					"name": "convertFees",
					"outputs": [
						{
							"internalType": "bool",
							"name": "success",
							"type": "bool"
						}
					],
					"stateMutability": "nonpayable",
					"type": "function"
				},
				{
					"inputs": [],
					"name": "decimals",
					"outputs": [
						{
							"internalType": "uint8",
							"name": "",
							"type": "uint8"
						}
					],
					"stateMutability": "view",
					"type": "function"
				},
				{
					"inputs": [],
					"name": "feeConversionRate",
					"outputs": [
						{
							"internalType": "uint256",
							"name": "",
							"type": "uint256"
						}
					],
					"stateMutability": "view",
					"type": "function"
				},
				{
					"inputs": [],
					"name": "name",
					"outputs": [
						{
							"internalType": "string",
							"name": "",
							"type": "string"
						}
					],
					"stateMutability": "view",
					"type": "function"
				},
				{
					"inputs": [],
					"name": "sellTaxPercent",
					"outputs": [
						{
							"internalType": "uint256",
							"name": "",
							"type": "uint256"
						}
					],
					"stateMutability": "view",
					"type": "function"
				},
				{
					"inputs": [],
					"name": "symbol",
					"outputs": [
						{
							"internalType": "string",
							"name": "",
							"type": "string"
						}
					],
					"stateMutability": "view",
					"type": "function"
				},
				{
					"inputs": [
						{
							"internalType": "address",
							"name": "_to",
							"type": "address"
						},
						{
							"internalType": "uint256",
							"name": "_value",
							"type": "uint256"
						}
					],
					"name": "transfer",
					"outputs": [
						{
							"internalType": "bool",
							"name": "success",
							"type": "bool"
						}
					],
					"stateMutability": "nonpayable",
					"type": "function"
				},
				{
					"inputs": [
						{
							"internalType": "address",
							"name": "_from",
							"type": "address"
						},
						{
							"internalType": "address",
							"name": "_to",
							"type": "address"
						},
						{
							"internalType": "uint256",
							"name": "_value",
							"type": "uint256"
						}
					],
					"name": "transferFrom",
					"outputs": [
						{
							"internalType": "bool",
							"name": "success",
							"type": "bool"
						}
					],
					"stateMutability": "nonpayable",
					"type": "function"
				}
			],
			"devdoc": {
				"kind": "dev",
				"methods": {},
				"version": 1
			},
			"evm": {
				"assembly": "    /* \"bentoken.sol\":60:3873  contract BenToken {... */\n  mstore(0x40, 0x80)\n    /* \"bentoken.sol\":604:1198  constructor(... */\n  callvalue\n  dup1\n  iszero\n  tag_1\n  jumpi\n  0x00\n  dup1\n  revert\ntag_1:\n  pop\n  mload(0x40)\n  sub(codesize, bytecodeSize)\n  dup1\n  bytecodeSize\n  dup4\n  codecopy\n  dup2\n  dup2\n  add\n  0x40\n  mstore\n  dup2\n  add\n  swap1\n  tag_2\n  swap2\n  swap1\n  tag_3\n  jump\t// in\ntag_2:\n    /* \"bentoken.sol\":836:841  Benny */\n  dup6\n    /* \"bentoken.sol\":829:833  name */\n  0x00\n    /* \"bentoken.sol\":829:841  name = Benny */\n  swap1\n  dup2\n  tag_6\n  swap2\n  swap1\n  tag_7\n  jump\t// in\ntag_6:\n  pop\n    /* \"bentoken.sol\":861:864  BEN */\n  dup5\n    /* \"bentoken.sol\":852:858  symbol */\n  0x01\n    /* \"bentoken.sol\":852:864  symbol = BEN */\n  swap1\n  dup2\n  tag_8\n  swap2\n  swap1\n  tag_7\n  jump\t// in\ntag_8:\n  pop\n    /* \"bentoken.sol\":886:888  10 */\n  0x0a\n    /* \"bentoken.sol\":875:883  decimals */\n  0x02\n  0x00\n    /* \"bentoken.sol\":875:888  decimals = 10 */\n  0x0100\n  exp\n  dup2\n  sload\n  dup2\n  0xff\n  mul\n  not\n  and\n  swap1\n  dup4\n  0xff\n  and\n  mul\n  or\n  swap1\n  sstore\n  pop\n    /* \"bentoken.sol\":942:950  decimals */\n  0x02\n  0x00\n  swap1\n  sload\n  swap1\n  0x0100\n  exp\n  swap1\n  div\n  0xff\n  and\n    /* \"bentoken.sol\":934:951  uint256(decimals) */\n  0xff\n  and\n    /* \"bentoken.sol\":930:932  10 */\n  0x0a\n    /* \"bentoken.sol\":930:951  10**uint256(decimals) */\n  tag_9\n  swap2\n  swap1\n  tag_10\n  jump\t// in\ntag_9:\n    /* \"bentoken.sol\":913:927  _initialSupply */\n  dup5\n    /* \"bentoken.sol\":913:951  _initialSupply * 10**uint256(decimals) */\n  tag_11\n  swap2\n  swap1\n  tag_12\n  jump\t// in\ntag_11:\n    /* \"bentoken.sol\":899:910  totalSupply */\n  0x03\n    /* \"bentoken.sol\":899:951  totalSupply = _initialSupply * 10**uint256(decimals) */\n  dup2\n  swap1\n  sstore\n  pop\n    /* \"bentoken.sol\":985:996  totalSupply */\n  sload(0x03)\n    /* \"bentoken.sol\":962:970  balances */\n  0x04\n    /* \"bentoken.sol\":962:982  balances[msg.sender] */\n  0x00\n    /* \"bentoken.sol\":971:981  msg.sender */\n  caller\n    /* \"bentoken.sol\":962:982  balances[msg.sender] */\n  0xffffffffffffffffffffffffffffffffffffffff\n  and\n  0xffffffffffffffffffffffffffffffffffffffff\n  and\n  dup2\n  mstore\n  0x20\n  add\n  swap1\n  dup2\n  mstore\n  0x20\n  add\n  0x00\n  keccak256\n    /* \"bentoken.sol\":962:996  balances[msg.sender] = totalSupply */\n  dup2\n  swap1\n  sstore\n  pop\n    /* \"bentoken.sol\":1023:1037  _buyTaxPercent */\n  dup3\n    /* \"bentoken.sol\":1007:1020  buyTaxPercent */\n  0x06\n    /* \"bentoken.sol\":1007:1037  buyTaxPercent = _buyTaxPercent */\n  dup2\n  swap1\n  sstore\n  pop\n    /* \"bentoken.sol\":1065:1080  _sellTaxPercent */\n  dup2\n    /* \"bentoken.sol\":1048:1062  sellTaxPercent */\n  0x07\n    /* \"bentoken.sol\":1048:1080  sellTaxPercent = _sellTaxPercent */\n  dup2\n  swap1\n  sstore\n  pop\n    /* \"bentoken.sol\":1111:1129  _feeConversionRate */\n  dup1\n    /* \"bentoken.sol\":1091:1108  feeConversionRate */\n  0x08\n    /* \"bentoken.sol\":1091:1129  feeConversionRate = _feeConversionRate */\n  dup2\n  swap1\n  sstore\n  pop\n    /* \"bentoken.sol\":1166:1176  msg.sender */\n  caller\n    /* \"bentoken.sol\":1145:1190  Transfer(address(0), msg.sender, totalSupply) */\n  0xffffffffffffffffffffffffffffffffffffffff\n  and\n    /* \"bentoken.sol\":1162:1163  0 */\n  0x00\n    /* \"bentoken.sol\":1145:1190  Transfer(address(0), msg.sender, totalSupply) */\n  0xffffffffffffffffffffffffffffffffffffffff\n  and\n  0xddf252ad1be2c89b69c2b068fc378daa952ba7f163c4a11628f55a4df523b3ef\n    /* \"bentoken.sol\":1178:1189  totalSupply */\n  sload(0x03)\n    /* \"bentoken.sol\":1145:1190  Transfer(address(0), msg.sender, totalSupply) */\n  mload(0x40)\n  tag_13\n  swap2\n  swap1\n  tag_14\n  jump\t// in\ntag_13:\n  mload(0x40)\n  dup1\n  swap2\n  sub\n  swap1\n  log3\n    /* \"bentoken.sol\":604:1198  constructor(... */\n  pop\n  pop\n  pop\n  pop\n  pop\n  pop\n    /* \"bentoken.sol\":60:3873  contract BenToken {... */\n  jump(tag_15)\n    /* \"#utility.yul\":7:82   */\ntag_16:\n    /* \"#utility.yul\":40:46   */\n  0x00\n    /* \"#utility.yul\":73:75   */\n  0x40\n    /* \"#utility.yul\":67:76   */\n  mload\n    /* \"#utility.yul\":57:76   */\n  swap1\n  pop\n    /* \"#utility.yul\":7:82   */\n  swap1\n  jump\t// out\n    /* \"#utility.yul\":88:205   */\ntag_17:\n    /* \"#utility.yul\":197:198   */\n  0x00\n    /* \"#utility.yul\":194:195   */\n  dup1\n    /* \"#utility.yul\":187:199   */\n  revert\n    /* \"#utility.yul\":211:328   */\ntag_18:\n    /* \"#utility.yul\":320:321   */\n  0x00\n    /* \"#utility.yul\":317:318   */\n  dup1\n    /* \"#utility.yul\":310:322   */\n  revert\n    /* \"#utility.yul\":334:451   */\ntag_19:\n    /* \"#utility.yul\":443:444   */\n  0x00\n    /* \"#utility.yul\":440:441   */\n  dup1\n    /* \"#utility.yul\":433:445   */\n  revert\n    /* \"#utility.yul\":457:574   */\ntag_20:\n    /* \"#utility.yul\":566:567   */\n  0x00\n    /* \"#utility.yul\":563:564   */\n  dup1\n    /* \"#utility.yul\":556:568   */\n  revert\n    /* \"#utility.yul\":580:682   */\ntag_21:\n    /* \"#utility.yul\":621:627   */\n  0x00\n    /* \"#utility.yul\":672:674   */\n  0x1f\n    /* \"#utility.yul\":668:675   */\n  not\n    /* \"#utility.yul\":663:665   */\n  0x1f\n    /* \"#utility.yul\":656:661   */\n  dup4\n    /* \"#utility.yul\":652:666   */\n  add\n    /* \"#utility.yul\":648:676   */\n  and\n    /* \"#utility.yul\":638:676   */\n  swap1\n  pop\n    /* \"#utility.yul\":580:682   */\n  swap2\n  swap1\n  pop\n  jump\t// out\n    /* \"#utility.yul\":688:868   */\ntag_22:\n    /* \"#utility.yul\":736:813   */\n  0x4e487b7100000000000000000000000000000000000000000000000000000000\n    /* \"#utility.yul\":733:734   */\n  0x00\n    /* \"#utility.yul\":726:814   */\n  mstore\n    /* \"#utility.yul\":833:837   */\n  0x41\n    /* \"#utility.yul\":830:831   */\n  0x04\n    /* \"#utility.yul\":823:838   */\n  mstore\n    /* \"#utility.yul\":857:861   */\n  0x24\n    /* \"#utility.yul\":854:855   */\n  0x00\n    /* \"#utility.yul\":847:862   */\n  revert\n    /* \"#utility.yul\":874:1155   */\ntag_23:\n    /* \"#utility.yul\":957:984   */\n  tag_64\n    /* \"#utility.yul\":979:983   */\n  dup3\n    /* \"#utility.yul\":957:984   */\n  tag_21\n  jump\t// in\ntag_64:\n    /* \"#utility.yul\":949:955   */\n  dup2\n    /* \"#utility.yul\":945:985   */\n  add\n    /* \"#utility.yul\":1087:1093   */\n  dup2\n    /* \"#utility.yul\":1075:1085   */\n  dup2\n    /* \"#utility.yul\":1072:1094   */\n  lt\n    /* \"#utility.yul\":1051:1069   */\n  0xffffffffffffffff\n    /* \"#utility.yul\":1039:1049   */\n  dup3\n    /* \"#utility.yul\":1036:1070   */\n  gt\n    /* \"#utility.yul\":1033:1095   */\n  or\n    /* \"#utility.yul\":1030:1118   */\n  iszero\n  tag_65\n  jumpi\n    /* \"#utility.yul\":1098:1116   */\n  tag_66\n  tag_22\n  jump\t// in\ntag_66:\n    /* \"#utility.yul\":1030:1118   */\ntag_65:\n    /* \"#utility.yul\":1138:1148   */\n  dup1\n    /* \"#utility.yul\":1134:1136   */\n  0x40\n    /* \"#utility.yul\":1127:1149   */\n  mstore\n    /* \"#utility.yul\":917:1155   */\n  pop\n    /* \"#utility.yul\":874:1155   */\n  pop\n  pop\n  jump\t// out\n    /* \"#utility.yul\":1161:1290   */\ntag_24:\n    /* \"#utility.yul\":1195:1201   */\n  0x00\n    /* \"#utility.yul\":1222:1242   */\n  tag_68\n  tag_16\n  jump\t// in\ntag_68:\n    /* \"#utility.yul\":1212:1242   */\n  swap1\n  pop\n    /* \"#utility.yul\":1251:1284   */\n  tag_69\n    /* \"#utility.yul\":1279:1283   */\n  dup3\n    /* \"#utility.yul\":1271:1277   */\n  dup3\n    /* \"#utility.yul\":1251:1284   */\n  tag_23\n  jump\t// in\ntag_69:\n    /* \"#utility.yul\":1161:1290   */\n  swap2\n  swap1\n  pop\n  jump\t// out\n    /* \"#utility.yul\":1296:1604   */\ntag_25:\n    /* \"#utility.yul\":1358:1362   */\n  0x00\n    /* \"#utility.yul\":1448:1466   */\n  0xffffffffffffffff\n    /* \"#utility.yul\":1440:1446   */\n  dup3\n    /* \"#utility.yul\":1437:1467   */\n  gt\n    /* \"#utility.yul\":1434:1490   */\n  iszero\n  tag_71\n  jumpi\n    /* \"#utility.yul\":1470:1488   */\n  tag_72\n  tag_22\n  jump\t// in\ntag_72:\n    /* \"#utility.yul\":1434:1490   */\ntag_71:\n    /* \"#utility.yul\":1508:1537   */\n  tag_73\n    /* \"#utility.yul\":1530:1536   */\n  dup3\n    /* \"#utility.yul\":1508:1537   */\n  tag_21\n  jump\t// in\ntag_73:\n    /* \"#utility.yul\":1500:1537   */\n  swap1\n  pop\n    /* \"#utility.yul\":1592:1596   */\n  0x20\n    /* \"#utility.yul\":1586:1590   */\n  dup2\n    /* \"#utility.yul\":1582:1597   */\n  add\n    /* \"#utility.yul\":1574:1597   */\n  swap1\n  pop\n    /* \"#utility.yul\":1296:1604   */\n  swap2\n  swap1\n  pop\n  jump\t// out\n    /* \"#utility.yul\":1610:1856   */\ntag_26:\n    /* \"#utility.yul\":1691:1692   */\n  0x00\n    /* \"#utility.yul\":1701:1814   */\ntag_75:\n    /* \"#utility.yul\":1715:1721   */\n  dup4\n    /* \"#utility.yul\":1712:1713   */\n  dup2\n    /* \"#utility.yul\":1709:1722   */\n  lt\n    /* \"#utility.yul\":1701:1814   */\n  iszero\n  tag_77\n  jumpi\n    /* \"#utility.yul\":1800:1801   */\n  dup1\n    /* \"#utility.yul\":1795:1798   */\n  dup3\n    /* \"#utility.yul\":1791:1802   */\n  add\n    /* \"#utility.yul\":1785:1803   */\n  mload\n    /* \"#utility.yul\":1781:1782   */\n  dup2\n    /* \"#utility.yul\":1776:1779   */\n  dup5\n    /* \"#utility.yul\":1772:1783   */\n  add\n    /* \"#utility.yul\":1765:1804   */\n  mstore\n    /* \"#utility.yul\":1737:1739   */\n  0x20\n    /* \"#utility.yul\":1734:1735   */\n  dup2\n    /* \"#utility.yul\":1730:1740   */\n  add\n    /* \"#utility.yul\":1725:1740   */\n  swap1\n  pop\n    /* \"#utility.yul\":1701:1814   */\n  jump(tag_75)\ntag_77:\n    /* \"#utility.yul\":1848:1849   */\n  0x00\n    /* \"#utility.yul\":1839:1845   */\n  dup5\n    /* \"#utility.yul\":1834:1837   */\n  dup5\n    /* \"#utility.yul\":1830:1846   */\n  add\n    /* \"#utility.yul\":1823:1850   */\n  mstore\n    /* \"#utility.yul\":1672:1856   */\n  pop\n    /* \"#utility.yul\":1610:1856   */\n  pop\n  pop\n  pop\n  jump\t// out\n    /* \"#utility.yul\":1862:2296   */\ntag_27:\n    /* \"#utility.yul\":1951:1956   */\n  0x00\n    /* \"#utility.yul\":1976:2042   */\n  tag_79\n    /* \"#utility.yul\":1992:2041   */\n  tag_80\n    /* \"#utility.yul\":2034:2040   */\n  dup5\n    /* \"#utility.yul\":1992:2041   */\n  tag_25\n  jump\t// in\ntag_80:\n    /* \"#utility.yul\":1976:2042   */\n  tag_24\n  jump\t// in\ntag_79:\n    /* \"#utility.yul\":1967:2042   */\n  swap1\n  pop\n    /* \"#utility.yul\":2065:2071   */\n  dup3\n    /* \"#utility.yul\":2058:2063   */\n  dup2\n    /* \"#utility.yul\":2051:2072   */\n  mstore\n    /* \"#utility.yul\":2103:2107   */\n  0x20\n    /* \"#utility.yul\":2096:2101   */\n  dup2\n    /* \"#utility.yul\":2092:2108   */\n  add\n    /* \"#utility.yul\":2141:2144   */\n  dup5\n    /* \"#utility.yul\":2132:2138   */\n  dup5\n    /* \"#utility.yul\":2127:2130   */\n  dup5\n    /* \"#utility.yul\":2123:2139   */\n  add\n    /* \"#utility.yul\":2120:2145   */\n  gt\n    /* \"#utility.yul\":2117:2229   */\n  iszero\n  tag_81\n  jumpi\n    /* \"#utility.yul\":2148:2227   */\n  tag_82\n  tag_20\n  jump\t// in\ntag_82:\n    /* \"#utility.yul\":2117:2229   */\ntag_81:\n    /* \"#utility.yul\":2238:2290   */\n  tag_83\n    /* \"#utility.yul\":2283:2289   */\n  dup5\n    /* \"#utility.yul\":2278:2281   */\n  dup3\n    /* \"#utility.yul\":2273:2276   */\n  dup6\n    /* \"#utility.yul\":2238:2290   */\n  tag_26\n  jump\t// in\ntag_83:\n    /* \"#utility.yul\":1957:2296   */\n  pop\n    /* \"#utility.yul\":1862:2296   */\n  swap4\n  swap3\n  pop\n  pop\n  pop\n  jump\t// out\n    /* \"#utility.yul\":2316:2671   */\ntag_28:\n    /* \"#utility.yul\":2383:2388   */\n  0x00\n    /* \"#utility.yul\":2432:2435   */\n  dup3\n    /* \"#utility.yul\":2425:2429   */\n  0x1f\n    /* \"#utility.yul\":2417:2423   */\n  dup4\n    /* \"#utility.yul\":2413:2430   */\n  add\n    /* \"#utility.yul\":2409:2436   */\n  slt\n    /* \"#utility.yul\":2399:2521   */\n  tag_85\n  jumpi\n    /* \"#utility.yul\":2440:2519   */\n  tag_86\n  tag_19\n  jump\t// in\ntag_86:\n    /* \"#utility.yul\":2399:2521   */\ntag_85:\n    /* \"#utility.yul\":2550:2556   */\n  dup2\n    /* \"#utility.yul\":2544:2557   */\n  mload\n    /* \"#utility.yul\":2575:2665   */\n  tag_87\n    /* \"#utility.yul\":2661:2664   */\n  dup5\n    /* \"#utility.yul\":2653:2659   */\n  dup3\n    /* \"#utility.yul\":2646:2650   */\n  0x20\n    /* \"#utility.yul\":2638:2644   */\n  dup7\n    /* \"#utility.yul\":2634:2651   */\n  add\n    /* \"#utility.yul\":2575:2665   */\n  tag_27\n  jump\t// in\ntag_87:\n    /* \"#utility.yul\":2566:2665   */\n  swap2\n  pop\n    /* \"#utility.yul\":2389:2671   */\n  pop\n    /* \"#utility.yul\":2316:2671   */\n  swap3\n  swap2\n  pop\n  pop\n  jump\t// out\n    /* \"#utility.yul\":2677:2754   */\ntag_29:\n    /* \"#utility.yul\":2714:2721   */\n  0x00\n    /* \"#utility.yul\":2743:2748   */\n  dup2\n    /* \"#utility.yul\":2732:2748   */\n  swap1\n  pop\n    /* \"#utility.yul\":2677:2754   */\n  swap2\n  swap1\n  pop\n  jump\t// out\n    /* \"#utility.yul\":2760:2882   */\ntag_30:\n    /* \"#utility.yul\":2833:2857   */\n  tag_90\n    /* \"#utility.yul\":2851:2856   */\n  dup2\n    /* \"#utility.yul\":2833:2857   */\n  tag_29\n  jump\t// in\ntag_90:\n    /* \"#utility.yul\":2826:2831   */\n  dup2\n    /* \"#utility.yul\":2823:2858   */\n  eq\n    /* \"#utility.yul\":2813:2876   */\n  tag_91\n  jumpi\n    /* \"#utility.yul\":2872:2873   */\n  0x00\n    /* \"#utility.yul\":2869:2870   */\n  dup1\n    /* \"#utility.yul\":2862:2874   */\n  revert\n    /* \"#utility.yul\":2813:2876   */\ntag_91:\n    /* \"#utility.yul\":2760:2882   */\n  pop\n  jump\t// out\n    /* \"#utility.yul\":2888:3031   */\ntag_31:\n    /* \"#utility.yul\":2945:2950   */\n  0x00\n    /* \"#utility.yul\":2976:2982   */\n  dup2\n    /* \"#utility.yul\":2970:2983   */\n  mload\n    /* \"#utility.yul\":2961:2983   */\n  swap1\n  pop\n    /* \"#utility.yul\":2992:3025   */\n  tag_93\n    /* \"#utility.yul\":3019:3024   */\n  dup2\n    /* \"#utility.yul\":2992:3025   */\n  tag_30\n  jump\t// in\ntag_93:\n    /* \"#utility.yul\":2888:3031   */\n  swap3\n  swap2\n  pop\n  pop\n  jump\t// out\n    /* \"#utility.yul\":3037:4517   */\ntag_3:\n    /* \"#utility.yul\":3172:3178   */\n  0x00\n    /* \"#utility.yul\":3180:3186   */\n  dup1\n    /* \"#utility.yul\":3188:3194   */\n  0x00\n    /* \"#utility.yul\":3196:3202   */\n  dup1\n    /* \"#utility.yul\":3204:3210   */\n  0x00\n    /* \"#utility.yul\":3212:3218   */\n  dup1\n    /* \"#utility.yul\":3261:3264   */\n  0xc0\n    /* \"#utility.yul\":3249:3258   */\n  dup8\n    /* \"#utility.yul\":3240:3247   */\n  dup10\n    /* \"#utility.yul\":3236:3259   */\n  sub\n    /* \"#utility.yul\":3232:3265   */\n  slt\n    /* \"#utility.yul\":3229:3349   */\n  iszero\n  tag_95\n  jumpi\n    /* \"#utility.yul\":3268:3347   */\n  tag_96\n  tag_17\n  jump\t// in\ntag_96:\n    /* \"#utility.yul\":3229:3349   */\ntag_95:\n    /* \"#utility.yul\":3409:3410   */\n  0x00\n    /* \"#utility.yul\":3398:3407   */\n  dup8\n    /* \"#utility.yul\":3394:3411   */\n  add\n    /* \"#utility.yul\":3388:3412   */\n  mload\n    /* \"#utility.yul\":3439:3457   */\n  0xffffffffffffffff\n    /* \"#utility.yul\":3431:3437   */\n  dup2\n    /* \"#utility.yul\":3428:3458   */\n  gt\n    /* \"#utility.yul\":3425:3542   */\n  iszero\n  tag_97\n  jumpi\n    /* \"#utility.yul\":3461:3540   */\n  tag_98\n  tag_18\n  jump\t// in\ntag_98:\n    /* \"#utility.yul\":3425:3542   */\ntag_97:\n    /* \"#utility.yul\":3566:3640   */\n  tag_99\n    /* \"#utility.yul\":3632:3639   */\n  dup10\n    /* \"#utility.yul\":3623:3629   */\n  dup3\n    /* \"#utility.yul\":3612:3621   */\n  dup11\n    /* \"#utility.yul\":3608:3630   */\n  add\n    /* \"#utility.yul\":3566:3640   */\n  tag_28\n  jump\t// in\ntag_99:\n    /* \"#utility.yul\":3556:3640   */\n  swap7\n  pop\n    /* \"#utility.yul\":3359:3650   */\n  pop\n    /* \"#utility.yul\":3710:3712   */\n  0x20\n    /* \"#utility.yul\":3699:3708   */\n  dup8\n    /* \"#utility.yul\":3695:3713   */\n  add\n    /* \"#utility.yul\":3689:3714   */\n  mload\n    /* \"#utility.yul\":3741:3759   */\n  0xffffffffffffffff\n    /* \"#utility.yul\":3733:3739   */\n  dup2\n    /* \"#utility.yul\":3730:3760   */\n  gt\n    /* \"#utility.yul\":3727:3844   */\n  iszero\n  tag_100\n  jumpi\n    /* \"#utility.yul\":3763:3842   */\n  tag_101\n  tag_18\n  jump\t// in\ntag_101:\n    /* \"#utility.yul\":3727:3844   */\ntag_100:\n    /* \"#utility.yul\":3868:3942   */\n  tag_102\n    /* \"#utility.yul\":3934:3941   */\n  dup10\n    /* \"#utility.yul\":3925:3931   */\n  dup3\n    /* \"#utility.yul\":3914:3923   */\n  dup11\n    /* \"#utility.yul\":3910:3932   */\n  add\n    /* \"#utility.yul\":3868:3942   */\n  tag_28\n  jump\t// in\ntag_102:\n    /* \"#utility.yul\":3858:3942   */\n  swap6\n  pop\n    /* \"#utility.yul\":3660:3952   */\n  pop\n    /* \"#utility.yul\":3991:3993   */\n  0x40\n    /* \"#utility.yul\":4017:4081   */\n  tag_103\n    /* \"#utility.yul\":4073:4080   */\n  dup10\n    /* \"#utility.yul\":4064:4070   */\n  dup3\n    /* \"#utility.yul\":4053:4062   */\n  dup11\n    /* \"#utility.yul\":4049:4071   */\n  add\n    /* \"#utility.yul\":4017:4081   */\n  tag_31\n  jump\t// in\ntag_103:\n    /* \"#utility.yul\":4007:4081   */\n  swap5\n  pop\n    /* \"#utility.yul\":3962:4091   */\n  pop\n    /* \"#utility.yul\":4130:4132   */\n  0x60\n    /* \"#utility.yul\":4156:4220   */\n  tag_104\n    /* \"#utility.yul\":4212:4219   */\n  dup10\n    /* \"#utility.yul\":4203:4209   */\n  dup3\n    /* \"#utility.yul\":4192:4201   */\n  dup11\n    /* \"#utility.yul\":4188:4210   */\n  add\n    /* \"#utility.yul\":4156:4220   */\n  tag_31\n  jump\t// in\ntag_104:\n    /* \"#utility.yul\":4146:4220   */\n  swap4\n  pop\n    /* \"#utility.yul\":4101:4230   */\n  pop\n    /* \"#utility.yul\":4269:4272   */\n  0x80\n    /* \"#utility.yul\":4296:4360   */\n  tag_105\n    /* \"#utility.yul\":4352:4359   */\n  dup10\n    /* \"#utility.yul\":4343:4349   */\n  dup3\n    /* \"#utility.yul\":4332:4341   */\n  dup11\n    /* \"#utility.yul\":4328:4350   */\n  add\n    /* \"#utility.yul\":4296:4360   */\n  tag_31\n  jump\t// in\ntag_105:\n    /* \"#utility.yul\":4286:4360   */\n  swap3\n  pop\n    /* \"#utility.yul\":4240:4370   */\n  pop\n    /* \"#utility.yul\":4409:4412   */\n  0xa0\n    /* \"#utility.yul\":4436:4500   */\n  tag_106\n    /* \"#utility.yul\":4492:4499   */\n  dup10\n    /* \"#utility.yul\":4483:4489   */\n  dup3\n    /* \"#utility.yul\":4472:4481   */\n  dup11\n    /* \"#utility.yul\":4468:4490   */\n  add\n    /* \"#utility.yul\":4436:4500   */\n  tag_31\n  jump\t// in\ntag_106:\n    /* \"#utility.yul\":4426:4500   */\n  swap2\n  pop\n    /* \"#utility.yul\":4380:4510   */\n  pop\n    /* \"#utility.yul\":3037:4517   */\n  swap3\n  swap6\n  pop\n  swap3\n  swap6\n  pop\n  swap3\n  swap6\n  jump\t// out\n    /* \"#utility.yul\":4523:4622   */\ntag_32:\n    /* \"#utility.yul\":4575:4581   */\n  0x00\n    /* \"#utility.yul\":4609:4614   */\n  dup2\n    /* \"#utility.yul\":4603:4615   */\n  mload\n    /* \"#utility.yul\":4593:4615   */\n  swap1\n  pop\n    /* \"#utility.yul\":4523:4622   */\n  swap2\n  swap1\n  pop\n  jump\t// out\n    /* \"#utility.yul\":4628:4808   */\ntag_33:\n    /* \"#utility.yul\":4676:4753   */\n  0x4e487b7100000000000000000000000000000000000000000000000000000000\n    /* \"#utility.yul\":4673:4674   */\n  0x00\n    /* \"#utility.yul\":4666:4754   */\n  mstore\n    /* \"#utility.yul\":4773:4777   */\n  0x22\n    /* \"#utility.yul\":4770:4771   */\n  0x04\n    /* \"#utility.yul\":4763:4778   */\n  mstore\n    /* \"#utility.yul\":4797:4801   */\n  0x24\n    /* \"#utility.yul\":4794:4795   */\n  0x00\n    /* \"#utility.yul\":4787:4802   */\n  revert\n    /* \"#utility.yul\":4814:5134   */\ntag_34:\n    /* \"#utility.yul\":4858:4864   */\n  0x00\n    /* \"#utility.yul\":4895:4896   */\n  0x02\n    /* \"#utility.yul\":4889:4893   */\n  dup3\n    /* \"#utility.yul\":4885:4897   */\n  div\n    /* \"#utility.yul\":4875:4897   */\n  swap1\n  pop\n    /* \"#utility.yul\":4942:4943   */\n  0x01\n    /* \"#utility.yul\":4936:4940   */\n  dup3\n    /* \"#utility.yul\":4932:4944   */\n  and\n    /* \"#utility.yul\":4963:4981   */\n  dup1\n    /* \"#utility.yul\":4953:5034   */\n  tag_110\n  jumpi\n    /* \"#utility.yul\":5019:5023   */\n  0x7f\n    /* \"#utility.yul\":5011:5017   */\n  dup3\n    /* \"#utility.yul\":5007:5024   */\n  and\n    /* \"#utility.yul\":4997:5024   */\n  swap2\n  pop\n    /* \"#utility.yul\":4953:5034   */\ntag_110:\n    /* \"#utility.yul\":5081:5083   */\n  0x20\n    /* \"#utility.yul\":5073:5079   */\n  dup3\n    /* \"#utility.yul\":5070:5084   */\n  lt\n    /* \"#utility.yul\":5050:5068   */\n  dup2\n    /* \"#utility.yul\":5047:5085   */\n  sub\n    /* \"#utility.yul\":5044:5128   */\n  tag_111\n  jumpi\n    /* \"#utility.yul\":5100:5118   */\n  tag_112\n  tag_33\n  jump\t// in\ntag_112:\n    /* \"#utility.yul\":5044:5128   */\ntag_111:\n    /* \"#utility.yul\":4865:5134   */\n  pop\n    /* \"#utility.yul\":4814:5134   */\n  swap2\n  swap1\n  pop\n  jump\t// out\n    /* \"#utility.yul\":5140:5281   */\ntag_35:\n    /* \"#utility.yul\":5189:5193   */\n  0x00\n    /* \"#utility.yul\":5212:5215   */\n  dup2\n    /* \"#utility.yul\":5204:5215   */\n  swap1\n  pop\n    /* \"#utility.yul\":5235:5238   */\n  dup2\n    /* \"#utility.yul\":5232:5233   */\n  0x00\n    /* \"#utility.yul\":5225:5239   */\n  mstore\n    /* \"#utility.yul\":5269:5273   */\n  0x20\n    /* \"#utility.yul\":5266:5267   */\n  0x00\n    /* \"#utility.yul\":5256:5274   */\n  keccak256\n    /* \"#utility.yul\":5248:5274   */\n  swap1\n  pop\n    /* \"#utility.yul\":5140:5281   */\n  swap2\n  swap1\n  pop\n  jump\t// out\n    /* \"#utility.yul\":5287:5380   */\ntag_36:\n    /* \"#utility.yul\":5324:5330   */\n  0x00\n    /* \"#utility.yul\":5371:5373   */\n  0x20\n    /* \"#utility.yul\":5366:5368   */\n  0x1f\n    /* \"#utility.yul\":5359:5364   */\n  dup4\n    /* \"#utility.yul\":5355:5369   */\n  add\n    /* \"#utility.yul\":5351:5374   */\n  div\n    /* \"#utility.yul\":5341:5374   */\n  swap1\n  pop\n    /* \"#utility.yul\":5287:5380   */\n  swap2\n  swap1\n  pop\n  jump\t// out\n    /* \"#utility.yul\":5386:5493   */\ntag_37:\n    /* \"#utility.yul\":5430:5438   */\n  0x00\n    /* \"#utility.yul\":5480:5485   */\n  dup3\n    /* \"#utility.yul\":5474:5478   */\n  dup3\n    /* \"#utility.yul\":5470:5486   */\n  shl\n    /* \"#utility.yul\":5449:5486   */\n  swap1\n  pop\n    /* \"#utility.yul\":5386:5493   */\n  swap3\n  swap2\n  pop\n  pop\n  jump\t// out\n    /* \"#utility.yul\":5499:5892   */\ntag_38:\n    /* \"#utility.yul\":5568:5574   */\n  0x00\n    /* \"#utility.yul\":5618:5619   */\n  0x08\n    /* \"#utility.yul\":5606:5616   */\n  dup4\n    /* \"#utility.yul\":5602:5620   */\n  mul\n    /* \"#utility.yul\":5641:5738   */\n  tag_117\n    /* \"#utility.yul\":5671:5737   */\n  0xffffffffffffffffffffffffffffffffffffffffffffffffffffffffffffffff\n    /* \"#utility.yul\":5660:5669   */\n  dup3\n    /* \"#utility.yul\":5641:5738   */\n  tag_37\n  jump\t// in\ntag_117:\n    /* \"#utility.yul\":5759:5798   */\n  tag_118\n    /* \"#utility.yul\":5789:5797   */\n  dup7\n    /* \"#utility.yul\":5778:5787   */\n  dup4\n    /* \"#utility.yul\":5759:5798   */\n  tag_37\n  jump\t// in\ntag_118:\n    /* \"#utility.yul\":5747:5798   */\n  swap6\n  pop\n    /* \"#utility.yul\":5831:5835   */\n  dup1\n    /* \"#utility.yul\":5827:5836   */\n  not\n    /* \"#utility.yul\":5820:5825   */\n  dup5\n    /* \"#utility.yul\":5816:5837   */\n  and\n    /* \"#utility.yul\":5807:5837   */\n  swap4\n  pop\n    /* \"#utility.yul\":5880:5884   */\n  dup1\n    /* \"#utility.yul\":5870:5878   */\n  dup7\n    /* \"#utility.yul\":5866:5885   */\n  and\n    /* \"#utility.yul\":5859:5864   */\n  dup5\n    /* \"#utility.yul\":5856:5886   */\n  or\n    /* \"#utility.yul\":5846:5886   */\n  swap3\n  pop\n    /* \"#utility.yul\":5575:5892   */\n  pop\n  pop\n    /* \"#utility.yul\":5499:5892   */\n  swap4\n  swap3\n  pop\n  pop\n  pop\n  jump\t// out\n    /* \"#utility.yul\":5898:5958   */\ntag_39:\n    /* \"#utility.yul\":5926:5929   */\n  0x00\n    /* \"#utility.yul\":5947:5952   */\n  dup2\n    /* \"#utility.yul\":5940:5952   */\n  swap1\n  pop\n    /* \"#utility.yul\":5898:5958   */\n  swap2\n  swap1\n  pop\n  jump\t// out\n    /* \"#utility.yul\":5964:6106   */\ntag_40:\n    /* \"#utility.yul\":6014:6023   */\n  0x00\n    /* \"#utility.yul\":6047:6100   */\n  tag_121\n    /* \"#utility.yul\":6065:6099   */\n  tag_122\n    /* \"#utility.yul\":6074:6098   */\n  tag_123\n    /* \"#utility.yul\":6092:6097   */\n  dup5\n    /* \"#utility.yul\":6074:6098   */\n  tag_29\n  jump\t// in\ntag_123:\n    /* \"#utility.yul\":6065:6099   */\n  tag_39\n  jump\t// in\ntag_122:\n    /* \"#utility.yul\":6047:6100   */\n  tag_29\n  jump\t// in\ntag_121:\n    /* \"#utility.yul\":6034:6100   */\n  swap1\n  pop\n    /* \"#utility.yul\":5964:6106   */\n  swap2\n  swap1\n  pop\n  jump\t// out\n    /* \"#utility.yul\":6112:6187   */\ntag_41:\n    /* \"#utility.yul\":6155:6158   */\n  0x00\n    /* \"#utility.yul\":6176:6181   */\n  dup2\n    /* \"#utility.yul\":6169:6181   */\n  swap1\n  pop\n    /* \"#utility.yul\":6112:6187   */\n  swap2\n  swap1\n  pop\n  jump\t// out\n    /* \"#utility.yul\":6193:6462   */\ntag_42:\n    /* \"#utility.yul\":6303:6342   */\n  tag_126\n    /* \"#utility.yul\":6334:6341   */\n  dup4\n    /* \"#utility.yul\":6303:6342   */\n  tag_40\n  jump\t// in\ntag_126:\n    /* \"#utility.yul\":6364:6455   */\n  tag_127\n    /* \"#utility.yul\":6413:6454   */\n  tag_128\n    /* \"#utility.yul\":6437:6453   */\n  dup3\n    /* \"#utility.yul\":6413:6454   */\n  tag_41\n  jump\t// in\ntag_128:\n    /* \"#utility.yul\":6405:6411   */\n  dup5\n    /* \"#utility.yul\":6398:6402   */\n  dup5\n    /* \"#utility.yul\":6392:6403   */\n  sload\n    /* \"#utility.yul\":6364:6455   */\n  tag_38\n  jump\t// in\ntag_127:\n    /* \"#utility.yul\":6358:6362   */\n  dup3\n    /* \"#utility.yul\":6351:6456   */\n  sstore\n    /* \"#utility.yul\":6269:6462   */\n  pop\n    /* \"#utility.yul\":6193:6462   */\n  pop\n  pop\n  pop\n  jump\t// out\n    /* \"#utility.yul\":6468:6541   */\ntag_43:\n    /* \"#utility.yul\":6513:6516   */\n  0x00\n    /* \"#utility.yul\":6468:6541   */\n  swap1\n  jump\t// out\n    /* \"#utility.yul\":6547:6736   */\ntag_44:\n    /* \"#utility.yul\":6624:6656   */\n  tag_131\n  tag_43\n  jump\t// in\ntag_131:\n    /* \"#utility.yul\":6665:6730   */\n  tag_132\n    /* \"#utility.yul\":6723:6729   */\n  dup2\n    /* \"#utility.yul\":6715:6721   */\n  dup5\n    /* \"#utility.yul\":6709:6713   */\n  dup5\n    /* \"#utility.yul\":6665:6730   */\n  tag_42\n  jump\t// in\ntag_132:\n    /* \"#utility.yul\":6600:6736   */\n  pop\n    /* \"#utility.yul\":6547:6736   */\n  pop\n  pop\n  jump\t// out\n    /* \"#utility.yul\":6742:6928   */\ntag_45:\n    /* \"#utility.yul\":6802:6922   */\ntag_134:\n    /* \"#utility.yul\":6819:6822   */\n  dup2\n    /* \"#utility.yul\":6812:6817   */\n  dup2\n    /* \"#utility.yul\":6809:6823   */\n  lt\n    /* \"#utility.yul\":6802:6922   */\n  iszero\n  tag_136\n  jumpi\n    /* \"#utility.yul\":6873:6912   */\n  tag_137\n    /* \"#utility.yul\":6910:6911   */\n  0x00\n    /* \"#utility.yul\":6903:6908   */\n  dup3\n    /* \"#utility.yul\":6873:6912   */\n  tag_44\n  jump\t// in\ntag_137:\n    /* \"#utility.yul\":6846:6847   */\n  0x01\n    /* \"#utility.yul\":6839:6844   */\n  dup2\n    /* \"#utility.yul\":6835:6848   */\n  add\n    /* \"#utility.yul\":6826:6848   */\n  swap1\n  pop\n    /* \"#utility.yul\":6802:6922   */\n  jump(tag_134)\ntag_136:\n    /* \"#utility.yul\":6742:6928   */\n  pop\n  pop\n  jump\t// out\n    /* \"#utility.yul\":6934:7477   */\ntag_46:\n    /* \"#utility.yul\":7035:7037   */\n  0x1f\n    /* \"#utility.yul\":7030:7033   */\n  dup3\n    /* \"#utility.yul\":7027:7038   */\n  gt\n    /* \"#utility.yul\":7024:7470   */\n  iszero\n  tag_139\n  jumpi\n    /* \"#utility.yul\":7069:7107   */\n  tag_140\n    /* \"#utility.yul\":7101:7106   */\n  dup2\n    /* \"#utility.yul\":7069:7107   */\n  tag_35\n  jump\t// in\ntag_140:\n    /* \"#utility.yul\":7153:7182   */\n  tag_141\n    /* \"#utility.yul\":7171:7181   */\n  dup5\n    /* \"#utility.yul\":7153:7182   */\n  tag_36\n  jump\t// in\ntag_141:\n    /* \"#utility.yul\":7143:7151   */\n  dup2\n    /* \"#utility.yul\":7139:7183   */\n  add\n    /* \"#utility.yul\":7336:7338   */\n  0x20\n    /* \"#utility.yul\":7324:7334   */\n  dup6\n    /* \"#utility.yul\":7321:7339   */\n  lt\n    /* \"#utility.yul\":7318:7367   */\n  iszero\n  tag_142\n  jumpi\n    /* \"#utility.yul\":7357:7365   */\n  dup2\n    /* \"#utility.yul\":7342:7365   */\n  swap1\n  pop\n    /* \"#utility.yul\":7318:7367   */\ntag_142:\n    /* \"#utility.yul\":7380:7460   */\n  tag_143\n    /* \"#utility.yul\":7436:7458   */\n  tag_144\n    /* \"#utility.yul\":7454:7457   */\n  dup6\n    /* \"#utility.yul\":7436:7458   */\n  tag_36\n  jump\t// in\ntag_144:\n    /* \"#utility.yul\":7426:7434   */\n  dup4\n    /* \"#utility.yul\":7422:7459   */\n  add\n    /* \"#utility.yul\":7409:7420   */\n  dup3\n    /* \"#utility.yul\":7380:7460   */\n  tag_45\n  jump\t// in\ntag_143:\n    /* \"#utility.yul\":7039:7470   */\n  pop\n  pop\n    /* \"#utility.yul\":7024:7470   */\ntag_139:\n    /* \"#utility.yul\":6934:7477   */\n  pop\n  pop\n  pop\n  jump\t// out\n    /* \"#utility.yul\":7483:7600   */\ntag_47:\n    /* \"#utility.yul\":7537:7545   */\n  0x00\n    /* \"#utility.yul\":7587:7592   */\n  dup3\n    /* \"#utility.yul\":7581:7585   */\n  dup3\n    /* \"#utility.yul\":7577:7593   */\n  shr\n    /* \"#utility.yul\":7556:7593   */\n  swap1\n  pop\n    /* \"#utility.yul\":7483:7600   */\n  swap3\n  swap2\n  pop\n  pop\n  jump\t// out\n    /* \"#utility.yul\":7606:7775   */\ntag_48:\n    /* \"#utility.yul\":7650:7656   */\n  0x00\n    /* \"#utility.yul\":7683:7734   */\n  tag_147\n    /* \"#utility.yul\":7731:7732   */\n  0x00\n    /* \"#utility.yul\":7727:7733   */\n  not\n    /* \"#utility.yul\":7719:7724   */\n  dup5\n    /* \"#utility.yul\":7716:7717   */\n  0x08\n    /* \"#utility.yul\":7712:7725   */\n  mul\n    /* \"#utility.yul\":7683:7734   */\n  tag_47\n  jump\t// in\ntag_147:\n    /* \"#utility.yul\":7679:7735   */\n  not\n    /* \"#utility.yul\":7764:7768   */\n  dup1\n    /* \"#utility.yul\":7758:7762   */\n  dup4\n    /* \"#utility.yul\":7754:7769   */\n  and\n    /* \"#utility.yul\":7744:7769   */\n  swap2\n  pop\n    /* \"#utility.yul\":7657:7775   */\n  pop\n    /* \"#utility.yul\":7606:7775   */\n  swap3\n  swap2\n  pop\n  pop\n  jump\t// out\n    /* \"#utility.yul\":7780:8075   */\ntag_49:\n    /* \"#utility.yul\":7856:7860   */\n  0x00\n    /* \"#utility.yul\":8002:8031   */\n  tag_149\n    /* \"#utility.yul\":8027:8030   */\n  dup4\n    /* \"#utility.yul\":8021:8025   */\n  dup4\n    /* \"#utility.yul\":8002:8031   */\n  tag_48\n  jump\t// in\ntag_149:\n    /* \"#utility.yul\":7994:8031   */\n  swap2\n  pop\n    /* \"#utility.yul\":8064:8067   */\n  dup3\n    /* \"#utility.yul\":8061:8062   */\n  0x02\n    /* \"#utility.yul\":8057:8068   */\n  mul\n    /* \"#utility.yul\":8051:8055   */\n  dup3\n    /* \"#utility.yul\":8048:8069   */\n  or\n    /* \"#utility.yul\":8040:8069   */\n  swap1\n  pop\n    /* \"#utility.yul\":7780:8075   */\n  swap3\n  swap2\n  pop\n  pop\n  jump\t// out\n    /* \"#utility.yul\":8080:9475   */\ntag_7:\n    /* \"#utility.yul\":8197:8234   */\n  tag_151\n    /* \"#utility.yul\":8230:8233   */\n  dup3\n    /* \"#utility.yul\":8197:8234   */\n  tag_32\n  jump\t// in\ntag_151:\n    /* \"#utility.yul\":8299:8317   */\n  0xffffffffffffffff\n    /* \"#utility.yul\":8291:8297   */\n  dup2\n    /* \"#utility.yul\":8288:8318   */\n  gt\n    /* \"#utility.yul\":8285:8341   */\n  iszero\n  tag_152\n  jumpi\n    /* \"#utility.yul\":8321:8339   */\n  tag_153\n  tag_22\n  jump\t// in\ntag_153:\n    /* \"#utility.yul\":8285:8341   */\ntag_152:\n    /* \"#utility.yul\":8365:8403   */\n  tag_154\n    /* \"#utility.yul\":8397:8401   */\n  dup3\n    /* \"#utility.yul\":8391:8402   */\n  sload\n    /* \"#utility.yul\":8365:8403   */\n  tag_34\n  jump\t// in\ntag_154:\n    /* \"#utility.yul\":8450:8517   */\n  tag_155\n    /* \"#utility.yul\":8510:8516   */\n  dup3\n    /* \"#utility.yul\":8502:8508   */\n  dup3\n    /* \"#utility.yul\":8496:8500   */\n  dup6\n    /* \"#utility.yul\":8450:8517   */\n  tag_46\n  jump\t// in\ntag_155:\n    /* \"#utility.yul\":8544:8545   */\n  0x00\n    /* \"#utility.yul\":8568:8572   */\n  0x20\n    /* \"#utility.yul\":8555:8572   */\n  swap1\n  pop\n    /* \"#utility.yul\":8600:8602   */\n  0x1f\n    /* \"#utility.yul\":8592:8598   */\n  dup4\n    /* \"#utility.yul\":8589:8603   */\n  gt\n    /* \"#utility.yul\":8617:8618   */\n  0x01\n    /* \"#utility.yul\":8612:9230   */\n  dup2\n  eq\n  tag_157\n  jumpi\n    /* \"#utility.yul\":9274:9275   */\n  0x00\n    /* \"#utility.yul\":9291:9297   */\n  dup5\n    /* \"#utility.yul\":9288:9365   */\n  iszero\n  tag_158\n  jumpi\n    /* \"#utility.yul\":9340:9349   */\n  dup3\n    /* \"#utility.yul\":9335:9338   */\n  dup8\n    /* \"#utility.yul\":9331:9350   */\n  add\n    /* \"#utility.yul\":9325:9351   */\n  mload\n    /* \"#utility.yul\":9316:9351   */\n  swap1\n  pop\n    /* \"#utility.yul\":9288:9365   */\ntag_158:\n    /* \"#utility.yul\":9391:9458   */\n  tag_159\n    /* \"#utility.yul\":9451:9457   */\n  dup6\n    /* \"#utility.yul\":9444:9449   */\n  dup3\n    /* \"#utility.yul\":9391:9458   */\n  tag_49\n  jump\t// in\ntag_159:\n    /* \"#utility.yul\":9385:9389   */\n  dup7\n    /* \"#utility.yul\":9378:9459   */\n  sstore\n    /* \"#utility.yul\":9247:9469   */\n  pop\n    /* \"#utility.yul\":8582:9469   */\n  jump(tag_156)\n    /* \"#utility.yul\":8612:9230   */\ntag_157:\n    /* \"#utility.yul\":8664:8668   */\n  0x1f\n    /* \"#utility.yul\":8660:8669   */\n  not\n    /* \"#utility.yul\":8652:8658   */\n  dup5\n    /* \"#utility.yul\":8648:8670   */\n  and\n    /* \"#utility.yul\":8698:8735   */\n  tag_160\n    /* \"#utility.yul\":8730:8734   */\n  dup7\n    /* \"#utility.yul\":8698:8735   */\n  tag_35\n  jump\t// in\ntag_160:\n    /* \"#utility.yul\":8757:8758   */\n  0x00\n    /* \"#utility.yul\":8771:8979   */\ntag_161:\n    /* \"#utility.yul\":8785:8792   */\n  dup3\n    /* \"#utility.yul\":8782:8783   */\n  dup2\n    /* \"#utility.yul\":8779:8793   */\n  lt\n    /* \"#utility.yul\":8771:8979   */\n  iszero\n  tag_163\n  jumpi\n    /* \"#utility.yul\":8864:8873   */\n  dup5\n    /* \"#utility.yul\":8859:8862   */\n  dup10\n    /* \"#utility.yul\":8855:8874   */\n  add\n    /* \"#utility.yul\":8849:8875   */\n  mload\n    /* \"#utility.yul\":8841:8847   */\n  dup3\n    /* \"#utility.yul\":8834:8876   */\n  sstore\n    /* \"#utility.yul\":8915:8916   */\n  0x01\n    /* \"#utility.yul\":8907:8913   */\n  dup3\n    /* \"#utility.yul\":8903:8917   */\n  add\n    /* \"#utility.yul\":8893:8917   */\n  swap2\n  pop\n    /* \"#utility.yul\":8962:8964   */\n  0x20\n    /* \"#utility.yul\":8951:8960   */\n  dup6\n    /* \"#utility.yul\":8947:8965   */\n  add\n    /* \"#utility.yul\":8934:8965   */\n  swap5\n  pop\n    /* \"#utility.yul\":8808:8812   */\n  0x20\n    /* \"#utility.yul\":8805:8806   */\n  dup2\n    /* \"#utility.yul\":8801:8813   */\n  add\n    /* \"#utility.yul\":8796:8813   */\n  swap1\n  pop\n    /* \"#utility.yul\":8771:8979   */\n  jump(tag_161)\ntag_163:\n    /* \"#utility.yul\":9007:9013   */\n  dup7\n    /* \"#utility.yul\":8998:9005   */\n  dup4\n    /* \"#utility.yul\":8995:9014   */\n  lt\n    /* \"#utility.yul\":8992:9171   */\n  iszero\n  tag_164\n  jumpi\n    /* \"#utility.yul\":9065:9074   */\n  dup5\n    /* \"#utility.yul\":9060:9063   */\n  dup10\n    /* \"#utility.yul\":9056:9075   */\n  add\n    /* \"#utility.yul\":9050:9076   */\n  mload\n    /* \"#utility.yul\":9108:9156   */\n  tag_165\n    /* \"#utility.yul\":9150:9154   */\n  0x1f\n    /* \"#utility.yul\":9142:9148   */\n  dup10\n    /* \"#utility.yul\":9138:9155   */\n  and\n    /* \"#utility.yul\":9127:9136   */\n  dup3\n    /* \"#utility.yul\":9108:9156   */\n  tag_48\n  jump\t// in\ntag_165:\n    /* \"#utility.yul\":9100:9106   */\n  dup4\n    /* \"#utility.yul\":9093:9157   */\n  sstore\n    /* \"#utility.yul\":9015:9171   */\n  pop\n    /* \"#utility.yul\":8992:9171   */\ntag_164:\n    /* \"#utility.yul\":9217:9218   */\n  0x01\n    /* \"#utility.yul\":9213:9214   */\n  0x02\n    /* \"#utility.yul\":9205:9211   */\n  dup9\n    /* \"#utility.yul\":9201:9215   */\n  mul\n    /* \"#utility.yul\":9197:9219   */\n  add\n    /* \"#utility.yul\":9191:9195   */\n  dup9\n    /* \"#utility.yul\":9184:9220   */\n  sstore\n    /* \"#utility.yul\":8619:9230   */\n  pop\n  pop\n  pop\n    /* \"#utility.yul\":8582:9469   */\ntag_156:\n  pop\n    /* \"#utility.yul\":8172:9475   */\n  pop\n  pop\n  pop\n    /* \"#utility.yul\":8080:9475   */\n  pop\n  pop\n  jump\t// out\n    /* \"#utility.yul\":9481:9661   */\ntag_50:\n    /* \"#utility.yul\":9529:9606   */\n  0x4e487b7100000000000000000000000000000000000000000000000000000000\n    /* \"#utility.yul\":9526:9527   */\n  0x00\n    /* \"#utility.yul\":9519:9607   */\n  mstore\n    /* \"#utility.yul\":9626:9630   */\n  0x11\n    /* \"#utility.yul\":9623:9624   */\n  0x04\n    /* \"#utility.yul\":9616:9631   */\n  mstore\n    /* \"#utility.yul\":9650:9654   */\n  0x24\n    /* \"#utility.yul\":9647:9648   */\n  0x00\n    /* \"#utility.yul\":9640:9655   */\n  revert\n    /* \"#utility.yul\":9667:9769   */\ntag_51:\n    /* \"#utility.yul\":9709:9717   */\n  0x00\n    /* \"#utility.yul\":9756:9761   */\n  dup2\n    /* \"#utility.yul\":9753:9754   */\n  0x01\n    /* \"#utility.yul\":9749:9762   */\n  shr\n    /* \"#utility.yul\":9728:9762   */\n  swap1\n  pop\n    /* \"#utility.yul\":9667:9769   */\n  swap2\n  swap1\n  pop\n  jump\t// out\n    /* \"#utility.yul\":9775:10623   */\ntag_52:\n    /* \"#utility.yul\":9836:9841   */\n  0x00\n    /* \"#utility.yul\":9843:9847   */\n  dup1\n    /* \"#utility.yul\":9867:9873   */\n  dup3\n    /* \"#utility.yul\":9858:9873   */\n  swap2\n  pop\n    /* \"#utility.yul\":9891:9896   */\n  dup4\n    /* \"#utility.yul\":9882:9896   */\n  swap1\n  pop\n    /* \"#utility.yul\":9905:10617   */\ntag_169:\n    /* \"#utility.yul\":9926:9927   */\n  0x01\n    /* \"#utility.yul\":9916:9924   */\n  dup6\n    /* \"#utility.yul\":9913:9928   */\n  gt\n    /* \"#utility.yul\":9905:10617   */\n  iszero\n  tag_171\n  jumpi\n    /* \"#utility.yul\":10021:10025   */\n  dup1\n    /* \"#utility.yul\":10016:10019   */\n  dup7\n    /* \"#utility.yul\":10012:10026   */\n  div\n    /* \"#utility.yul\":10006:10010   */\n  dup2\n    /* \"#utility.yul\":10003:10027   */\n  gt\n    /* \"#utility.yul\":10000:10050   */\n  iszero\n  tag_172\n  jumpi\n    /* \"#utility.yul\":10030:10048   */\n  tag_173\n  tag_50\n  jump\t// in\ntag_173:\n    /* \"#utility.yul\":10000:10050   */\ntag_172:\n    /* \"#utility.yul\":10080:10081   */\n  0x01\n    /* \"#utility.yul\":10070:10078   */\n  dup6\n    /* \"#utility.yul\":10066:10082   */\n  and\n    /* \"#utility.yul\":10063:10514   */\n  iszero\n  tag_174\n  jumpi\n    /* \"#utility.yul\":10495:10499   */\n  dup1\n    /* \"#utility.yul\":10488:10493   */\n  dup3\n    /* \"#utility.yul\":10484:10500   */\n  mul\n    /* \"#utility.yul\":10475:10500   */\n  swap2\n  pop\n    /* \"#utility.yul\":10063:10514   */\ntag_174:\n    /* \"#utility.yul\":10545:10549   */\n  dup1\n    /* \"#utility.yul\":10539:10543   */\n  dup2\n    /* \"#utility.yul\":10535:10550   */\n  mul\n    /* \"#utility.yul\":10527:10550   */\n  swap1\n  pop\n    /* \"#utility.yul\":10575:10607   */\n  tag_175\n    /* \"#utility.yul\":10598:10606   */\n  dup6\n    /* \"#utility.yul\":10575:10607   */\n  tag_51\n  jump\t// in\ntag_175:\n    /* \"#utility.yul\":10563:10607   */\n  swap5\n  pop\n    /* \"#utility.yul\":9905:10617   */\n  jump(tag_169)\ntag_171:\n    /* \"#utility.yul\":9775:10623   */\n  swap5\n  pop\n  swap5\n  swap3\n  pop\n  pop\n  pop\n  jump\t// out\n    /* \"#utility.yul\":10629:11702   */\ntag_53:\n    /* \"#utility.yul\":10683:10688   */\n  0x00\n    /* \"#utility.yul\":10874:10882   */\n  dup3\n    /* \"#utility.yul\":10864:10904   */\n  tag_177\n  jumpi\n    /* \"#utility.yul\":10895:10896   */\n  0x01\n    /* \"#utility.yul\":10886:10896   */\n  swap1\n  pop\n    /* \"#utility.yul\":10897:10902   */\n  jump(tag_176)\n    /* \"#utility.yul\":10864:10904   */\ntag_177:\n    /* \"#utility.yul\":10923:10927   */\n  dup2\n    /* \"#utility.yul\":10913:10949   */\n  tag_178\n  jumpi\n    /* \"#utility.yul\":10940:10941   */\n  0x00\n    /* \"#utility.yul\":10931:10941   */\n  swap1\n  pop\n    /* \"#utility.yul\":10942:10947   */\n  jump(tag_176)\n    /* \"#utility.yul\":10913:10949   */\ntag_178:\n    /* \"#utility.yul\":11009:11013   */\n  dup2\n    /* \"#utility.yul\":11057:11058   */\n  0x01\n    /* \"#utility.yul\":11052:11079   */\n  dup2\n  eq\n  tag_180\n  jumpi\n    /* \"#utility.yul\":11093:11094   */\n  0x02\n    /* \"#utility.yul\":11088:11279   */\n  dup2\n  eq\n  tag_181\n  jumpi\n    /* \"#utility.yul\":11002:11279   */\n  jump(tag_179)\n    /* \"#utility.yul\":11052:11079   */\ntag_180:\n    /* \"#utility.yul\":11070:11071   */\n  0x01\n    /* \"#utility.yul\":11061:11071   */\n  swap2\n  pop\n    /* \"#utility.yul\":11072:11077   */\n  pop\n  jump(tag_176)\n    /* \"#utility.yul\":11088:11279   */\ntag_181:\n    /* \"#utility.yul\":11133:11136   */\n  0xff\n    /* \"#utility.yul\":11123:11131   */\n  dup5\n    /* \"#utility.yul\":11120:11137   */\n  gt\n    /* \"#utility.yul\":11117:11160   */\n  iszero\n  tag_182\n  jumpi\n    /* \"#utility.yul\":11140:11158   */\n  tag_183\n  tag_50\n  jump\t// in\ntag_183:\n    /* \"#utility.yul\":11117:11160   */\ntag_182:\n    /* \"#utility.yul\":11189:11197   */\n  dup4\n    /* \"#utility.yul\":11186:11187   */\n  0x02\n    /* \"#utility.yul\":11182:11198   */\n  exp\n    /* \"#utility.yul\":11173:11198   */\n  swap2\n  pop\n    /* \"#utility.yul\":11224:11227   */\n  dup5\n    /* \"#utility.yul\":11217:11222   */\n  dup3\n    /* \"#utility.yul\":11214:11228   */\n  gt\n    /* \"#utility.yul\":11211:11251   */\n  iszero\n  tag_184\n  jumpi\n    /* \"#utility.yul\":11231:11249   */\n  tag_185\n  tag_50\n  jump\t// in\ntag_185:\n    /* \"#utility.yul\":11211:11251   */\ntag_184:\n    /* \"#utility.yul\":11264:11269   */\n  pop\n  jump(tag_176)\n    /* \"#utility.yul\":11002:11279   */\ntag_179:\n  pop\n    /* \"#utility.yul\":11388:11390   */\n  0x20\n    /* \"#utility.yul\":11378:11386   */\n  dup4\n    /* \"#utility.yul\":11375:11391   */\n  lt\n    /* \"#utility.yul\":11369:11372   */\n  0x0133\n    /* \"#utility.yul\":11363:11367   */\n  dup4\n    /* \"#utility.yul\":11360:11373   */\n  lt\n    /* \"#utility.yul\":11356:11392   */\n  and\n    /* \"#utility.yul\":11338:11340   */\n  0x4e\n    /* \"#utility.yul\":11328:11336   */\n  dup5\n    /* \"#utility.yul\":11325:11341   */\n  lt\n    /* \"#utility.yul\":11320:11322   */\n  0x0b\n    /* \"#utility.yul\":11314:11318   */\n  dup5\n    /* \"#utility.yul\":11311:11323   */\n  lt\n    /* \"#utility.yul\":11307:11342   */\n  and\n    /* \"#utility.yul\":11291:11402   */\n  or\n    /* \"#utility.yul\":11288:11534   */\n  iszero\n  tag_186\n  jumpi\n    /* \"#utility.yul\":11444:11452   */\n  dup3\n    /* \"#utility.yul\":11438:11442   */\n  dup3\n    /* \"#utility.yul\":11434:11453   */\n  exp\n    /* \"#utility.yul\":11425:11453   */\n  swap1\n  pop\n    /* \"#utility.yul\":11479:11482   */\n  dup4\n    /* \"#utility.yul\":11472:11477   */\n  dup2\n    /* \"#utility.yul\":11469:11483   */\n  gt\n    /* \"#utility.yul\":11466:11506   */\n  iszero\n  tag_187\n  jumpi\n    /* \"#utility.yul\":11486:11504   */\n  tag_188\n  tag_50\n  jump\t// in\ntag_188:\n    /* \"#utility.yul\":11466:11506   */\ntag_187:\n    /* \"#utility.yul\":11519:11524   */\n  jump(tag_176)\n    /* \"#utility.yul\":11288:11534   */\ntag_186:\n    /* \"#utility.yul\":11559:11601   */\n  tag_189\n    /* \"#utility.yul\":11597:11600   */\n  dup5\n    /* \"#utility.yul\":11587:11595   */\n  dup5\n    /* \"#utility.yul\":11581:11585   */\n  dup5\n    /* \"#utility.yul\":11578:11579   */\n  0x01\n    /* \"#utility.yul\":11559:11601   */\n  tag_52\n  jump\t// in\ntag_189:\n    /* \"#utility.yul\":11544:11601   */\n  swap3\n  pop\n  swap1\n  pop\n    /* \"#utility.yul\":11633:11637   */\n  dup2\n    /* \"#utility.yul\":11628:11631   */\n  dup5\n    /* \"#utility.yul\":11624:11638   */\n  div\n    /* \"#utility.yul\":11617:11622   */\n  dup2\n    /* \"#utility.yul\":11614:11639   */\n  gt\n    /* \"#utility.yul\":11611:11662   */\n  iszero\n  tag_190\n  jumpi\n    /* \"#utility.yul\":11642:11660   */\n  tag_191\n  tag_50\n  jump\t// in\ntag_191:\n    /* \"#utility.yul\":11611:11662   */\ntag_190:\n    /* \"#utility.yul\":11691:11695   */\n  dup2\n    /* \"#utility.yul\":11684:11689   */\n  dup2\n    /* \"#utility.yul\":11680:11696   */\n  mul\n    /* \"#utility.yul\":11671:11696   */\n  swap1\n  pop\n    /* \"#utility.yul\":10629:11702   */\ntag_176:\n  swap4\n  swap3\n  pop\n  pop\n  pop\n  jump\t// out\n    /* \"#utility.yul\":11708:11993   */\ntag_10:\n    /* \"#utility.yul\":11768:11773   */\n  0x00\n    /* \"#utility.yul\":11792:11815   */\n  tag_193\n    /* \"#utility.yul\":11810:11814   */\n  dup3\n    /* \"#utility.yul\":11792:11815   */\n  tag_29\n  jump\t// in\ntag_193:\n    /* \"#utility.yul\":11784:11815   */\n  swap2\n  pop\n    /* \"#utility.yul\":11836:11863   */\n  tag_194\n    /* \"#utility.yul\":11854:11862   */\n  dup4\n    /* \"#utility.yul\":11836:11863   */\n  tag_29\n  jump\t// in\ntag_194:\n    /* \"#utility.yul\":11824:11863   */\n  swap3\n  pop\n    /* \"#utility.yul\":11882:11986   */\n  tag_195\n    /* \"#utility.yul\":11919:11985   */\n  0xffffffffffffffffffffffffffffffffffffffffffffffffffffffffffffffff\n    /* \"#utility.yul\":11909:11917   */\n  dup5\n    /* \"#utility.yul\":11903:11907   */\n  dup5\n    /* \"#utility.yul\":11882:11986   */\n  tag_53\n  jump\t// in\ntag_195:\n    /* \"#utility.yul\":11873:11986   */\n  swap1\n  pop\n    /* \"#utility.yul\":11708:11993   */\n  swap3\n  swap2\n  pop\n  pop\n  jump\t// out\n    /* \"#utility.yul\":11999:12409   */\ntag_12:\n    /* \"#utility.yul\":12039:12046   */\n  0x00\n    /* \"#utility.yul\":12062:12082   */\n  tag_197\n    /* \"#utility.yul\":12080:12081   */\n  dup3\n    /* \"#utility.yul\":12062:12082   */\n  tag_29\n  jump\t// in\ntag_197:\n    /* \"#utility.yul\":12057:12082   */\n  swap2\n  pop\n    /* \"#utility.yul\":12096:12116   */\n  tag_198\n    /* \"#utility.yul\":12114:12115   */\n  dup4\n    /* \"#utility.yul\":12096:12116   */\n  tag_29\n  jump\t// in\ntag_198:\n    /* \"#utility.yul\":12091:12116   */\n  swap3\n  pop\n    /* \"#utility.yul\":12151:12152   */\n  dup3\n    /* \"#utility.yul\":12148:12149   */\n  dup3\n    /* \"#utility.yul\":12144:12153   */\n  mul\n    /* \"#utility.yul\":12173:12203   */\n  tag_199\n    /* \"#utility.yul\":12191:12202   */\n  dup2\n    /* \"#utility.yul\":12173:12203   */\n  tag_29\n  jump\t// in\ntag_199:\n    /* \"#utility.yul\":12162:12203   */\n  swap2\n  pop\n    /* \"#utility.yul\":12352:12353   */\n  dup3\n    /* \"#utility.yul\":12343:12350   */\n  dup3\n    /* \"#utility.yul\":12339:12354   */\n  div\n    /* \"#utility.yul\":12336:12337   */\n  dup5\n    /* \"#utility.yul\":12333:12355   */\n  eq\n    /* \"#utility.yul\":12313:12314   */\n  dup4\n    /* \"#utility.yul\":12306:12315   */\n  iszero\n    /* \"#utility.yul\":12286:12369   */\n  or\n    /* \"#utility.yul\":12263:12402   */\n  tag_200\n  jumpi\n    /* \"#utility.yul\":12382:12400   */\n  tag_201\n  tag_50\n  jump\t// in\ntag_201:\n    /* \"#utility.yul\":12263:12402   */\ntag_200:\n    /* \"#utility.yul\":12047:12409   */\n  pop\n    /* \"#utility.yul\":11999:12409   */\n  swap3\n  swap2\n  pop\n  pop\n  jump\t// out\n    /* \"#utility.yul\":12415:12533   */\ntag_54:\n    /* \"#utility.yul\":12502:12526   */\n  tag_203\n    /* \"#utility.yul\":12520:12525   */\n  dup2\n    /* \"#utility.yul\":12502:12526   */\n  tag_29\n  jump\t// in\ntag_203:\n    /* \"#utility.yul\":12497:12500   */\n  dup3\n    /* \"#utility.yul\":12490:12527   */\n  mstore\n    /* \"#utility.yul\":12415:12533   */\n  pop\n  pop\n  jump\t// out\n    /* \"#utility.yul\":12539:12761   */\ntag_14:\n    /* \"#utility.yul\":12632:12636   */\n  0x00\n    /* \"#utility.yul\":12670:12672   */\n  0x20\n    /* \"#utility.yul\":12659:12668   */\n  dup3\n    /* \"#utility.yul\":12655:12673   */\n  add\n    /* \"#utility.yul\":12647:12673   */\n  swap1\n  pop\n    /* \"#utility.yul\":12683:12754   */\n  tag_205\n    /* \"#utility.yul\":12751:12752   */\n  0x00\n    /* \"#utility.yul\":12740:12749   */\n  dup4\n    /* \"#utility.yul\":12736:12753   */\n  add\n    /* \"#utility.yul\":12727:12733   */\n  dup5\n    /* \"#utility.yul\":12683:12754   */\n  tag_54\n  jump\t// in\ntag_205:\n    /* \"#utility.yul\":12539:12761   */\n  swap3\n  swap2\n  pop\n  pop\n  jump\t// out\n    /* \"bentoken.sol\":60:3873  contract BenToken {... */\ntag_15:\n  dataSize(sub_0)\n  dup1\n  dataOffset(sub_0)\n  0x00\n  codecopy\n  0x00\n  return\nstop\n\nsub_0: assembly {\n        /* \"bentoken.sol\":60:3873  contract BenToken {... */\n      mstore(0x40, 0x80)\n      callvalue\n      dup1\n      iszero\n      tag_1\n      jumpi\n      0x00\n      dup1\n      revert\n    tag_1:\n      pop\n      jumpi(tag_2, lt(calldatasize, 0x04))\n      shr(0xe0, calldataload(0x00))\n      dup1\n      0x70a08231\n      gt\n      tag_15\n      jumpi\n      dup1\n      0x70a08231\n      eq\n      tag_9\n      jumpi\n      dup1\n      0x7d1e29b2\n      eq\n      tag_10\n      jumpi\n      dup1\n      0x7df405a4\n      eq\n      tag_11\n      jumpi\n      dup1\n      0x95d89b41\n      eq\n      tag_12\n      jumpi\n      dup1\n      0xa9059cbb\n      eq\n      tag_13\n      jumpi\n      dup1\n      0xdd62ed3e\n      eq\n      tag_14\n      jumpi\n      jump(tag_2)\n    tag_15:\n      dup1\n      0x06fdde03\n      eq\n      tag_3\n      jumpi\n      dup1\n      0x095ea7b3\n      eq\n      tag_4\n      jumpi\n      dup1\n      0x23b872dd\n      eq\n      tag_5\n      jumpi\n      dup1\n      0x2b5335c3\n      eq\n      tag_6\n      jumpi\n      dup1\n      0x313ce567\n      eq\n      tag_7\n      jumpi\n      dup1\n      0x6fb1896c\n      eq\n      tag_8\n      jumpi\n    tag_2:\n      0x00\n      dup1\n      revert\n        /* \"bentoken.sol\":85:103  string public name */\n    tag_3:\n      tag_16\n      tag_17\n      jump\t// in\n    tag_16:\n      mload(0x40)\n      tag_18\n      swap2\n      swap1\n      tag_19\n      jump\t// in\n    tag_18:\n      mload(0x40)\n      dup1\n      swap2\n      sub\n      swap1\n      return\n        /* \"bentoken.sol\":2894:3108  function approve(address _spender, uint256 _value) public returns (bool success) {... */\n    tag_4:\n      tag_20\n      0x04\n      dup1\n      calldatasize\n      sub\n      dup2\n      add\n      swap1\n      tag_21\n      swap2\n      swap1\n      tag_22\n      jump\t// in\n    tag_21:\n      tag_23\n      jump\t// in\n    tag_20:\n      mload(0x40)\n      tag_24\n      swap2\n      swap1\n      tag_25\n      jump\t// in\n    tag_24:\n      mload(0x40)\n      dup1\n      swap2\n      sub\n      swap1\n      return\n        /* \"bentoken.sol\":2132:2882  function transferFrom(address _from, address _to, uint256 _value) public returns (bool success) {... */\n    tag_5:\n      tag_26\n      0x04\n      dup1\n      calldatasize\n      sub\n      dup2\n      add\n      swap1\n      tag_27\n      swap2\n      swap1\n      tag_28\n      jump\t// in\n    tag_27:\n      tag_29\n      jump\t// in\n    tag_26:\n      mload(0x40)\n      tag_30\n      swap2\n      swap1\n      tag_25\n      jump\t// in\n    tag_30:\n      mload(0x40)\n      dup1\n      swap2\n      sub\n      swap1\n      return\n        /* \"bentoken.sol\":3402:3870  function convertFees() public returns (bool success) {... */\n    tag_6:\n      tag_31\n      tag_32\n      jump\t// in\n    tag_31:\n      mload(0x40)\n      tag_33\n      swap2\n      swap1\n      tag_25\n      jump\t// in\n    tag_33:\n      mload(0x40)\n      dup1\n      swap2\n      sub\n      swap1\n      return\n        /* \"bentoken.sol\":137:158  uint8 public decimals */\n    tag_7:\n      tag_34\n      tag_35\n      jump\t// in\n    tag_34:\n      mload(0x40)\n      tag_36\n      swap2\n      swap1\n      tag_37\n      jump\t// in\n    tag_36:\n      mload(0x40)\n      dup1\n      swap2\n      sub\n      swap1\n      return\n        /* \"bentoken.sol\":355:384  uint256 public sellTaxPercent */\n    tag_8:\n      tag_38\n      tag_39\n      jump\t// in\n    tag_38:\n      mload(0x40)\n      tag_40\n      swap2\n      swap1\n      tag_41\n      jump\t// in\n    tag_40:\n      mload(0x40)\n      dup1\n      swap2\n      sub\n      swap1\n      return\n        /* \"bentoken.sol\":1210:1325  function balanceOf(address _owner) public view returns (uint256 balance) {... */\n    tag_9:\n      tag_42\n      0x04\n      dup1\n      calldatasize\n      sub\n      dup2\n      add\n      swap1\n      tag_43\n      swap2\n      swap1\n      tag_44\n      jump\t// in\n    tag_43:\n      tag_45\n      jump\t// in\n    tag_42:\n      mload(0x40)\n      tag_46\n      swap2\n      swap1\n      tag_41\n      jump\t// in\n    tag_46:\n      mload(0x40)\n      dup1\n      swap2\n      sub\n      swap1\n      return\n        /* \"bentoken.sol\":391:423  uint256 public feeConversionRate */\n    tag_10:\n      tag_47\n      tag_48\n      jump\t// in\n    tag_47:\n      mload(0x40)\n      tag_49\n      swap2\n      swap1\n      tag_41\n      jump\t// in\n    tag_49:\n      mload(0x40)\n      dup1\n      swap2\n      sub\n      swap1\n      return\n        /* \"bentoken.sol\":320:348  uint256 public buyTaxPercent */\n    tag_11:\n      tag_50\n      tag_51\n      jump\t// in\n    tag_50:\n      mload(0x40)\n      tag_52\n      swap2\n      swap1\n      tag_41\n      jump\t// in\n    tag_52:\n      mload(0x40)\n      dup1\n      swap2\n      sub\n      swap1\n      return\n        /* \"bentoken.sol\":110:130  string public symbol */\n    tag_12:\n      tag_53\n      tag_54\n      jump\t// in\n    tag_53:\n      mload(0x40)\n      tag_55\n      swap2\n      swap1\n      tag_19\n      jump\t// in\n    tag_55:\n      mload(0x40)\n      dup1\n      swap2\n      sub\n      swap1\n      return\n        /* \"bentoken.sol\":1493:2120  function transfer(address _to, uint256 _value) public returns (bool success) {... */\n    tag_13:\n      tag_56\n      0x04\n      dup1\n      calldatasize\n      sub\n      dup2\n      add\n      swap1\n      tag_57\n      swap2\n      swap1\n      tag_22\n      jump\t// in\n    tag_57:\n      tag_58\n      jump\t// in\n    tag_56:\n      mload(0x40)\n      tag_59\n      swap2\n      swap1\n      tag_25\n      jump\t// in\n    tag_59:\n      mload(0x40)\n      dup1\n      swap2\n      sub\n      swap1\n      return\n        /* \"bentoken.sol\":1337:1481  function allowance(address _owner, address _spender) public view returns (uint256 remaining) {... */\n    tag_14:\n      tag_60\n      0x04\n      dup1\n      calldatasize\n      sub\n      dup2\n      add\n      swap1\n      tag_61\n      swap2\n      swap1\n      tag_62\n      jump\t// in\n    tag_61:\n      tag_63\n      jump\t// in\n    tag_60:\n      mload(0x40)\n      tag_64\n      swap2\n      swap1\n      tag_41\n      jump\t// in\n    tag_64:\n      mload(0x40)\n      dup1\n      swap2\n      sub\n      swap1\n      return\n        /* \"bentoken.sol\":85:103  string public name */\n    tag_17:\n      0x00\n      dup1\n      sload\n      tag_65\n      swap1\n      tag_66\n      jump\t// in\n    tag_65:\n      dup1\n      0x1f\n      add\n      0x20\n      dup1\n      swap2\n      div\n      mul\n      0x20\n      add\n      mload(0x40)\n      swap1\n      dup2\n      add\n      0x40\n      mstore\n      dup1\n      swap3\n      swap2\n      swap1\n      dup2\n      dup2\n      mstore\n      0x20\n      add\n      dup3\n      dup1\n      sload\n      tag_67\n      swap1\n      tag_66\n      jump\t// in\n    tag_67:\n      dup1\n      iszero\n      tag_68\n      jumpi\n      dup1\n      0x1f\n      lt\n      tag_69\n      jumpi\n      0x0100\n      dup1\n      dup4\n      sload\n      div\n      mul\n      dup4\n      mstore\n      swap2\n      0x20\n      add\n      swap2\n      jump(tag_68)\n    tag_69:\n      dup3\n      add\n      swap2\n      swap1\n      0x00\n      mstore\n      keccak256(0x00, 0x20)\n      swap1\n    tag_70:\n      dup2\n      sload\n      dup2\n      mstore\n      swap1\n      0x01\n      add\n      swap1\n      0x20\n      add\n      dup1\n      dup4\n      gt\n      tag_70\n      jumpi\n      dup3\n      swap1\n      sub\n      0x1f\n      and\n      dup3\n      add\n      swap2\n    tag_68:\n      pop\n      pop\n      pop\n      pop\n      pop\n      dup2\n      jump\t// out\n        /* \"bentoken.sol\":2894:3108  function approve(address _spender, uint256 _value) public returns (bool success) {... */\n    tag_23:\n        /* \"bentoken.sol\":2961:2973  bool success */\n      0x00\n        /* \"bentoken.sol\":3018:3024  _value */\n      dup2\n        /* \"bentoken.sol\":2986:2993  allowed */\n      0x05\n        /* \"bentoken.sol\":2986:3005  allowed[msg.sender] */\n      0x00\n        /* \"bentoken.sol\":2994:3004  msg.sender */\n      caller\n        /* \"bentoken.sol\":2986:3005  allowed[msg.sender] */\n      0xffffffffffffffffffffffffffffffffffffffff\n      and\n      0xffffffffffffffffffffffffffffffffffffffff\n      and\n      dup2\n      mstore\n      0x20\n      add\n      swap1\n      dup2\n      mstore\n      0x20\n      add\n      0x00\n      keccak256\n        /* \"bentoken.sol\":2986:3015  allowed[msg.sender][_spender] */\n      0x00\n        /* \"bentoken.sol\":3006:3014  _spender */\n      dup6\n        /* \"bentoken.sol\":2986:3015  allowed[msg.sender][_spender] */\n      0xffffffffffffffffffffffffffffffffffffffff\n      and\n      0xffffffffffffffffffffffffffffffffffffffff\n      and\n      dup2\n      mstore\n      0x20\n      add\n      swap1\n      dup2\n      mstore\n      0x20\n      add\n      0x00\n      keccak256\n        /* \"bentoken.sol\":2986:3024  allowed[msg.sender][_spender] = _value */\n      dup2\n      swap1\n      sstore\n      pop\n        /* \"bentoken.sol\":3061:3069  _spender */\n      dup3\n        /* \"bentoken.sol\":3040:3078  Approval(msg.sender, _spender, _value) */\n      0xffffffffffffffffffffffffffffffffffffffff\n      and\n        /* \"bentoken.sol\":3049:3059  msg.sender */\n      caller\n        /* \"bentoken.sol\":3040:3078  Approval(msg.sender, _spender, _value) */\n      0xffffffffffffffffffffffffffffffffffffffff\n      and\n      0x8c5be1e5ebec7d5bd14f71427d1e84f3dd0314c0f7b2291e5b200ac8c7c3b925\n        /* \"bentoken.sol\":3071:3077  _value */\n      dup5\n        /* \"bentoken.sol\":3040:3078  Approval(msg.sender, _spender, _value) */\n      mload(0x40)\n      tag_72\n      swap2\n      swap1\n      tag_41\n      jump\t// in\n    tag_72:\n      mload(0x40)\n      dup1\n      swap2\n      sub\n      swap1\n      log3\n        /* \"bentoken.sol\":3096:3100  true */\n      0x01\n        /* \"bentoken.sol\":3089:3100  return true */\n      swap1\n      pop\n        /* \"bentoken.sol\":2894:3108  function approve(address _spender, uint256 _value) public returns (bool success) {... */\n      swap3\n      swap2\n      pop\n      pop\n      jump\t// out\n        /* \"bentoken.sol\":2132:2882  function transferFrom(address _from, address _to, uint256 _value) public returns (bool success) {... */\n    tag_29:\n        /* \"bentoken.sol\":2214:2226  bool success */\n      0x00\n        /* \"bentoken.sol\":2262:2263  0 */\n      dup1\n        /* \"bentoken.sol\":2247:2264  _to != address(0) */\n      0xffffffffffffffffffffffffffffffffffffffff\n      and\n        /* \"bentoken.sol\":2247:2250  _to */\n      dup4\n        /* \"bentoken.sol\":2247:2264  _to != address(0) */\n      0xffffffffffffffffffffffffffffffffffffffff\n      and\n      sub\n        /* \"bentoken.sol\":2239:2284  require(_to != address(0), \"Invalid address\") */\n      tag_74\n      jumpi\n      mload(0x40)\n      0x08c379a000000000000000000000000000000000000000000000000000000000\n      dup2\n      mstore\n      0x04\n      add\n      tag_75\n      swap1\n      tag_76\n      jump\t// in\n    tag_75:\n      mload(0x40)\n      dup1\n      swap2\n      sub\n      swap1\n      revert\n    tag_74:\n        /* \"bentoken.sol\":2313:2321  balances */\n      0x04\n        /* \"bentoken.sol\":2313:2328  balances[_from] */\n      0x00\n        /* \"bentoken.sol\":2322:2327  _from */\n      dup6\n        /* \"bentoken.sol\":2313:2328  balances[_from] */\n      0xffffffffffffffffffffffffffffffffffffffff\n      and\n      0xffffffffffffffffffffffffffffffffffffffff\n      and\n      dup2\n      mstore\n      0x20\n      add\n      swap1\n      dup2\n      mstore\n      0x20\n      add\n      0x00\n      keccak256\n      sload\n        /* \"bentoken.sol\":2303:2309  _value */\n      dup3\n        /* \"bentoken.sol\":2303:2328  _value <= balances[_from] */\n      gt\n      iszero\n        /* \"bentoken.sol\":2295:2353  require(_value <= balances[_from], \"Insufficient balance\") */\n      tag_77\n      jumpi\n      mload(0x40)\n      0x08c379a000000000000000000000000000000000000000000000000000000000\n      dup2\n      mstore\n      0x04\n      add\n      tag_78\n      swap1\n      tag_79\n      jump\t// in\n    tag_78:\n      mload(0x40)\n      dup1\n      swap2\n      sub\n      swap1\n      revert\n    tag_77:\n        /* \"bentoken.sol\":2382:2389  allowed */\n      0x05\n        /* \"bentoken.sol\":2382:2396  allowed[_from] */\n      0x00\n        /* \"bentoken.sol\":2390:2395  _from */\n      dup6\n        /* \"bentoken.sol\":2382:2396  allowed[_from] */\n      0xffffffffffffffffffffffffffffffffffffffff\n      and\n      0xffffffffffffffffffffffffffffffffffffffff\n      and\n      dup2\n      mstore\n      0x20\n      add\n      swap1\n      dup2\n      mstore\n      0x20\n      add\n      0x00\n      keccak256\n        /* \"bentoken.sol\":2382:2408  allowed[_from][msg.sender] */\n      0x00\n        /* \"bentoken.sol\":2397:2407  msg.sender */\n      caller\n        /* \"bentoken.sol\":2382:2408  allowed[_from][msg.sender] */\n      0xffffffffffffffffffffffffffffffffffffffff\n      and\n      0xffffffffffffffffffffffffffffffffffffffff\n      and\n      dup2\n      mstore\n      0x20\n      add\n      swap1\n      dup2\n      mstore\n      0x20\n      add\n      0x00\n      keccak256\n      sload\n        /* \"bentoken.sol\":2372:2378  _value */\n      dup3\n        /* \"bentoken.sol\":2372:2408  _value <= allowed[_from][msg.sender] */\n      gt\n      iszero\n        /* \"bentoken.sol\":2364:2435  require(_value <= allowed[_from][msg.sender], \"Insufficient allowance\") */\n      tag_80\n      jumpi\n      mload(0x40)\n      0x08c379a000000000000000000000000000000000000000000000000000000000\n      dup2\n      mstore\n      0x04\n      add\n      tag_81\n      swap1\n      tag_82\n      jump\t// in\n    tag_81:\n      mload(0x40)\n      dup1\n      swap2\n      sub\n      swap1\n      revert\n    tag_80:\n        /* \"bentoken.sol\":2456:2467  uint256 fee */\n      0x00\n        /* \"bentoken.sol\":2470:2505  calculateTransferFee(_value, _from) */\n      tag_83\n        /* \"bentoken.sol\":2491:2497  _value */\n      dup4\n        /* \"bentoken.sol\":2499:2504  _from */\n      dup7\n        /* \"bentoken.sol\":2470:2490  calculateTransferFee */\n      tag_84\n        /* \"bentoken.sol\":2470:2505  calculateTransferFee(_value, _from) */\n      jump\t// in\n    tag_83:\n        /* \"bentoken.sol\":2456:2505  uint256 fee = calculateTransferFee(_value, _from) */\n      swap1\n      pop\n        /* \"bentoken.sol\":2516:2538  uint256 transferAmount */\n      0x00\n        /* \"bentoken.sol\":2550:2553  fee */\n      dup2\n        /* \"bentoken.sol\":2541:2547  _value */\n      dup5\n        /* \"bentoken.sol\":2541:2553  _value - fee */\n      tag_85\n      swap2\n      swap1\n      tag_86\n      jump\t// in\n    tag_85:\n        /* \"bentoken.sol\":2516:2553  uint256 transferAmount = _value - fee */\n      swap1\n      pop\n        /* \"bentoken.sol\":2593:2599  _value */\n      dup4\n        /* \"bentoken.sol\":2574:2582  balances */\n      0x04\n        /* \"bentoken.sol\":2574:2589  balances[_from] */\n      0x00\n        /* \"bentoken.sol\":2583:2588  _from */\n      dup9\n        /* \"bentoken.sol\":2574:2589  balances[_from] */\n      0xffffffffffffffffffffffffffffffffffffffff\n      and\n      0xffffffffffffffffffffffffffffffffffffffff\n      and\n      dup2\n      mstore\n      0x20\n      add\n      swap1\n      dup2\n      mstore\n      0x20\n      add\n      0x00\n      keccak256\n      0x00\n        /* \"bentoken.sol\":2574:2599  balances[_from] -= _value */\n      dup3\n      dup3\n      sload\n      tag_87\n      swap2\n      swap1\n      tag_86\n      jump\t// in\n    tag_87:\n      swap3\n      pop\n      pop\n      dup2\n      swap1\n      sstore\n      pop\n        /* \"bentoken.sol\":2627:2641  transferAmount */\n      dup1\n        /* \"bentoken.sol\":2610:2618  balances */\n      0x04\n        /* \"bentoken.sol\":2610:2623  balances[_to] */\n      0x00\n        /* \"bentoken.sol\":2619:2622  _to */\n      dup8\n        /* \"bentoken.sol\":2610:2623  balances[_to] */\n      0xffffffffffffffffffffffffffffffffffffffff\n      and\n      0xffffffffffffffffffffffffffffffffffffffff\n      and\n      dup2\n      mstore\n      0x20\n      add\n      swap1\n      dup2\n      mstore\n      0x20\n      add\n      0x00\n      keccak256\n      0x00\n        /* \"bentoken.sol\":2610:2641  balances[_to] += transferAmount */\n      dup3\n      dup3\n      sload\n      tag_88\n      swap2\n      swap1\n      tag_89\n      jump\t// in\n    tag_88:\n      swap3\n      pop\n      pop\n      dup2\n      swap1\n      sstore\n      pop\n        /* \"bentoken.sol\":2679:2682  fee */\n      dup2\n        /* \"bentoken.sol\":2652:2660  balances */\n      0x04\n        /* \"bentoken.sol\":2652:2675  balances[address(this)] */\n      0x00\n        /* \"bentoken.sol\":2669:2673  this */\n      address\n        /* \"bentoken.sol\":2652:2675  balances[address(this)] */\n      0xffffffffffffffffffffffffffffffffffffffff\n      and\n      0xffffffffffffffffffffffffffffffffffffffff\n      and\n      dup2\n      mstore\n      0x20\n      add\n      swap1\n      dup2\n      mstore\n      0x20\n      add\n      0x00\n      keccak256\n      0x00\n        /* \"bentoken.sol\":2652:2682  balances[address(this)] += fee */\n      dup3\n      dup3\n      sload\n      tag_90\n      swap2\n      swap1\n      tag_89\n      jump\t// in\n    tag_90:\n      swap3\n      pop\n      pop\n      dup2\n      swap1\n      sstore\n      pop\n        /* \"bentoken.sol\":2723:2729  _value */\n      dup4\n        /* \"bentoken.sol\":2693:2700  allowed */\n      0x05\n        /* \"bentoken.sol\":2693:2707  allowed[_from] */\n      0x00\n        /* \"bentoken.sol\":2701:2706  _from */\n      dup9\n        /* \"bentoken.sol\":2693:2707  allowed[_from] */\n      0xffffffffffffffffffffffffffffffffffffffff\n      and\n      0xffffffffffffffffffffffffffffffffffffffff\n      and\n      dup2\n      mstore\n      0x20\n      add\n      swap1\n      dup2\n      mstore\n      0x20\n      add\n      0x00\n      keccak256\n        /* \"bentoken.sol\":2693:2719  allowed[_from][msg.sender] */\n      0x00\n        /* \"bentoken.sol\":2708:2718  msg.sender */\n      caller\n        /* \"bentoken.sol\":2693:2719  allowed[_from][msg.sender] */\n      0xffffffffffffffffffffffffffffffffffffffff\n      and\n      0xffffffffffffffffffffffffffffffffffffffff\n      and\n      dup2\n      mstore\n      0x20\n      add\n      swap1\n      dup2\n      mstore\n      0x20\n      add\n      0x00\n      keccak256\n      0x00\n        /* \"bentoken.sol\":2693:2729  allowed[_from][msg.sender] -= _value */\n      dup3\n      dup3\n      sload\n      tag_91\n      swap2\n      swap1\n      tag_86\n      jump\t// in\n    tag_91:\n      swap3\n      pop\n      pop\n      dup2\n      swap1\n      sstore\n      pop\n        /* \"bentoken.sol\":2771:2774  _to */\n      dup5\n        /* \"bentoken.sol\":2755:2791  Transfer(_from, _to, transferAmount) */\n      0xffffffffffffffffffffffffffffffffffffffff\n      and\n        /* \"bentoken.sol\":2764:2769  _from */\n      dup7\n        /* \"bentoken.sol\":2755:2791  Transfer(_from, _to, transferAmount) */\n      0xffffffffffffffffffffffffffffffffffffffff\n      and\n      0xddf252ad1be2c89b69c2b068fc378daa952ba7f163c4a11628f55a4df523b3ef\n        /* \"bentoken.sol\":2776:2790  transferAmount */\n      dup4\n        /* \"bentoken.sol\":2755:2791  Transfer(_from, _to, transferAmount) */\n      mload(0x40)\n      tag_92\n      swap2\n      swap1\n      tag_41\n      jump\t// in\n    tag_92:\n      mload(0x40)\n      dup1\n      swap2\n      sub\n      swap1\n      log3\n        /* \"bentoken.sol\":2831:2835  this */\n      address\n        /* \"bentoken.sol\":2807:2842  Transfer(_from, address(this), fee) */\n      0xffffffffffffffffffffffffffffffffffffffff\n      and\n        /* \"bentoken.sol\":2816:2821  _from */\n      dup7\n        /* \"bentoken.sol\":2807:2842  Transfer(_from, address(this), fee) */\n      0xffffffffffffffffffffffffffffffffffffffff\n      and\n      0xddf252ad1be2c89b69c2b068fc378daa952ba7f163c4a11628f55a4df523b3ef\n        /* \"bentoken.sol\":2838:2841  fee */\n      dup5\n        /* \"bentoken.sol\":2807:2842  Transfer(_from, address(this), fee) */\n      mload(0x40)\n      tag_93\n      swap2\n      swap1\n      tag_41\n      jump\t// in\n    tag_93:\n      mload(0x40)\n      dup1\n      swap2\n      sub\n      swap1\n      log3\n        /* \"bentoken.sol\":2870:2874  true */\n      0x01\n        /* \"bentoken.sol\":2863:2874  return true */\n      swap3\n      pop\n      pop\n      pop\n        /* \"bentoken.sol\":2132:2882  function transferFrom(address _from, address _to, uint256 _value) public returns (bool success) {... */\n      swap4\n      swap3\n      pop\n      pop\n      pop\n      jump\t// out\n        /* \"bentoken.sol\":3402:3870  function convertFees() public returns (bool success) {... */\n    tag_32:\n        /* \"bentoken.sol\":3441:3453  bool success */\n      0x00\n        /* \"bentoken.sol\":3500:3501  0 */\n      dup1\n        /* \"bentoken.sol\":3474:3482  balances */\n      0x04\n        /* \"bentoken.sol\":3474:3497  balances[address(this)] */\n      0x00\n        /* \"bentoken.sol\":3491:3495  this */\n      address\n        /* \"bentoken.sol\":3474:3497  balances[address(this)] */\n      0xffffffffffffffffffffffffffffffffffffffff\n      and\n      0xffffffffffffffffffffffffffffffffffffffff\n      and\n      dup2\n      mstore\n      0x20\n      add\n      swap1\n      dup2\n      mstore\n      0x20\n      add\n      0x00\n      keccak256\n      sload\n        /* \"bentoken.sol\":3474:3501  balances[address(this)] > 0 */\n      gt\n        /* \"bentoken.sol\":3466:3524  require(balances[address(this)] > 0, \"No fees to convert\") */\n      tag_95\n      jumpi\n      mload(0x40)\n      0x08c379a000000000000000000000000000000000000000000000000000000000\n      dup2\n      mstore\n      0x04\n      add\n      tag_96\n      swap1\n      tag_97\n      jump\t// in\n    tag_96:\n      mload(0x40)\n      dup1\n      swap2\n      sub\n      swap1\n      revert\n    tag_95:\n        /* \"bentoken.sol\":3545:3562  uint256 feeAmount */\n      0x00\n        /* \"bentoken.sol\":3565:3573  balances */\n      0x04\n        /* \"bentoken.sol\":3565:3588  balances[address(this)] */\n      0x00\n        /* \"bentoken.sol\":3582:3586  this */\n      address\n        /* \"bentoken.sol\":3565:3588  balances[address(this)] */\n      0xffffffffffffffffffffffffffffffffffffffff\n      and\n      0xffffffffffffffffffffffffffffffffffffffff\n      and\n      dup2\n      mstore\n      0x20\n      add\n      swap1\n      dup2\n      mstore\n      0x20\n      add\n      0x00\n      keccak256\n      sload\n        /* \"bentoken.sol\":3545:3588  uint256 feeAmount = balances[address(this)] */\n      swap1\n      pop\n        /* \"bentoken.sol\":3599:3622  uint256 convertedAmount */\n      0x00\n        /* \"bentoken.sol\":3637:3654  feeConversionRate */\n      sload(0x08)\n        /* \"bentoken.sol\":3625:3634  feeAmount */\n      dup3\n        /* \"bentoken.sol\":3625:3654  feeAmount * feeConversionRate */\n      tag_98\n      swap2\n      swap1\n      tag_99\n      jump\t// in\n    tag_98:\n        /* \"bentoken.sol\":3599:3654  uint256 convertedAmount = feeAmount * feeConversionRate */\n      swap1\n      pop\n        /* \"bentoken.sol\":3701:3702  0 */\n      0x00\n        /* \"bentoken.sol\":3675:3683  balances */\n      0x04\n        /* \"bentoken.sol\":3675:3698  balances[address(this)] */\n      0x00\n        /* \"bentoken.sol\":3692:3696  this */\n      address\n        /* \"bentoken.sol\":3675:3698  balances[address(this)] */\n      0xffffffffffffffffffffffffffffffffffffffff\n      and\n      0xffffffffffffffffffffffffffffffffffffffff\n      and\n      dup2\n      mstore\n      0x20\n      add\n      swap1\n      dup2\n      mstore\n      0x20\n      add\n      0x00\n      keccak256\n        /* \"bentoken.sol\":3675:3702  balances[address(this)] = 0 */\n      dup2\n      swap1\n      sstore\n      pop\n        /* \"bentoken.sol\":3737:3752  convertedAmount */\n      dup1\n        /* \"bentoken.sol\":3713:3721  balances */\n      0x04\n        /* \"bentoken.sol\":3713:3733  balances[msg.sender] */\n      0x00\n        /* \"bentoken.sol\":3722:3732  msg.sender */\n      caller\n        /* \"bentoken.sol\":3713:3733  balances[msg.sender] */\n      0xffffffffffffffffffffffffffffffffffffffff\n      and\n      0xffffffffffffffffffffffffffffffffffffffff\n      and\n      dup2\n      mstore\n      0x20\n      add\n      swap1\n      dup2\n      mstore\n      0x20\n      add\n      0x00\n      keccak256\n      0x00\n        /* \"bentoken.sol\":3713:3752  balances[msg.sender] += convertedAmount */\n      dup3\n      dup3\n      sload\n      tag_100\n      swap2\n      swap1\n      tag_89\n      jump\t// in\n    tag_100:\n      swap3\n      pop\n      pop\n      dup2\n      swap1\n      sstore\n      pop\n        /* \"bentoken.sol\":3802:3812  msg.sender */\n      caller\n        /* \"bentoken.sol\":3778:3830  Transfer(address(this), msg.sender, convertedAmount) */\n      0xffffffffffffffffffffffffffffffffffffffff\n      and\n        /* \"bentoken.sol\":3795:3799  this */\n      address\n        /* \"bentoken.sol\":3778:3830  Transfer(address(this), msg.sender, convertedAmount) */\n      0xffffffffffffffffffffffffffffffffffffffff\n      and\n      0xddf252ad1be2c89b69c2b068fc378daa952ba7f163c4a11628f55a4df523b3ef\n        /* \"bentoken.sol\":3814:3829  convertedAmount */\n      dup4\n        /* \"bentoken.sol\":3778:3830  Transfer(address(this), msg.sender, convertedAmount) */\n      mload(0x40)\n      tag_101\n      swap2\n      swap1\n      tag_41\n      jump\t// in\n    tag_101:\n      mload(0x40)\n      dup1\n      swap2\n      sub\n      swap1\n      log3\n        /* \"bentoken.sol\":3858:3862  true */\n      0x01\n        /* \"bentoken.sol\":3851:3862  return true */\n      swap3\n      pop\n      pop\n      pop\n        /* \"bentoken.sol\":3402:3870  function convertFees() public returns (bool success) {... */\n      swap1\n      jump\t// out\n        /* \"bentoken.sol\":137:158  uint8 public decimals */\n    tag_35:\n      0x02\n      0x00\n      swap1\n      sload\n      swap1\n      0x0100\n      exp\n      swap1\n      div\n      0xff\n      and\n      dup2\n      jump\t// out\n        /* \"bentoken.sol\":355:384  uint256 public sellTaxPercent */\n    tag_39:\n      sload(0x07)\n      dup2\n      jump\t// out\n        /* \"bentoken.sol\":1210:1325  function balanceOf(address _owner) public view returns (uint256 balance) {... */\n    tag_45:\n        /* \"bentoken.sol\":1266:1281  uint256 balance */\n      0x00\n        /* \"bentoken.sol\":1301:1309  balances */\n      0x04\n        /* \"bentoken.sol\":1301:1317  balances[_owner] */\n      0x00\n        /* \"bentoken.sol\":1310:1316  _owner */\n      dup4\n        /* \"bentoken.sol\":1301:1317  balances[_owner] */\n      0xffffffffffffffffffffffffffffffffffffffff\n      and\n      0xffffffffffffffffffffffffffffffffffffffff\n      and\n      dup2\n      mstore\n      0x20\n      add\n      swap1\n      dup2\n      mstore\n      0x20\n      add\n      0x00\n      keccak256\n      sload\n        /* \"bentoken.sol\":1294:1317  return balances[_owner] */\n      swap1\n      pop\n        /* \"bentoken.sol\":1210:1325  function balanceOf(address _owner) public view returns (uint256 balance) {... */\n      swap2\n      swap1\n      pop\n      jump\t// out\n        /* \"bentoken.sol\":391:423  uint256 public feeConversionRate */\n    tag_48:\n      sload(0x08)\n      dup2\n      jump\t// out\n        /* \"bentoken.sol\":320:348  uint256 public buyTaxPercent */\n    tag_51:\n      sload(0x06)\n      dup2\n      jump\t// out\n        /* \"bentoken.sol\":110:130  string public symbol */\n    tag_54:\n      0x01\n      dup1\n      sload\n      tag_103\n      swap1\n      tag_66\n      jump\t// in\n    tag_103:\n      dup1\n      0x1f\n      add\n      0x20\n      dup1\n      swap2\n      div\n      mul\n      0x20\n      add\n      mload(0x40)\n      swap1\n      dup2\n      add\n      0x40\n      mstore\n      dup1\n      swap3\n      swap2\n      swap1\n      dup2\n      dup2\n      mstore\n      0x20\n      add\n      dup3\n      dup1\n      sload\n      tag_104\n      swap1\n      tag_66\n      jump\t// in\n    tag_104:\n      dup1\n      iszero\n      tag_105\n      jumpi\n      dup1\n      0x1f\n      lt\n      tag_106\n      jumpi\n      0x0100\n      dup1\n      dup4\n      sload\n      div\n      mul\n      dup4\n      mstore\n      swap2\n      0x20\n      add\n      swap2\n      jump(tag_105)\n    tag_106:\n      dup3\n      add\n      swap2\n      swap1\n      0x00\n      mstore\n      keccak256(0x00, 0x20)\n      swap1\n    tag_107:\n      dup2\n      sload\n      dup2\n      mstore\n      swap1\n      0x01\n      add\n      swap1\n      0x20\n      add\n      dup1\n      dup4\n      gt\n      tag_107\n      jumpi\n      dup3\n      swap1\n      sub\n      0x1f\n      and\n      dup3\n      add\n      swap2\n    tag_105:\n      pop\n      pop\n      pop\n      pop\n      pop\n      dup2\n      jump\t// out\n        /* \"bentoken.sol\":1493:2120  function transfer(address _to, uint256 _value) public returns (bool success) {... */\n    tag_58:\n        /* \"bentoken.sol\":1556:1568  bool success */\n      0x00\n        /* \"bentoken.sol\":1604:1605  0 */\n      dup1\n        /* \"bentoken.sol\":1589:1606  _to != address(0) */\n      0xffffffffffffffffffffffffffffffffffffffff\n      and\n        /* \"bentoken.sol\":1589:1592  _to */\n      dup4\n        /* \"bentoken.sol\":1589:1606  _to != address(0) */\n      0xffffffffffffffffffffffffffffffffffffffff\n      and\n      sub\n        /* \"bentoken.sol\":1581:1626  require(_to != address(0), \"Invalid address\") */\n      tag_109\n      jumpi\n      mload(0x40)\n      0x08c379a000000000000000000000000000000000000000000000000000000000\n      dup2\n      mstore\n      0x04\n      add\n      tag_110\n      swap1\n      tag_76\n      jump\t// in\n    tag_110:\n      mload(0x40)\n      dup1\n      swap2\n      sub\n      swap1\n      revert\n    tag_109:\n        /* \"bentoken.sol\":1655:1663  balances */\n      0x04\n        /* \"bentoken.sol\":1655:1675  balances[msg.sender] */\n      0x00\n        /* \"bentoken.sol\":1664:1674  msg.sender */\n      caller\n        /* \"bentoken.sol\":1655:1675  balances[msg.sender] */\n      0xffffffffffffffffffffffffffffffffffffffff\n      and\n      0xffffffffffffffffffffffffffffffffffffffff\n      and\n      dup2\n      mstore\n      0x20\n      add\n      swap1\n      dup2\n      mstore\n      0x20\n      add\n      0x00\n      keccak256\n      sload\n        /* \"bentoken.sol\":1645:1651  _value */\n      dup3\n        /* \"bentoken.sol\":1645:1675  _value <= balances[msg.sender] */\n      gt\n      iszero\n        /* \"bentoken.sol\":1637:1700  require(_value <= balances[msg.sender], \"Insufficient balance\") */\n      tag_111\n      jumpi\n      mload(0x40)\n      0x08c379a000000000000000000000000000000000000000000000000000000000\n      dup2\n      mstore\n      0x04\n      add\n      tag_112\n      swap1\n      tag_79\n      jump\t// in\n    tag_112:\n      mload(0x40)\n      dup1\n      swap2\n      sub\n      swap1\n      revert\n    tag_111:\n        /* \"bentoken.sol\":1721:1732  uint256 fee */\n      0x00\n        /* \"bentoken.sol\":1735:1775  calculateTransferFee(_value, msg.sender) */\n      tag_113\n        /* \"bentoken.sol\":1756:1762  _value */\n      dup4\n        /* \"bentoken.sol\":1764:1774  msg.sender */\n      caller\n        /* \"bentoken.sol\":1735:1755  calculateTransferFee */\n      tag_84\n        /* \"bentoken.sol\":1735:1775  calculateTransferFee(_value, msg.sender) */\n      jump\t// in\n    tag_113:\n        /* \"bentoken.sol\":1721:1775  uint256 fee = calculateTransferFee(_value, msg.sender) */\n      swap1\n      pop\n        /* \"bentoken.sol\":1786:1808  uint256 transferAmount */\n      0x00\n        /* \"bentoken.sol\":1820:1823  fee */\n      dup2\n        /* \"bentoken.sol\":1811:1817  _value */\n      dup5\n        /* \"bentoken.sol\":1811:1823  _value - fee */\n      tag_114\n      swap2\n      swap1\n      tag_86\n      jump\t// in\n    tag_114:\n        /* \"bentoken.sol\":1786:1823  uint256 transferAmount = _value - fee */\n      swap1\n      pop\n        /* \"bentoken.sol\":1868:1874  _value */\n      dup4\n        /* \"bentoken.sol\":1844:1852  balances */\n      0x04\n        /* \"bentoken.sol\":1844:1864  balances[msg.sender] */\n      0x00\n        /* \"bentoken.sol\":1853:1863  msg.sender */\n      caller\n        /* \"bentoken.sol\":1844:1864  balances[msg.sender] */\n      0xffffffffffffffffffffffffffffffffffffffff\n      and\n      0xffffffffffffffffffffffffffffffffffffffff\n      and\n      dup2\n      mstore\n      0x20\n      add\n      swap1\n      dup2\n      mstore\n      0x20\n      add\n      0x00\n      keccak256\n      0x00\n        /* \"bentoken.sol\":1844:1874  balances[msg.sender] -= _value */\n      dup3\n      dup3\n      sload\n      tag_115\n      swap2\n      swap1\n      tag_86\n      jump\t// in\n    tag_115:\n      swap3\n      pop\n      pop\n      dup2\n      swap1\n      sstore\n      pop\n        /* \"bentoken.sol\":1902:1916  transferAmount */\n      dup1\n        /* \"bentoken.sol\":1885:1893  balances */\n      0x04\n        /* \"bentoken.sol\":1885:1898  balances[_to] */\n      0x00\n        /* \"bentoken.sol\":1894:1897  _to */\n      dup8\n        /* \"bentoken.sol\":1885:1898  balances[_to] */\n      0xffffffffffffffffffffffffffffffffffffffff\n      and\n      0xffffffffffffffffffffffffffffffffffffffff\n      and\n      dup2\n      mstore\n      0x20\n      add\n      swap1\n      dup2\n      mstore\n      0x20\n      add\n      0x00\n      keccak256\n      0x00\n        /* \"bentoken.sol\":1885:1916  balances[_to] += transferAmount */\n      dup3\n      dup3\n      sload\n      tag_116\n      swap2\n      swap1\n      tag_89\n      jump\t// in\n    tag_116:\n      swap3\n      pop\n      pop\n      dup2\n      swap1\n      sstore\n      pop\n        /* \"bentoken.sol\":1954:1957  fee */\n      dup2\n        /* \"bentoken.sol\":1927:1935  balances */\n      0x04\n        /* \"bentoken.sol\":1927:1950  balances[address(this)] */\n      0x00\n        /* \"bentoken.sol\":1944:1948  this */\n      address\n        /* \"bentoken.sol\":1927:1950  balances[address(this)] */\n      0xffffffffffffffffffffffffffffffffffffffff\n      and\n      0xffffffffffffffffffffffffffffffffffffffff\n      and\n      dup2\n      mstore\n      0x20\n      add\n      swap1\n      dup2\n      mstore\n      0x20\n      add\n      0x00\n      keccak256\n      0x00\n        /* \"bentoken.sol\":1927:1957  balances[address(this)] += fee */\n      dup3\n      dup3\n      sload\n      tag_117\n      swap2\n      swap1\n      tag_89\n      jump\t// in\n    tag_117:\n      swap3\n      pop\n      pop\n      dup2\n      swap1\n      sstore\n      pop\n        /* \"bentoken.sol\":2004:2007  _to */\n      dup5\n        /* \"bentoken.sol\":1983:2024  Transfer(msg.sender, _to, transferAmount) */\n      0xffffffffffffffffffffffffffffffffffffffff\n      and\n        /* \"bentoken.sol\":1992:2002  msg.sender */\n      caller\n        /* \"bentoken.sol\":1983:2024  Transfer(msg.sender, _to, transferAmount) */\n      0xffffffffffffffffffffffffffffffffffffffff\n      and\n      0xddf252ad1be2c89b69c2b068fc378daa952ba7f163c4a11628f55a4df523b3ef\n        /* \"bentoken.sol\":2009:2023  transferAmount */\n      dup4\n        /* \"bentoken.sol\":1983:2024  Transfer(msg.sender, _to, transferAmount) */\n      mload(0x40)\n      tag_118\n      swap2\n      swap1\n      tag_41\n      jump\t// in\n    tag_118:\n      mload(0x40)\n      dup1\n      swap2\n      sub\n      swap1\n      log3\n        /* \"bentoken.sol\":2069:2073  this */\n      address\n        /* \"bentoken.sol\":2040:2080  Transfer(msg.sender, address(this), fee) */\n      0xffffffffffffffffffffffffffffffffffffffff\n      and\n        /* \"bentoken.sol\":2049:2059  msg.sender */\n      caller\n        /* \"bentoken.sol\":2040:2080  Transfer(msg.sender, address(this), fee) */\n      0xffffffffffffffffffffffffffffffffffffffff\n      and\n      0xddf252ad1be2c89b69c2b068fc378daa952ba7f163c4a11628f55a4df523b3ef\n        /* \"bentoken.sol\":2076:2079  fee */\n      dup5\n        /* \"bentoken.sol\":2040:2080  Transfer(msg.sender, address(this), fee) */\n      mload(0x40)\n      tag_119\n      swap2\n      swap1\n      tag_41\n      jump\t// in\n    tag_119:\n      mload(0x40)\n      dup1\n      swap2\n      sub\n      swap1\n      log3\n        /* \"bentoken.sol\":2108:2112  true */\n      0x01\n        /* \"bentoken.sol\":2101:2112  return true */\n      swap3\n      pop\n      pop\n      pop\n        /* \"bentoken.sol\":1493:2120  function transfer(address _to, uint256 _value) public returns (bool success) {... */\n      swap3\n      swap2\n      pop\n      pop\n      jump\t// out\n        /* \"bentoken.sol\":1337:1481  function allowance(address _owner, address _spender) public view returns (uint256 remaining) {... */\n    tag_63:\n        /* \"bentoken.sol\":1411:1428  uint256 remaining */\n      0x00\n        /* \"bentoken.sol\":1448:1455  allowed */\n      0x05\n        /* \"bentoken.sol\":1448:1463  allowed[_owner] */\n      0x00\n        /* \"bentoken.sol\":1456:1462  _owner */\n      dup5\n        /* \"bentoken.sol\":1448:1463  allowed[_owner] */\n      0xffffffffffffffffffffffffffffffffffffffff\n      and\n      0xffffffffffffffffffffffffffffffffffffffff\n      and\n      dup2\n      mstore\n      0x20\n      add\n      swap1\n      dup2\n      mstore\n      0x20\n      add\n      0x00\n      keccak256\n        /* \"bentoken.sol\":1448:1473  allowed[_owner][_spender] */\n      0x00\n        /* \"bentoken.sol\":1464:1472  _spender */\n      dup4\n        /* \"bentoken.sol\":1448:1473  allowed[_owner][_spender] */\n      0xffffffffffffffffffffffffffffffffffffffff\n      and\n      0xffffffffffffffffffffffffffffffffffffffff\n      and\n      dup2\n      mstore\n      0x20\n      add\n      swap1\n      dup2\n      mstore\n      0x20\n      add\n      0x00\n      keccak256\n      sload\n        /* \"bentoken.sol\":1441:1473  return allowed[_owner][_spender] */\n      swap1\n      pop\n        /* \"bentoken.sol\":1337:1481  function allowance(address _owner, address _spender) public view returns (uint256 remaining) {... */\n      swap3\n      swap2\n      pop\n      pop\n      jump\t// out\n        /* \"bentoken.sol\":3120:3390  function calculateTransferFee(uint256 _value, address _sender) private view returns (uint256 fee) {... */\n    tag_84:\n        /* \"bentoken.sol\":3205:3216  uint256 fee */\n      0x00\n        /* \"bentoken.sol\":3229:3247  uint256 taxPercent */\n      dup1\n        /* \"bentoken.sol\":3269:3273  this */\n      address\n        /* \"bentoken.sol\":3250:3274  _sender == address(this) */\n      0xffffffffffffffffffffffffffffffffffffffff\n      and\n        /* \"bentoken.sol\":3250:3257  _sender */\n      dup4\n        /* \"bentoken.sol\":3250:3274  _sender == address(this) */\n      0xffffffffffffffffffffffffffffffffffffffff\n      and\n      eq\n        /* \"bentoken.sol\":3250:3337  _sender == address(this) ? 0 : (msg.sender == _sender ? buyTaxPercent : sellTaxPercent) */\n      tag_122\n      jumpi\n        /* \"bentoken.sol\":3296:3303  _sender */\n      dup3\n        /* \"bentoken.sol\":3282:3303  msg.sender == _sender */\n      0xffffffffffffffffffffffffffffffffffffffff\n      and\n        /* \"bentoken.sol\":3282:3292  msg.sender */\n      caller\n        /* \"bentoken.sol\":3282:3303  msg.sender == _sender */\n      0xffffffffffffffffffffffffffffffffffffffff\n      and\n      eq\n        /* \"bentoken.sol\":3282:3336  msg.sender == _sender ? buyTaxPercent : sellTaxPercent */\n      tag_123\n      jumpi\n        /* \"bentoken.sol\":3322:3336  sellTaxPercent */\n      sload(0x07)\n        /* \"bentoken.sol\":3282:3336  msg.sender == _sender ? buyTaxPercent : sellTaxPercent */\n      jump(tag_124)\n    tag_123:\n        /* \"bentoken.sol\":3306:3319  buyTaxPercent */\n      sload(0x06)\n        /* \"bentoken.sol\":3282:3336  msg.sender == _sender ? buyTaxPercent : sellTaxPercent */\n    tag_124:\n        /* \"bentoken.sol\":3250:3337  _sender == address(this) ? 0 : (msg.sender == _sender ? buyTaxPercent : sellTaxPercent) */\n      jump(tag_125)\n    tag_122:\n        /* \"bentoken.sol\":3277:3278  0 */\n      0x00\n        /* \"bentoken.sol\":3250:3337  _sender == address(this) ? 0 : (msg.sender == _sender ? buyTaxPercent : sellTaxPercent) */\n    tag_125:\n        /* \"bentoken.sol\":3229:3337  uint256 taxPercent = _sender == address(this) ? 0 : (msg.sender == _sender ? buyTaxPercent : sellTaxPercent) */\n      swap1\n      pop\n        /* \"bentoken.sol\":3379:3382  100 */\n      0x64\n        /* \"bentoken.sol\":3365:3375  taxPercent */\n      dup2\n        /* \"bentoken.sol\":3356:3362  _value */\n      dup6\n        /* \"bentoken.sol\":3356:3375  _value * taxPercent */\n      tag_126\n      swap2\n      swap1\n      tag_99\n      jump\t// in\n    tag_126:\n        /* \"bentoken.sol\":3355:3382  (_value * taxPercent) / 100 */\n      tag_127\n      swap2\n      swap1\n      tag_128\n      jump\t// in\n    tag_127:\n        /* \"bentoken.sol\":3348:3382  return (_value * taxPercent) / 100 */\n      swap2\n      pop\n      pop\n        /* \"bentoken.sol\":3120:3390  function calculateTransferFee(uint256 _value, address _sender) private view returns (uint256 fee) {... */\n      swap3\n      swap2\n      pop\n      pop\n      jump\t// out\n        /* \"#utility.yul\":7:106   */\n    tag_129:\n        /* \"#utility.yul\":59:65   */\n      0x00\n        /* \"#utility.yul\":93:98   */\n      dup2\n        /* \"#utility.yul\":87:99   */\n      mload\n        /* \"#utility.yul\":77:99   */\n      swap1\n      pop\n        /* \"#utility.yul\":7:106   */\n      swap2\n      swap1\n      pop\n      jump\t// out\n        /* \"#utility.yul\":112:281   */\n    tag_130:\n        /* \"#utility.yul\":196:207   */\n      0x00\n        /* \"#utility.yul\":230:236   */\n      dup3\n        /* \"#utility.yul\":225:228   */\n      dup3\n        /* \"#utility.yul\":218:237   */\n      mstore\n        /* \"#utility.yul\":270:274   */\n      0x20\n        /* \"#utility.yul\":265:268   */\n      dup3\n        /* \"#utility.yul\":261:275   */\n      add\n        /* \"#utility.yul\":246:275   */\n      swap1\n      pop\n        /* \"#utility.yul\":112:281   */\n      swap3\n      swap2\n      pop\n      pop\n      jump\t// out\n        /* \"#utility.yul\":287:533   */\n    tag_131:\n        /* \"#utility.yul\":368:369   */\n      0x00\n        /* \"#utility.yul\":378:491   */\n    tag_164:\n        /* \"#utility.yul\":392:398   */\n      dup4\n        /* \"#utility.yul\":389:390   */\n      dup2\n        /* \"#utility.yul\":386:399   */\n      lt\n        /* \"#utility.yul\":378:491   */\n      iszero\n      tag_166\n      jumpi\n        /* \"#utility.yul\":477:478   */\n      dup1\n        /* \"#utility.yul\":472:475   */\n      dup3\n        /* \"#utility.yul\":468:479   */\n      add\n        /* \"#utility.yul\":462:480   */\n      mload\n        /* \"#utility.yul\":458:459   */\n      dup2\n        /* \"#utility.yul\":453:456   */\n      dup5\n        /* \"#utility.yul\":449:460   */\n      add\n        /* \"#utility.yul\":442:481   */\n      mstore\n        /* \"#utility.yul\":414:416   */\n      0x20\n        /* \"#utility.yul\":411:412   */\n      dup2\n        /* \"#utility.yul\":407:417   */\n      add\n        /* \"#utility.yul\":402:417   */\n      swap1\n      pop\n        /* \"#utility.yul\":378:491   */\n      jump(tag_164)\n    tag_166:\n        /* \"#utility.yul\":525:526   */\n      0x00\n        /* \"#utility.yul\":516:522   */\n      dup5\n        /* \"#utility.yul\":511:514   */\n      dup5\n        /* \"#utility.yul\":507:523   */\n      add\n        /* \"#utility.yul\":500:527   */\n      mstore\n        /* \"#utility.yul\":349:533   */\n      pop\n        /* \"#utility.yul\":287:533   */\n      pop\n      pop\n      pop\n      jump\t// out\n        /* \"#utility.yul\":539:641   */\n    tag_132:\n        /* \"#utility.yul\":580:586   */\n      0x00\n        /* \"#utility.yul\":631:633   */\n      0x1f\n        /* \"#utility.yul\":627:634   */\n      not\n        /* \"#utility.yul\":622:624   */\n      0x1f\n        /* \"#utility.yul\":615:620   */\n      dup4\n        /* \"#utility.yul\":611:625   */\n      add\n        /* \"#utility.yul\":607:635   */\n      and\n        /* \"#utility.yul\":597:635   */\n      swap1\n      pop\n        /* \"#utility.yul\":539:641   */\n      swap2\n      swap1\n      pop\n      jump\t// out\n        /* \"#utility.yul\":647:1024   */\n    tag_133:\n        /* \"#utility.yul\":735:738   */\n      0x00\n        /* \"#utility.yul\":763:802   */\n      tag_169\n        /* \"#utility.yul\":796:801   */\n      dup3\n        /* \"#utility.yul\":763:802   */\n      tag_129\n      jump\t// in\n    tag_169:\n        /* \"#utility.yul\":818:889   */\n      tag_170\n        /* \"#utility.yul\":882:888   */\n      dup2\n        /* \"#utility.yul\":877:880   */\n      dup6\n        /* \"#utility.yul\":818:889   */\n      tag_130\n      jump\t// in\n    tag_170:\n        /* \"#utility.yul\":811:889   */\n      swap4\n      pop\n        /* \"#utility.yul\":898:963   */\n      tag_171\n        /* \"#utility.yul\":956:962   */\n      dup2\n        /* \"#utility.yul\":951:954   */\n      dup6\n        /* \"#utility.yul\":944:948   */\n      0x20\n        /* \"#utility.yul\":937:942   */\n      dup7\n        /* \"#utility.yul\":933:949   */\n      add\n        /* \"#utility.yul\":898:963   */\n      tag_131\n      jump\t// in\n    tag_171:\n        /* \"#utility.yul\":988:1017   */\n      tag_172\n        /* \"#utility.yul\":1010:1016   */\n      dup2\n        /* \"#utility.yul\":988:1017   */\n      tag_132\n      jump\t// in\n    tag_172:\n        /* \"#utility.yul\":983:986   */\n      dup5\n        /* \"#utility.yul\":979:1018   */\n      add\n        /* \"#utility.yul\":972:1018   */\n      swap2\n      pop\n        /* \"#utility.yul\":739:1024   */\n      pop\n        /* \"#utility.yul\":647:1024   */\n      swap3\n      swap2\n      pop\n      pop\n      jump\t// out\n        /* \"#utility.yul\":1030:1343   */\n    tag_19:\n        /* \"#utility.yul\":1143:1147   */\n      0x00\n        /* \"#utility.yul\":1181:1183   */\n      0x20\n        /* \"#utility.yul\":1170:1179   */\n      dup3\n        /* \"#utility.yul\":1166:1184   */\n      add\n        /* \"#utility.yul\":1158:1184   */\n      swap1\n      pop\n        /* \"#utility.yul\":1230:1239   */\n      dup2\n        /* \"#utility.yul\":1224:1228   */\n      dup2\n        /* \"#utility.yul\":1220:1240   */\n      sub\n        /* \"#utility.yul\":1216:1217   */\n      0x00\n        /* \"#utility.yul\":1205:1214   */\n      dup4\n        /* \"#utility.yul\":1201:1218   */\n      add\n        /* \"#utility.yul\":1194:1241   */\n      mstore\n        /* \"#utility.yul\":1258:1336   */\n      tag_174\n        /* \"#utility.yul\":1331:1335   */\n      dup2\n        /* \"#utility.yul\":1322:1328   */\n      dup5\n        /* \"#utility.yul\":1258:1336   */\n      tag_133\n      jump\t// in\n    tag_174:\n        /* \"#utility.yul\":1250:1336   */\n      swap1\n      pop\n        /* \"#utility.yul\":1030:1343   */\n      swap3\n      swap2\n      pop\n      pop\n      jump\t// out\n        /* \"#utility.yul\":1430:1547   */\n    tag_135:\n        /* \"#utility.yul\":1539:1540   */\n      0x00\n        /* \"#utility.yul\":1536:1537   */\n      dup1\n        /* \"#utility.yul\":1529:1541   */\n      revert\n        /* \"#utility.yul\":1676:1802   */\n    tag_137:\n        /* \"#utility.yul\":1713:1720   */\n      0x00\n        /* \"#utility.yul\":1753:1795   */\n      0xffffffffffffffffffffffffffffffffffffffff\n        /* \"#utility.yul\":1746:1751   */\n      dup3\n        /* \"#utility.yul\":1742:1796   */\n      and\n        /* \"#utility.yul\":1731:1796   */\n      swap1\n      pop\n        /* \"#utility.yul\":1676:1802   */\n      swap2\n      swap1\n      pop\n      jump\t// out\n        /* \"#utility.yul\":1808:1904   */\n    tag_138:\n        /* \"#utility.yul\":1845:1852   */\n      0x00\n        /* \"#utility.yul\":1874:1898   */\n      tag_180\n        /* \"#utility.yul\":1892:1897   */\n      dup3\n        /* \"#utility.yul\":1874:1898   */\n      tag_137\n      jump\t// in\n    tag_180:\n        /* \"#utility.yul\":1863:1898   */\n      swap1\n      pop\n        /* \"#utility.yul\":1808:1904   */\n      swap2\n      swap1\n      pop\n      jump\t// out\n        /* \"#utility.yul\":1910:2032   */\n    tag_139:\n        /* \"#utility.yul\":1983:2007   */\n      tag_182\n        /* \"#utility.yul\":2001:2006   */\n      dup2\n        /* \"#utility.yul\":1983:2007   */\n      tag_138\n      jump\t// in\n    tag_182:\n        /* \"#utility.yul\":1976:1981   */\n      dup2\n        /* \"#utility.yul\":1973:2008   */\n      eq\n        /* \"#utility.yul\":1963:2026   */\n      tag_183\n      jumpi\n        /* \"#utility.yul\":2022:2023   */\n      0x00\n        /* \"#utility.yul\":2019:2020   */\n      dup1\n        /* \"#utility.yul\":2012:2024   */\n      revert\n        /* \"#utility.yul\":1963:2026   */\n    tag_183:\n        /* \"#utility.yul\":1910:2032   */\n      pop\n      jump\t// out\n        /* \"#utility.yul\":2038:2177   */\n    tag_140:\n        /* \"#utility.yul\":2084:2089   */\n      0x00\n        /* \"#utility.yul\":2122:2128   */\n      dup2\n        /* \"#utility.yul\":2109:2129   */\n      calldataload\n        /* \"#utility.yul\":2100:2129   */\n      swap1\n      pop\n        /* \"#utility.yul\":2138:2171   */\n      tag_185\n        /* \"#utility.yul\":2165:2170   */\n      dup2\n        /* \"#utility.yul\":2138:2171   */\n      tag_139\n      jump\t// in\n    tag_185:\n        /* \"#utility.yul\":2038:2177   */\n      swap3\n      swap2\n      pop\n      pop\n      jump\t// out\n        /* \"#utility.yul\":2183:2260   */\n    tag_141:\n        /* \"#utility.yul\":2220:2227   */\n      0x00\n        /* \"#utility.yul\":2249:2254   */\n      dup2\n        /* \"#utility.yul\":2238:2254   */\n      swap1\n      pop\n        /* \"#utility.yul\":2183:2260   */\n      swap2\n      swap1\n      pop\n      jump\t// out\n        /* \"#utility.yul\":2266:2388   */\n    tag_142:\n        /* \"#utility.yul\":2339:2363   */\n      tag_188\n        /* \"#utility.yul\":2357:2362   */\n      dup2\n        /* \"#utility.yul\":2339:2363   */\n      tag_141\n      jump\t// in\n    tag_188:\n        /* \"#utility.yul\":2332:2337   */\n      dup2\n        /* \"#utility.yul\":2329:2364   */\n      eq\n        /* \"#utility.yul\":2319:2382   */\n      tag_189\n      jumpi\n        /* \"#utility.yul\":2378:2379   */\n      0x00\n        /* \"#utility.yul\":2375:2376   */\n      dup1\n        /* \"#utility.yul\":2368:2380   */\n      revert\n        /* \"#utility.yul\":2319:2382   */\n    tag_189:\n        /* \"#utility.yul\":2266:2388   */\n      pop\n      jump\t// out\n        /* \"#utility.yul\":2394:2533   */\n    tag_143:\n        /* \"#utility.yul\":2440:2445   */\n      0x00\n        /* \"#utility.yul\":2478:2484   */\n      dup2\n        /* \"#utility.yul\":2465:2485   */\n      calldataload\n        /* \"#utility.yul\":2456:2485   */\n      swap1\n      pop\n        /* \"#utility.yul\":2494:2527   */\n      tag_191\n        /* \"#utility.yul\":2521:2526   */\n      dup2\n        /* \"#utility.yul\":2494:2527   */\n      tag_142\n      jump\t// in\n    tag_191:\n        /* \"#utility.yul\":2394:2533   */\n      swap3\n      swap2\n      pop\n      pop\n      jump\t// out\n        /* \"#utility.yul\":2539:3013   */\n    tag_22:\n        /* \"#utility.yul\":2607:2613   */\n      0x00\n        /* \"#utility.yul\":2615:2621   */\n      dup1\n        /* \"#utility.yul\":2664:2666   */\n      0x40\n        /* \"#utility.yul\":2652:2661   */\n      dup4\n        /* \"#utility.yul\":2643:2650   */\n      dup6\n        /* \"#utility.yul\":2639:2662   */\n      sub\n        /* \"#utility.yul\":2635:2667   */\n      slt\n        /* \"#utility.yul\":2632:2751   */\n      iszero\n      tag_193\n      jumpi\n        /* \"#utility.yul\":2670:2749   */\n      tag_194\n      tag_135\n      jump\t// in\n    tag_194:\n        /* \"#utility.yul\":2632:2751   */\n    tag_193:\n        /* \"#utility.yul\":2790:2791   */\n      0x00\n        /* \"#utility.yul\":2815:2868   */\n      tag_195\n        /* \"#utility.yul\":2860:2867   */\n      dup6\n        /* \"#utility.yul\":2851:2857   */\n      dup3\n        /* \"#utility.yul\":2840:2849   */\n      dup7\n        /* \"#utility.yul\":2836:2858   */\n      add\n        /* \"#utility.yul\":2815:2868   */\n      tag_140\n      jump\t// in\n    tag_195:\n        /* \"#utility.yul\":2805:2868   */\n      swap3\n      pop\n        /* \"#utility.yul\":2761:2878   */\n      pop\n        /* \"#utility.yul\":2917:2919   */\n      0x20\n        /* \"#utility.yul\":2943:2996   */\n      tag_196\n        /* \"#utility.yul\":2988:2995   */\n      dup6\n        /* \"#utility.yul\":2979:2985   */\n      dup3\n        /* \"#utility.yul\":2968:2977   */\n      dup7\n        /* \"#utility.yul\":2964:2986   */\n      add\n        /* \"#utility.yul\":2943:2996   */\n      tag_143\n      jump\t// in\n    tag_196:\n        /* \"#utility.yul\":2933:2996   */\n      swap2\n      pop\n        /* \"#utility.yul\":2888:3006   */\n      pop\n        /* \"#utility.yul\":2539:3013   */\n      swap3\n      pop\n      swap3\n      swap1\n      pop\n      jump\t// out\n        /* \"#utility.yul\":3019:3109   */\n    tag_144:\n        /* \"#utility.yul\":3053:3060   */\n      0x00\n        /* \"#utility.yul\":3096:3101   */\n      dup2\n        /* \"#utility.yul\":3089:3102   */\n      iszero\n        /* \"#utility.yul\":3082:3103   */\n      iszero\n        /* \"#utility.yul\":3071:3103   */\n      swap1\n      pop\n        /* \"#utility.yul\":3019:3109   */\n      swap2\n      swap1\n      pop\n      jump\t// out\n        /* \"#utility.yul\":3115:3224   */\n    tag_145:\n        /* \"#utility.yul\":3196:3217   */\n      tag_199\n        /* \"#utility.yul\":3211:3216   */\n      dup2\n        /* \"#utility.yul\":3196:3217   */\n      tag_144\n      jump\t// in\n    tag_199:\n        /* \"#utility.yul\":3191:3194   */\n      dup3\n        /* \"#utility.yul\":3184:3218   */\n      mstore\n        /* \"#utility.yul\":3115:3224   */\n      pop\n      pop\n      jump\t// out\n        /* \"#utility.yul\":3230:3440   */\n    tag_25:\n        /* \"#utility.yul\":3317:3321   */\n      0x00\n        /* \"#utility.yul\":3355:3357   */\n      0x20\n        /* \"#utility.yul\":3344:3353   */\n      dup3\n        /* \"#utility.yul\":3340:3358   */\n      add\n        /* \"#utility.yul\":3332:3358   */\n      swap1\n      pop\n        /* \"#utility.yul\":3368:3433   */\n      tag_201\n        /* \"#utility.yul\":3430:3431   */\n      0x00\n        /* \"#utility.yul\":3419:3428   */\n      dup4\n        /* \"#utility.yul\":3415:3432   */\n      add\n        /* \"#utility.yul\":3406:3412   */\n      dup5\n        /* \"#utility.yul\":3368:3433   */\n      tag_145\n      jump\t// in\n    tag_201:\n        /* \"#utility.yul\":3230:3440   */\n      swap3\n      swap2\n      pop\n      pop\n      jump\t// out\n        /* \"#utility.yul\":3446:4065   */\n    tag_28:\n        /* \"#utility.yul\":3523:3529   */\n      0x00\n        /* \"#utility.yul\":3531:3537   */\n      dup1\n        /* \"#utility.yul\":3539:3545   */\n      0x00\n        /* \"#utility.yul\":3588:3590   */\n      0x60\n        /* \"#utility.yul\":3576:3585   */\n      dup5\n        /* \"#utility.yul\":3567:3574   */\n      dup7\n        /* \"#utility.yul\":3563:3586   */\n      sub\n        /* \"#utility.yul\":3559:3591   */\n      slt\n        /* \"#utility.yul\":3556:3675   */\n      iszero\n      tag_203\n      jumpi\n        /* \"#utility.yul\":3594:3673   */\n      tag_204\n      tag_135\n      jump\t// in\n    tag_204:\n        /* \"#utility.yul\":3556:3675   */\n    tag_203:\n        /* \"#utility.yul\":3714:3715   */\n      0x00\n        /* \"#utility.yul\":3739:3792   */\n      tag_205\n        /* \"#utility.yul\":3784:3791   */\n      dup7\n        /* \"#utility.yul\":3775:3781   */\n      dup3\n        /* \"#utility.yul\":3764:3773   */\n      dup8\n        /* \"#utility.yul\":3760:3782   */\n      add\n        /* \"#utility.yul\":3739:3792   */\n      tag_140\n      jump\t// in\n    tag_205:\n        /* \"#utility.yul\":3729:3792   */\n      swap4\n      pop\n        /* \"#utility.yul\":3685:3802   */\n      pop\n        /* \"#utility.yul\":3841:3843   */\n      0x20\n        /* \"#utility.yul\":3867:3920   */\n      tag_206\n        /* \"#utility.yul\":3912:3919   */\n      dup7\n        /* \"#utility.yul\":3903:3909   */\n      dup3\n        /* \"#utility.yul\":3892:3901   */\n      dup8\n        /* \"#utility.yul\":3888:3910   */\n      add\n        /* \"#utility.yul\":3867:3920   */\n      tag_140\n      jump\t// in\n    tag_206:\n        /* \"#utility.yul\":3857:3920   */\n      swap3\n      pop\n        /* \"#utility.yul\":3812:3930   */\n      pop\n        /* \"#utility.yul\":3969:3971   */\n      0x40\n        /* \"#utility.yul\":3995:4048   */\n      tag_207\n        /* \"#utility.yul\":4040:4047   */\n      dup7\n        /* \"#utility.yul\":4031:4037   */\n      dup3\n        /* \"#utility.yul\":4020:4029   */\n      dup8\n        /* \"#utility.yul\":4016:4038   */\n      add\n        /* \"#utility.yul\":3995:4048   */\n      tag_143\n      jump\t// in\n    tag_207:\n        /* \"#utility.yul\":3985:4048   */\n      swap2\n      pop\n        /* \"#utility.yul\":3940:4058   */\n      pop\n        /* \"#utility.yul\":3446:4065   */\n      swap3\n      pop\n      swap3\n      pop\n      swap3\n      jump\t// out\n        /* \"#utility.yul\":4071:4157   */\n    tag_146:\n        /* \"#utility.yul\":4106:4113   */\n      0x00\n        /* \"#utility.yul\":4146:4150   */\n      0xff\n        /* \"#utility.yul\":4139:4144   */\n      dup3\n        /* \"#utility.yul\":4135:4151   */\n      and\n        /* \"#utility.yul\":4124:4151   */\n      swap1\n      pop\n        /* \"#utility.yul\":4071:4157   */\n      swap2\n      swap1\n      pop\n      jump\t// out\n        /* \"#utility.yul\":4163:4275   */\n    tag_147:\n        /* \"#utility.yul\":4246:4268   */\n      tag_210\n        /* \"#utility.yul\":4262:4267   */\n      dup2\n        /* \"#utility.yul\":4246:4268   */\n      tag_146\n      jump\t// in\n    tag_210:\n        /* \"#utility.yul\":4241:4244   */\n      dup3\n        /* \"#utility.yul\":4234:4269   */\n      mstore\n        /* \"#utility.yul\":4163:4275   */\n      pop\n      pop\n      jump\t// out\n        /* \"#utility.yul\":4281:4495   */\n    tag_37:\n        /* \"#utility.yul\":4370:4374   */\n      0x00\n        /* \"#utility.yul\":4408:4410   */\n      0x20\n        /* \"#utility.yul\":4397:4406   */\n      dup3\n        /* \"#utility.yul\":4393:4411   */\n      add\n        /* \"#utility.yul\":4385:4411   */\n      swap1\n      pop\n        /* \"#utility.yul\":4421:4488   */\n      tag_212\n        /* \"#utility.yul\":4485:4486   */\n      0x00\n        /* \"#utility.yul\":4474:4483   */\n      dup4\n        /* \"#utility.yul\":4470:4487   */\n      add\n        /* \"#utility.yul\":4461:4467   */\n      dup5\n        /* \"#utility.yul\":4421:4488   */\n      tag_147\n      jump\t// in\n    tag_212:\n        /* \"#utility.yul\":4281:4495   */\n      swap3\n      swap2\n      pop\n      pop\n      jump\t// out\n        /* \"#utility.yul\":4501:4619   */\n    tag_148:\n        /* \"#utility.yul\":4588:4612   */\n      tag_214\n        /* \"#utility.yul\":4606:4611   */\n      dup2\n        /* \"#utility.yul\":4588:4612   */\n      tag_141\n      jump\t// in\n    tag_214:\n        /* \"#utility.yul\":4583:4586   */\n      dup3\n        /* \"#utility.yul\":4576:4613   */\n      mstore\n        /* \"#utility.yul\":4501:4619   */\n      pop\n      pop\n      jump\t// out\n        /* \"#utility.yul\":4625:4847   */\n    tag_41:\n        /* \"#utility.yul\":4718:4722   */\n      0x00\n        /* \"#utility.yul\":4756:4758   */\n      0x20\n        /* \"#utility.yul\":4745:4754   */\n      dup3\n        /* \"#utility.yul\":4741:4759   */\n      add\n        /* \"#utility.yul\":4733:4759   */\n      swap1\n      pop\n        /* \"#utility.yul\":4769:4840   */\n      tag_216\n        /* \"#utility.yul\":4837:4838   */\n      0x00\n        /* \"#utility.yul\":4826:4835   */\n      dup4\n        /* \"#utility.yul\":4822:4839   */\n      add\n        /* \"#utility.yul\":4813:4819   */\n      dup5\n        /* \"#utility.yul\":4769:4840   */\n      tag_148\n      jump\t// in\n    tag_216:\n        /* \"#utility.yul\":4625:4847   */\n      swap3\n      swap2\n      pop\n      pop\n      jump\t// out\n        /* \"#utility.yul\":4853:5182   */\n    tag_44:\n        /* \"#utility.yul\":4912:4918   */\n      0x00\n        /* \"#utility.yul\":4961:4963   */\n      0x20\n        /* \"#utility.yul\":4949:4958   */\n      dup3\n        /* \"#utility.yul\":4940:4947   */\n      dup5\n        /* \"#utility.yul\":4936:4959   */\n      sub\n        /* \"#utility.yul\":4932:4964   */\n      slt\n        /* \"#utility.yul\":4929:5048   */\n      iszero\n      tag_218\n      jumpi\n        /* \"#utility.yul\":4967:5046   */\n      tag_219\n      tag_135\n      jump\t// in\n    tag_219:\n        /* \"#utility.yul\":4929:5048   */\n    tag_218:\n        /* \"#utility.yul\":5087:5088   */\n      0x00\n        /* \"#utility.yul\":5112:5165   */\n      tag_220\n        /* \"#utility.yul\":5157:5164   */\n      dup5\n        /* \"#utility.yul\":5148:5154   */\n      dup3\n        /* \"#utility.yul\":5137:5146   */\n      dup6\n        /* \"#utility.yul\":5133:5155   */\n      add\n        /* \"#utility.yul\":5112:5165   */\n      tag_140\n      jump\t// in\n    tag_220:\n        /* \"#utility.yul\":5102:5165   */\n      swap2\n      pop\n        /* \"#utility.yul\":5058:5175   */\n      pop\n        /* \"#utility.yul\":4853:5182   */\n      swap3\n      swap2\n      pop\n      pop\n      jump\t// out\n        /* \"#utility.yul\":5188:5662   */\n    tag_62:\n        /* \"#utility.yul\":5256:5262   */\n      0x00\n        /* \"#utility.yul\":5264:5270   */\n      dup1\n        /* \"#utility.yul\":5313:5315   */\n      0x40\n        /* \"#utility.yul\":5301:5310   */\n      dup4\n        /* \"#utility.yul\":5292:5299   */\n      dup6\n        /* \"#utility.yul\":5288:5311   */\n      sub\n        /* \"#utility.yul\":5284:5316   */\n      slt\n        /* \"#utility.yul\":5281:5400   */\n      iszero\n      tag_222\n      jumpi\n        /* \"#utility.yul\":5319:5398   */\n      tag_223\n      tag_135\n      jump\t// in\n    tag_223:\n        /* \"#utility.yul\":5281:5400   */\n    tag_222:\n        /* \"#utility.yul\":5439:5440   */\n      0x00\n        /* \"#utility.yul\":5464:5517   */\n      tag_224\n        /* \"#utility.yul\":5509:5516   */\n      dup6\n        /* \"#utility.yul\":5500:5506   */\n      dup3\n        /* \"#utility.yul\":5489:5498   */\n      dup7\n        /* \"#utility.yul\":5485:5507   */\n      add\n        /* \"#utility.yul\":5464:5517   */\n      tag_140\n      jump\t// in\n    tag_224:\n        /* \"#utility.yul\":5454:5517   */\n      swap3\n      pop\n        /* \"#utility.yul\":5410:5527   */\n      pop\n        /* \"#utility.yul\":5566:5568   */\n      0x20\n        /* \"#utility.yul\":5592:5645   */\n      tag_225\n        /* \"#utility.yul\":5637:5644   */\n      dup6\n        /* \"#utility.yul\":5628:5634   */\n      dup3\n        /* \"#utility.yul\":5617:5626   */\n      dup7\n        /* \"#utility.yul\":5613:5635   */\n      add\n        /* \"#utility.yul\":5592:5645   */\n      tag_140\n      jump\t// in\n    tag_225:\n        /* \"#utility.yul\":5582:5645   */\n      swap2\n      pop\n        /* \"#utility.yul\":5537:5655   */\n      pop\n        /* \"#utility.yul\":5188:5662   */\n      swap3\n      pop\n      swap3\n      swap1\n      pop\n      jump\t// out\n        /* \"#utility.yul\":5668:5848   */\n    tag_149:\n        /* \"#utility.yul\":5716:5793   */\n      0x4e487b7100000000000000000000000000000000000000000000000000000000\n        /* \"#utility.yul\":5713:5714   */\n      0x00\n        /* \"#utility.yul\":5706:5794   */\n      mstore\n        /* \"#utility.yul\":5813:5817   */\n      0x22\n        /* \"#utility.yul\":5810:5811   */\n      0x04\n        /* \"#utility.yul\":5803:5818   */\n      mstore\n        /* \"#utility.yul\":5837:5841   */\n      0x24\n        /* \"#utility.yul\":5834:5835   */\n      0x00\n        /* \"#utility.yul\":5827:5842   */\n      revert\n        /* \"#utility.yul\":5854:6174   */\n    tag_66:\n        /* \"#utility.yul\":5898:5904   */\n      0x00\n        /* \"#utility.yul\":5935:5936   */\n      0x02\n        /* \"#utility.yul\":5929:5933   */\n      dup3\n        /* \"#utility.yul\":5925:5937   */\n      div\n        /* \"#utility.yul\":5915:5937   */\n      swap1\n      pop\n        /* \"#utility.yul\":5982:5983   */\n      0x01\n        /* \"#utility.yul\":5976:5980   */\n      dup3\n        /* \"#utility.yul\":5972:5984   */\n      and\n        /* \"#utility.yul\":6003:6021   */\n      dup1\n        /* \"#utility.yul\":5993:6074   */\n      tag_228\n      jumpi\n        /* \"#utility.yul\":6059:6063   */\n      0x7f\n        /* \"#utility.yul\":6051:6057   */\n      dup3\n        /* \"#utility.yul\":6047:6064   */\n      and\n        /* \"#utility.yul\":6037:6064   */\n      swap2\n      pop\n        /* \"#utility.yul\":5993:6074   */\n    tag_228:\n        /* \"#utility.yul\":6121:6123   */\n      0x20\n        /* \"#utility.yul\":6113:6119   */\n      dup3\n        /* \"#utility.yul\":6110:6124   */\n      lt\n        /* \"#utility.yul\":6090:6108   */\n      dup2\n        /* \"#utility.yul\":6087:6125   */\n      sub\n        /* \"#utility.yul\":6084:6168   */\n      tag_229\n      jumpi\n        /* \"#utility.yul\":6140:6158   */\n      tag_230\n      tag_149\n      jump\t// in\n    tag_230:\n        /* \"#utility.yul\":6084:6168   */\n    tag_229:\n        /* \"#utility.yul\":5905:6174   */\n      pop\n        /* \"#utility.yul\":5854:6174   */\n      swap2\n      swap1\n      pop\n      jump\t// out\n        /* \"#utility.yul\":6180:6345   */\n    tag_150:\n        /* \"#utility.yul\":6320:6337   */\n      0x496e76616c696420616464726573730000000000000000000000000000000000\n        /* \"#utility.yul\":6316:6317   */\n      0x00\n        /* \"#utility.yul\":6308:6314   */\n      dup3\n        /* \"#utility.yul\":6304:6318   */\n      add\n        /* \"#utility.yul\":6297:6338   */\n      mstore\n        /* \"#utility.yul\":6180:6345   */\n      pop\n      jump\t// out\n        /* \"#utility.yul\":6351:6717   */\n    tag_151:\n        /* \"#utility.yul\":6493:6496   */\n      0x00\n        /* \"#utility.yul\":6514:6581   */\n      tag_233\n        /* \"#utility.yul\":6578:6580   */\n      0x0f\n        /* \"#utility.yul\":6573:6576   */\n      dup4\n        /* \"#utility.yul\":6514:6581   */\n      tag_130\n      jump\t// in\n    tag_233:\n        /* \"#utility.yul\":6507:6581   */\n      swap2\n      pop\n        /* \"#utility.yul\":6590:6683   */\n      tag_234\n        /* \"#utility.yul\":6679:6682   */\n      dup3\n        /* \"#utility.yul\":6590:6683   */\n      tag_150\n      jump\t// in\n    tag_234:\n        /* \"#utility.yul\":6708:6710   */\n      0x20\n        /* \"#utility.yul\":6703:6706   */\n      dup3\n        /* \"#utility.yul\":6699:6711   */\n      add\n        /* \"#utility.yul\":6692:6711   */\n      swap1\n      pop\n        /* \"#utility.yul\":6351:6717   */\n      swap2\n      swap1\n      pop\n      jump\t// out\n        /* \"#utility.yul\":6723:7142   */\n    tag_76:\n        /* \"#utility.yul\":6889:6893   */\n      0x00\n        /* \"#utility.yul\":6927:6929   */\n      0x20\n        /* \"#utility.yul\":6916:6925   */\n      dup3\n        /* \"#utility.yul\":6912:6930   */\n      add\n        /* \"#utility.yul\":6904:6930   */\n      swap1\n      pop\n        /* \"#utility.yul\":6976:6985   */\n      dup2\n        /* \"#utility.yul\":6970:6974   */\n      dup2\n        /* \"#utility.yul\":6966:6986   */\n      sub\n        /* \"#utility.yul\":6962:6963   */\n      0x00\n        /* \"#utility.yul\":6951:6960   */\n      dup4\n        /* \"#utility.yul\":6947:6964   */\n      add\n        /* \"#utility.yul\":6940:6987   */\n      mstore\n        /* \"#utility.yul\":7004:7135   */\n      tag_236\n        /* \"#utility.yul\":7130:7134   */\n      dup2\n        /* \"#utility.yul\":7004:7135   */\n      tag_151\n      jump\t// in\n    tag_236:\n        /* \"#utility.yul\":6996:7135   */\n      swap1\n      pop\n        /* \"#utility.yul\":6723:7142   */\n      swap2\n      swap1\n      pop\n      jump\t// out\n        /* \"#utility.yul\":7148:7318   */\n    tag_152:\n        /* \"#utility.yul\":7288:7310   */\n      0x496e73756666696369656e742062616c616e6365000000000000000000000000\n        /* \"#utility.yul\":7284:7285   */\n      0x00\n        /* \"#utility.yul\":7276:7282   */\n      dup3\n        /* \"#utility.yul\":7272:7286   */\n      add\n        /* \"#utility.yul\":7265:7311   */\n      mstore\n        /* \"#utility.yul\":7148:7318   */\n      pop\n      jump\t// out\n        /* \"#utility.yul\":7324:7690   */\n    tag_153:\n        /* \"#utility.yul\":7466:7469   */\n      0x00\n        /* \"#utility.yul\":7487:7554   */\n      tag_239\n        /* \"#utility.yul\":7551:7553   */\n      0x14\n        /* \"#utility.yul\":7546:7549   */\n      dup4\n        /* \"#utility.yul\":7487:7554   */\n      tag_130\n      jump\t// in\n    tag_239:\n        /* \"#utility.yul\":7480:7554   */\n      swap2\n      pop\n        /* \"#utility.yul\":7563:7656   */\n      tag_240\n        /* \"#utility.yul\":7652:7655   */\n      dup3\n        /* \"#utility.yul\":7563:7656   */\n      tag_152\n      jump\t// in\n    tag_240:\n        /* \"#utility.yul\":7681:7683   */\n      0x20\n        /* \"#utility.yul\":7676:7679   */\n      dup3\n        /* \"#utility.yul\":7672:7684   */\n      add\n        /* \"#utility.yul\":7665:7684   */\n      swap1\n      pop\n        /* \"#utility.yul\":7324:7690   */\n      swap2\n      swap1\n      pop\n      jump\t// out\n        /* \"#utility.yul\":7696:8115   */\n    tag_79:\n        /* \"#utility.yul\":7862:7866   */\n      0x00\n        /* \"#utility.yul\":7900:7902   */\n      0x20\n        /* \"#utility.yul\":7889:7898   */\n      dup3\n        /* \"#utility.yul\":7885:7903   */\n      add\n        /* \"#utility.yul\":7877:7903   */\n      swap1\n      pop\n        /* \"#utility.yul\":7949:7958   */\n      dup2\n        /* \"#utility.yul\":7943:7947   */\n      dup2\n        /* \"#utility.yul\":7939:7959   */\n      sub\n        /* \"#utility.yul\":7935:7936   */\n      0x00\n        /* \"#utility.yul\":7924:7933   */\n      dup4\n        /* \"#utility.yul\":7920:7937   */\n      add\n        /* \"#utility.yul\":7913:7960   */\n      mstore\n        /* \"#utility.yul\":7977:8108   */\n      tag_242\n        /* \"#utility.yul\":8103:8107   */\n      dup2\n        /* \"#utility.yul\":7977:8108   */\n      tag_153\n      jump\t// in\n    tag_242:\n        /* \"#utility.yul\":7969:8108   */\n      swap1\n      pop\n        /* \"#utility.yul\":7696:8115   */\n      swap2\n      swap1\n      pop\n      jump\t// out\n        /* \"#utility.yul\":8121:8293   */\n    tag_154:\n        /* \"#utility.yul\":8261:8285   */\n      0x496e73756666696369656e7420616c6c6f77616e636500000000000000000000\n        /* \"#utility.yul\":8257:8258   */\n      0x00\n        /* \"#utility.yul\":8249:8255   */\n      dup3\n        /* \"#utility.yul\":8245:8259   */\n      add\n        /* \"#utility.yul\":8238:8286   */\n      mstore\n        /* \"#utility.yul\":8121:8293   */\n      pop\n      jump\t// out\n        /* \"#utility.yul\":8299:8665   */\n    tag_155:\n        /* \"#utility.yul\":8441:8444   */\n      0x00\n        /* \"#utility.yul\":8462:8529   */\n      tag_245\n        /* \"#utility.yul\":8526:8528   */\n      0x16\n        /* \"#utility.yul\":8521:8524   */\n      dup4\n        /* \"#utility.yul\":8462:8529   */\n      tag_130\n      jump\t// in\n    tag_245:\n        /* \"#utility.yul\":8455:8529   */\n      swap2\n      pop\n        /* \"#utility.yul\":8538:8631   */\n      tag_246\n        /* \"#utility.yul\":8627:8630   */\n      dup3\n        /* \"#utility.yul\":8538:8631   */\n      tag_154\n      jump\t// in\n    tag_246:\n        /* \"#utility.yul\":8656:8658   */\n      0x20\n        /* \"#utility.yul\":8651:8654   */\n      dup3\n        /* \"#utility.yul\":8647:8659   */\n      add\n        /* \"#utility.yul\":8640:8659   */\n      swap1\n      pop\n        /* \"#utility.yul\":8299:8665   */\n      swap2\n      swap1\n      pop\n      jump\t// out\n        /* \"#utility.yul\":8671:9090   */\n    tag_82:\n        /* \"#utility.yul\":8837:8841   */\n      0x00\n        /* \"#utility.yul\":8875:8877   */\n      0x20\n        /* \"#utility.yul\":8864:8873   */\n      dup3\n        /* \"#utility.yul\":8860:8878   */\n      add\n        /* \"#utility.yul\":8852:8878   */\n      swap1\n      pop\n        /* \"#utility.yul\":8924:8933   */\n      dup2\n        /* \"#utility.yul\":8918:8922   */\n      dup2\n        /* \"#utility.yul\":8914:8934   */\n      sub\n        /* \"#utility.yul\":8910:8911   */\n      0x00\n        /* \"#utility.yul\":8899:8908   */\n      dup4\n        /* \"#utility.yul\":8895:8912   */\n      add\n        /* \"#utility.yul\":8888:8935   */\n      mstore\n        /* \"#utility.yul\":8952:9083   */\n      tag_248\n        /* \"#utility.yul\":9078:9082   */\n      dup2\n        /* \"#utility.yul\":8952:9083   */\n      tag_155\n      jump\t// in\n    tag_248:\n        /* \"#utility.yul\":8944:9083   */\n      swap1\n      pop\n        /* \"#utility.yul\":8671:9090   */\n      swap2\n      swap1\n      pop\n      jump\t// out\n        /* \"#utility.yul\":9096:9276   */\n    tag_156:\n        /* \"#utility.yul\":9144:9221   */\n      0x4e487b7100000000000000000000000000000000000000000000000000000000\n        /* \"#utility.yul\":9141:9142   */\n      0x00\n        /* \"#utility.yul\":9134:9222   */\n      mstore\n        /* \"#utility.yul\":9241:9245   */\n      0x11\n        /* \"#utility.yul\":9238:9239   */\n      0x04\n        /* \"#utility.yul\":9231:9246   */\n      mstore\n        /* \"#utility.yul\":9265:9269   */\n      0x24\n        /* \"#utility.yul\":9262:9263   */\n      0x00\n        /* \"#utility.yul\":9255:9270   */\n      revert\n        /* \"#utility.yul\":9282:9476   */\n    tag_86:\n        /* \"#utility.yul\":9322:9326   */\n      0x00\n        /* \"#utility.yul\":9342:9362   */\n      tag_251\n        /* \"#utility.yul\":9360:9361   */\n      dup3\n        /* \"#utility.yul\":9342:9362   */\n      tag_141\n      jump\t// in\n    tag_251:\n        /* \"#utility.yul\":9337:9362   */\n      swap2\n      pop\n        /* \"#utility.yul\":9376:9396   */\n      tag_252\n        /* \"#utility.yul\":9394:9395   */\n      dup4\n        /* \"#utility.yul\":9376:9396   */\n      tag_141\n      jump\t// in\n    tag_252:\n        /* \"#utility.yul\":9371:9396   */\n      swap3\n      pop\n        /* \"#utility.yul\":9420:9421   */\n      dup3\n        /* \"#utility.yul\":9417:9418   */\n      dup3\n        /* \"#utility.yul\":9413:9422   */\n      sub\n        /* \"#utility.yul\":9405:9422   */\n      swap1\n      pop\n        /* \"#utility.yul\":9444:9445   */\n      dup2\n        /* \"#utility.yul\":9438:9442   */\n      dup2\n        /* \"#utility.yul\":9435:9446   */\n      gt\n        /* \"#utility.yul\":9432:9469   */\n      iszero\n      tag_253\n      jumpi\n        /* \"#utility.yul\":9449:9467   */\n      tag_254\n      tag_156\n      jump\t// in\n    tag_254:\n        /* \"#utility.yul\":9432:9469   */\n    tag_253:\n        /* \"#utility.yul\":9282:9476   */\n      swap3\n      swap2\n      pop\n      pop\n      jump\t// out\n        /* \"#utility.yul\":9482:9673   */\n    tag_89:\n        /* \"#utility.yul\":9522:9525   */\n      0x00\n        /* \"#utility.yul\":9541:9561   */\n      tag_256\n        /* \"#utility.yul\":9559:9560   */\n      dup3\n        /* \"#utility.yul\":9541:9561   */\n      tag_141\n      jump\t// in\n    tag_256:\n        /* \"#utility.yul\":9536:9561   */\n      swap2\n      pop\n        /* \"#utility.yul\":9575:9595   */\n      tag_257\n        /* \"#utility.yul\":9593:9594   */\n      dup4\n        /* \"#utility.yul\":9575:9595   */\n      tag_141\n      jump\t// in\n    tag_257:\n        /* \"#utility.yul\":9570:9595   */\n      swap3\n      pop\n        /* \"#utility.yul\":9618:9619   */\n      dup3\n        /* \"#utility.yul\":9615:9616   */\n      dup3\n        /* \"#utility.yul\":9611:9620   */\n      add\n        /* \"#utility.yul\":9604:9620   */\n      swap1\n      pop\n        /* \"#utility.yul\":9639:9642   */\n      dup1\n        /* \"#utility.yul\":9636:9637   */\n      dup3\n        /* \"#utility.yul\":9633:9643   */\n      gt\n        /* \"#utility.yul\":9630:9666   */\n      iszero\n      tag_258\n      jumpi\n        /* \"#utility.yul\":9646:9664   */\n      tag_259\n      tag_156\n      jump\t// in\n    tag_259:\n        /* \"#utility.yul\":9630:9666   */\n    tag_258:\n        /* \"#utility.yul\":9482:9673   */\n      swap3\n      swap2\n      pop\n      pop\n      jump\t// out\n        /* \"#utility.yul\":9679:9847   */\n    tag_157:\n        /* \"#utility.yul\":9819:9839   */\n      0x4e6f206665657320746f20636f6e766572740000000000000000000000000000\n        /* \"#utility.yul\":9815:9816   */\n      0x00\n        /* \"#utility.yul\":9807:9813   */\n      dup3\n        /* \"#utility.yul\":9803:9817   */\n      add\n        /* \"#utility.yul\":9796:9840   */\n      mstore\n        /* \"#utility.yul\":9679:9847   */\n      pop\n      jump\t// out\n        /* \"#utility.yul\":9853:10219   */\n    tag_158:\n        /* \"#utility.yul\":9995:9998   */\n      0x00\n        /* \"#utility.yul\":10016:10083   */\n      tag_262\n        /* \"#utility.yul\":10080:10082   */\n      0x12\n        /* \"#utility.yul\":10075:10078   */\n      dup4\n        /* \"#utility.yul\":10016:10083   */\n      tag_130\n      jump\t// in\n    tag_262:\n        /* \"#utility.yul\":10009:10083   */\n      swap2\n      pop\n        /* \"#utility.yul\":10092:10185   */\n      tag_263\n        /* \"#utility.yul\":10181:10184   */\n      dup3\n        /* \"#utility.yul\":10092:10185   */\n      tag_157\n      jump\t// in\n    tag_263:\n        /* \"#utility.yul\":10210:10212   */\n      0x20\n        /* \"#utility.yul\":10205:10208   */\n      dup3\n        /* \"#utility.yul\":10201:10213   */\n      add\n        /* \"#utility.yul\":10194:10213   */\n      swap1\n      pop\n        /* \"#utility.yul\":9853:10219   */\n      swap2\n      swap1\n      pop\n      jump\t// out\n        /* \"#utility.yul\":10225:10644   */\n    tag_97:\n        /* \"#utility.yul\":10391:10395   */\n      0x00\n        /* \"#utility.yul\":10429:10431   */\n      0x20\n        /* \"#utility.yul\":10418:10427   */\n      dup3\n        /* \"#utility.yul\":10414:10432   */\n      add\n        /* \"#utility.yul\":10406:10432   */\n      swap1\n      pop\n        /* \"#utility.yul\":10478:10487   */\n      dup2\n        /* \"#utility.yul\":10472:10476   */\n      dup2\n        /* \"#utility.yul\":10468:10488   */\n      sub\n        /* \"#utility.yul\":10464:10465   */\n      0x00\n        /* \"#utility.yul\":10453:10462   */\n      dup4\n        /* \"#utility.yul\":10449:10466   */\n      add\n        /* \"#utility.yul\":10442:10489   */\n      mstore\n        /* \"#utility.yul\":10506:10637   */\n      tag_265\n        /* \"#utility.yul\":10632:10636   */\n      dup2\n        /* \"#utility.yul\":10506:10637   */\n      tag_158\n      jump\t// in\n    tag_265:\n        /* \"#utility.yul\":10498:10637   */\n      swap1\n      pop\n        /* \"#utility.yul\":10225:10644   */\n      swap2\n      swap1\n      pop\n      jump\t// out\n        /* \"#utility.yul\":10650:11060   */\n    tag_99:\n        /* \"#utility.yul\":10690:10697   */\n      0x00\n        /* \"#utility.yul\":10713:10733   */\n      tag_267\n        /* \"#utility.yul\":10731:10732   */\n      dup3\n        /* \"#utility.yul\":10713:10733   */\n      tag_141\n      jump\t// in\n    tag_267:\n        /* \"#utility.yul\":10708:10733   */\n      swap2\n      pop\n        /* \"#utility.yul\":10747:10767   */\n      tag_268\n        /* \"#utility.yul\":10765:10766   */\n      dup4\n        /* \"#utility.yul\":10747:10767   */\n      tag_141\n      jump\t// in\n    tag_268:\n        /* \"#utility.yul\":10742:10767   */\n      swap3\n      pop\n        /* \"#utility.yul\":10802:10803   */\n      dup3\n        /* \"#utility.yul\":10799:10800   */\n      dup3\n        /* \"#utility.yul\":10795:10804   */\n      mul\n        /* \"#utility.yul\":10824:10854   */\n      tag_269\n        /* \"#utility.yul\":10842:10853   */\n      dup2\n        /* \"#utility.yul\":10824:10854   */\n      tag_141\n      jump\t// in\n    tag_269:\n        /* \"#utility.yul\":10813:10854   */\n      swap2\n      pop\n        /* \"#utility.yul\":11003:11004   */\n      dup3\n        /* \"#utility.yul\":10994:11001   */\n      dup3\n        /* \"#utility.yul\":10990:11005   */\n      div\n        /* \"#utility.yul\":10987:10988   */\n      dup5\n        /* \"#utility.yul\":10984:11006   */\n      eq\n        /* \"#utility.yul\":10964:10965   */\n      dup4\n        /* \"#utility.yul\":10957:10966   */\n      iszero\n        /* \"#utility.yul\":10937:11020   */\n      or\n        /* \"#utility.yul\":10914:11053   */\n      tag_270\n      jumpi\n        /* \"#utility.yul\":11033:11051   */\n      tag_271\n      tag_156\n      jump\t// in\n    tag_271:\n        /* \"#utility.yul\":10914:11053   */\n    tag_270:\n        /* \"#utility.yul\":10698:11060   */\n      pop\n        /* \"#utility.yul\":10650:11060   */\n      swap3\n      swap2\n      pop\n      pop\n      jump\t// out\n        /* \"#utility.yul\":11066:11246   */\n    tag_159:\n        /* \"#utility.yul\":11114:11191   */\n      0x4e487b7100000000000000000000000000000000000000000000000000000000\n        /* \"#utility.yul\":11111:11112   */\n      0x00\n        /* \"#utility.yul\":11104:11192   */\n      mstore\n        /* \"#utility.yul\":11211:11215   */\n      0x12\n        /* \"#utility.yul\":11208:11209   */\n      0x04\n        /* \"#utility.yul\":11201:11216   */\n      mstore\n        /* \"#utility.yul\":11235:11239   */\n      0x24\n        /* \"#utility.yul\":11232:11233   */\n      0x00\n        /* \"#utility.yul\":11225:11240   */\n      revert\n        /* \"#utility.yul\":11252:11437   */\n    tag_128:\n        /* \"#utility.yul\":11292:11293   */\n      0x00\n        /* \"#utility.yul\":11309:11329   */\n      tag_274\n        /* \"#utility.yul\":11327:11328   */\n      dup3\n        /* \"#utility.yul\":11309:11329   */\n      tag_141\n      jump\t// in\n    tag_274:\n        /* \"#utility.yul\":11304:11329   */\n      swap2\n      pop\n        /* \"#utility.yul\":11343:11363   */\n      tag_275\n        /* \"#utility.yul\":11361:11362   */\n      dup4\n        /* \"#utility.yul\":11343:11363   */\n      tag_141\n      jump\t// in\n    tag_275:\n        /* \"#utility.yul\":11338:11363   */\n      swap3\n      pop\n        /* \"#utility.yul\":11382:11383   */\n      dup3\n        /* \"#utility.yul\":11372:11407   */\n      tag_276\n      jumpi\n        /* \"#utility.yul\":11387:11405   */\n      tag_277\n      tag_159\n      jump\t// in\n    tag_277:\n        /* \"#utility.yul\":11372:11407   */\n    tag_276:\n        /* \"#utility.yul\":11429:11430   */\n      dup3\n        /* \"#utility.yul\":11426:11427   */\n      dup3\n        /* \"#utility.yul\":11422:11431   */\n      div\n        /* \"#utility.yul\":11417:11431   */\n      swap1\n      pop\n        /* \"#utility.yul\":11252:11437   */\n      swap3\n      swap2\n      pop\n      pop\n      jump\t// out\n\n    auxdata: 0xa264697066735822122006d3b97d70f38279c02c119ab6b79b2630aaa34e9bf23764ed045307b97fa1d764736f6c63430008120033\n}\n",
				"bytecode": {
					"linkReferences": {},
					"object": "60806040523480156200001157600080fd5b5060405162001f2d38038062001f2d83398181016040528101906200003791906200034a565b856000908162000048919062000665565b5084600190816200005a919062000665565b50600a600260006101000a81548160ff021916908360ff160217905550600260009054906101000a900460ff1660ff16600a620000989190620008cf565b84620000a5919062000920565b600381905550600354600460003373ffffffffffffffffffffffffffffffffffffffff1673ffffffffffffffffffffffffffffffffffffffff168152602001908152602001600020819055508260068190555081600781905550806008819055503373ffffffffffffffffffffffffffffffffffffffff16600073ffffffffffffffffffffffffffffffffffffffff167fddf252ad1be2c89b69c2b068fc378daa952ba7f163c4a11628f55a4df523b3ef6003546040516200016891906200097c565b60405180910390a350505050505062000999565b6000604051905090565b600080fd5b600080fd5b600080fd5b600080fd5b6000601f19601f8301169050919050565b7f4e487b7100000000000000000000000000000000000000000000000000000000600052604160045260246000fd5b620001e5826200019a565b810181811067ffffffffffffffff82111715620002075762000206620001ab565b5b80604052505050565b60006200021c6200017c565b90506200022a8282620001da565b919050565b600067ffffffffffffffff8211156200024d576200024c620001ab565b5b62000258826200019a565b9050602081019050919050565b60005b838110156200028557808201518184015260208101905062000268565b60008484015250505050565b6000620002a8620002a2846200022f565b62000210565b905082815260208101848484011115620002c757620002c662000195565b5b620002d484828562000265565b509392505050565b600082601f830112620002f457620002f362000190565b5b81516200030684826020860162000291565b91505092915050565b6000819050919050565b62000324816200030f565b81146200033057600080fd5b50565b600081519050620003448162000319565b92915050565b60008060008060008060c087890312156200036a576200036962000186565b5b600087015167ffffffffffffffff8111156200038b576200038a6200018b565b5b6200039989828a01620002dc565b965050602087015167ffffffffffffffff811115620003bd57620003bc6200018b565b5b620003cb89828a01620002dc565b9550506040620003de89828a0162000333565b9450506060620003f189828a0162000333565b93505060806200040489828a0162000333565b92505060a06200041789828a0162000333565b9150509295509295509295565b600081519050919050565b7f4e487b7100000000000000000000000000000000000000000000000000000000600052602260045260246000fd5b600060028204905060018216806200047757607f821691505b6020821081036200048d576200048c6200042f565b5b50919050565b60008190508160005260206000209050919050565b60006020601f8301049050919050565b600082821b905092915050565b600060088302620004f77fffffffffffffffffffffffffffffffffffffffffffffffffffffffffffffffff82620004b8565b620005038683620004b8565b95508019841693508086168417925050509392505050565b6000819050919050565b600062000546620005406200053a846200030f565b6200051b565b6200030f565b9050919050565b6000819050919050565b620005628362000525565b6200057a62000571826200054d565b848454620004c5565b825550505050565b600090565b6200059162000582565b6200059e81848462000557565b505050565b5b81811015620005c657620005ba60008262000587565b600181019050620005a4565b5050565b601f8211156200061557620005df8162000493565b620005ea84620004a8565b81016020851015620005fa578190505b620006126200060985620004a8565b830182620005a3565b50505b505050565b600082821c905092915050565b60006200063a600019846008026200061a565b1980831691505092915050565b600062000655838362000627565b9150826002028217905092915050565b620006708262000424565b67ffffffffffffffff8111156200068c576200068b620001ab565b5b6200069882546200045e565b620006a5828285620005ca565b600060209050601f831160018114620006dd5760008415620006c8578287015190505b620006d4858262000647565b86555062000744565b601f198416620006ed8662000493565b60005b828110156200071757848901518255600182019150602085019450602081019050620006f0565b8683101562000737578489015162000733601f89168262000627565b8355505b6001600288020188555050505b505050505050565b7f4e487b7100000000000000000000000000000000000000000000000000000000600052601160045260246000fd5b60008160011c9050919050565b6000808291508390505b6001851115620007da57808604811115620007b257620007b16200074c565b5b6001851615620007c25780820291505b8081029050620007d2856200077b565b945062000792565b94509492505050565b600082620007f55760019050620008c8565b81620008055760009050620008c8565b81600181146200081e576002811462000829576200085f565b6001915050620008c8565b60ff8411156200083e576200083d6200074c565b5b8360020a9150848211156200085857620008576200074c565b5b50620008c8565b5060208310610133831016604e8410600b8410161715620008995782820a9050838111156200089357620008926200074c565b5b620008c8565b620008a8848484600162000788565b92509050818404811115620008c257620008c16200074c565b5b81810290505b9392505050565b6000620008dc826200030f565b9150620008e9836200030f565b9250620009187fffffffffffffffffffffffffffffffffffffffffffffffffffffffffffffffff8484620007e3565b905092915050565b60006200092d826200030f565b91506200093a836200030f565b92508282026200094a816200030f565b915082820484148315176200096457620009636200074c565b5b5092915050565b62000976816200030f565b82525050565b60006020820190506200099360008301846200096b565b92915050565b61158480620009a96000396000f3fe608060405234801561001057600080fd5b50600436106100b45760003560e01c806370a082311161007157806370a08231146101915780637d1e29b2146101c15780637df405a4146101df57806395d89b41146101fd578063a9059cbb1461021b578063dd62ed3e1461024b576100b4565b806306fdde03146100b9578063095ea7b3146100d757806323b872dd146101075780632b5335c314610137578063313ce567146101555780636fb1896c14610173575b600080fd5b6100c161027b565b6040516100ce9190610fb3565b60405180910390f35b6100f160048036038101906100ec919061106e565b610309565b6040516100fe91906110c9565b60405180910390f35b610121600480360381019061011c91906110e4565b6103fb565b60405161012e91906110c9565b60405180910390f35b61013f610836565b60405161014c91906110c9565b60405180910390f35b61015d610a18565b60405161016a9190611153565b60405180910390f35b61017b610a2b565b604051610188919061117d565b60405180910390f35b6101ab60048036038101906101a69190611198565b610a31565b6040516101b8919061117d565b60405180910390f35b6101c9610a7a565b6040516101d6919061117d565b60405180910390f35b6101e7610a80565b6040516101f4919061117d565b60405180910390f35b610205610a86565b6040516102129190610fb3565b60405180910390f35b6102356004803603810190610230919061106e565b610b14565b60405161024291906110c9565b60405180910390f35b610265600480360381019061026091906111c5565b610dfc565b604051610272919061117d565b60405180910390f35b6000805461028890611234565b80601f01602080910402602001604051908101604052809291908181526020018280546102b490611234565b80156103015780601f106102d657610100808354040283529160200191610301565b820191906000526020600020905b8154815290600101906020018083116102e457829003601f168201915b505050505081565b600081600560003373ffffffffffffffffffffffffffffffffffffffff1673ffffffffffffffffffffffffffffffffffffffff16815260200190815260200160002060008573ffffffffffffffffffffffffffffffffffffffff1673ffffffffffffffffffffffffffffffffffffffff168152602001908152602001600020819055508273ffffffffffffffffffffffffffffffffffffffff163373ffffffffffffffffffffffffffffffffffffffff167f8c5be1e5ebec7d5bd14f71427d1e84f3dd0314c0f7b2291e5b200ac8c7c3b925846040516103e9919061117d565b60405180910390a36001905092915050565b60008073ffffffffffffffffffffffffffffffffffffffff168373ffffffffffffffffffffffffffffffffffffffff160361046b576040517f08c379a0000000000000000000000000000000000000000000000000000000008152600401610462906112b1565b60405180910390fd5b600460008573ffffffffffffffffffffffffffffffffffffffff1673ffffffffffffffffffffffffffffffffffffffff168152602001908152602001600020548211156104ed576040517f08c379a00000000000000000000000000000000000000000000000000000000081526004016104e49061131d565b60405180910390fd5b600560008573ffffffffffffffffffffffffffffffffffffffff1673ffffffffffffffffffffffffffffffffffffffff16815260200190815260200160002060003373ffffffffffffffffffffffffffffffffffffffff1673ffffffffffffffffffffffffffffffffffffffff168152602001908152602001600020548211156105ac576040517f08c379a00000000000000000000000000000000000000000000000000000000081526004016105a390611389565b60405180910390fd5b60006105b88386610e83565b9050600081846105c891906113d8565b905083600460008873ffffffffffffffffffffffffffffffffffffffff1673ffffffffffffffffffffffffffffffffffffffff168152602001908152602001600020600082825461061991906113d8565b9250508190555080600460008773ffffffffffffffffffffffffffffffffffffffff1673ffffffffffffffffffffffffffffffffffffffff168152602001908152602001600020600082825461066f919061140c565b9250508190555081600460003073ffffffffffffffffffffffffffffffffffffffff1673ffffffffffffffffffffffffffffffffffffffff16815260200190815260200160002060008282546106c5919061140c565b9250508190555083600560008873ffffffffffffffffffffffffffffffffffffffff1673ffffffffffffffffffffffffffffffffffffffff16815260200190815260200160002060003373ffffffffffffffffffffffffffffffffffffffff1673ffffffffffffffffffffffffffffffffffffffff168152602001908152602001600020600082825461075891906113d8565b925050819055508473ffffffffffffffffffffffffffffffffffffffff168673ffffffffffffffffffffffffffffffffffffffff167fddf252ad1be2c89b69c2b068fc378daa952ba7f163c4a11628f55a4df523b3ef836040516107bc919061117d565b60405180910390a33073ffffffffffffffffffffffffffffffffffffffff168673ffffffffffffffffffffffffffffffffffffffff167fddf252ad1be2c89b69c2b068fc378daa952ba7f163c4a11628f55a4df523b3ef84604051610821919061117d565b60405180910390a36001925050509392505050565b600080600460003073ffffffffffffffffffffffffffffffffffffffff1673ffffffffffffffffffffffffffffffffffffffff16815260200190815260200160002054116108b9576040517f08c379a00000000000000000000000000000000000000000000000000000000081526004016108b09061148c565b60405180910390fd5b6000600460003073ffffffffffffffffffffffffffffffffffffffff1673ffffffffffffffffffffffffffffffffffffffff16815260200190815260200160002054905060006008548261090d91906114ac565b90506000600460003073ffffffffffffffffffffffffffffffffffffffff1673ffffffffffffffffffffffffffffffffffffffff1681526020019081526020016000208190555080600460003373ffffffffffffffffffffffffffffffffffffffff1673ffffffffffffffffffffffffffffffffffffffff16815260200190815260200160002060008282546109a3919061140c565b925050819055503373ffffffffffffffffffffffffffffffffffffffff163073ffffffffffffffffffffffffffffffffffffffff167fddf252ad1be2c89b69c2b068fc378daa952ba7f163c4a11628f55a4df523b3ef83604051610a07919061117d565b60405180910390a360019250505090565b600260009054906101000a900460ff1681565b60075481565b6000600460008373ffffffffffffffffffffffffffffffffffffffff1673ffffffffffffffffffffffffffffffffffffffff168152602001908152602001600020549050919050565b60085481565b60065481565b60018054610a9390611234565b80601f0160208091040260200160405190810160405280929190818152602001828054610abf90611234565b8015610b0c5780601f10610ae157610100808354040283529160200191610b0c565b820191906000526020600020905b815481529060010190602001808311610aef57829003601f168201915b505050505081565b60008073ffffffffffffffffffffffffffffffffffffffff168373ffffffffffffffffffffffffffffffffffffffff1603610b84576040517f08c379a0000000000000000000000000000000000000000000000000000000008152600401610b7b906112b1565b60405180910390fd5b600460003373ffffffffffffffffffffffffffffffffffffffff1673ffffffffffffffffffffffffffffffffffffffff16815260200190815260200160002054821115610c06576040517f08c379a0000000000000000000000000000000000000000000000000000000008152600401610bfd9061131d565b60405180910390fd5b6000610c128333610e83565b905060008184610c2291906113d8565b905083600460003373ffffffffffffffffffffffffffffffffffffffff1673ffffffffffffffffffffffffffffffffffffffff1681526020019081526020016000206000828254610c7391906113d8565b9250508190555080600460008773ffffffffffffffffffffffffffffffffffffffff1673ffffffffffffffffffffffffffffffffffffffff1681526020019081526020016000206000828254610cc9919061140c565b9250508190555081600460003073ffffffffffffffffffffffffffffffffffffffff1673ffffffffffffffffffffffffffffffffffffffff1681526020019081526020016000206000828254610d1f919061140c565b925050819055508473ffffffffffffffffffffffffffffffffffffffff163373ffffffffffffffffffffffffffffffffffffffff167fddf252ad1be2c89b69c2b068fc378daa952ba7f163c4a11628f55a4df523b3ef83604051610d83919061117d565b60405180910390a33073ffffffffffffffffffffffffffffffffffffffff163373ffffffffffffffffffffffffffffffffffffffff167fddf252ad1be2c89b69c2b068fc378daa952ba7f163c4a11628f55a4df523b3ef84604051610de8919061117d565b60405180910390a360019250505092915050565b6000600560008473ffffffffffffffffffffffffffffffffffffffff1673ffffffffffffffffffffffffffffffffffffffff16815260200190815260200160002060008373ffffffffffffffffffffffffffffffffffffffff1673ffffffffffffffffffffffffffffffffffffffff16815260200190815260200160002054905092915050565b6000803073ffffffffffffffffffffffffffffffffffffffff168373ffffffffffffffffffffffffffffffffffffffff1614610efd578273ffffffffffffffffffffffffffffffffffffffff163373ffffffffffffffffffffffffffffffffffffffff1614610ef457600754610ef8565b6006545b610f00565b60005b905060648185610f1091906114ac565b610f1a919061151d565b91505092915050565b600081519050919050565b600082825260208201905092915050565b60005b83811015610f5d578082015181840152602081019050610f42565b60008484015250505050565b6000601f19601f8301169050919050565b6000610f8582610f23565b610f8f8185610f2e565b9350610f9f818560208601610f3f565b610fa881610f69565b840191505092915050565b60006020820190508181036000830152610fcd8184610f7a565b905092915050565b600080fd5b600073ffffffffffffffffffffffffffffffffffffffff82169050919050565b600061100582610fda565b9050919050565b61101581610ffa565b811461102057600080fd5b50565b6000813590506110328161100c565b92915050565b6000819050919050565b61104b81611038565b811461105657600080fd5b50565b60008135905061106881611042565b92915050565b6000806040838503121561108557611084610fd5565b5b600061109385828601611023565b92505060206110a485828601611059565b9150509250929050565b60008115159050919050565b6110c3816110ae565b82525050565b60006020820190506110de60008301846110ba565b92915050565b6000806000606084860312156110fd576110fc610fd5565b5b600061110b86828701611023565b935050602061111c86828701611023565b925050604061112d86828701611059565b9150509250925092565b600060ff82169050919050565b61114d81611137565b82525050565b60006020820190506111686000830184611144565b92915050565b61117781611038565b82525050565b6000602082019050611192600083018461116e565b92915050565b6000602082840312156111ae576111ad610fd5565b5b60006111bc84828501611023565b91505092915050565b600080604083850312156111dc576111db610fd5565b5b60006111ea85828601611023565b92505060206111fb85828601611023565b9150509250929050565b7f4e487b7100000000000000000000000000000000000000000000000000000000600052602260045260246000fd5b6000600282049050600182168061124c57607f821691505b60208210810361125f5761125e611205565b5b50919050565b7f496e76616c696420616464726573730000000000000000000000000000000000600082015250565b600061129b600f83610f2e565b91506112a682611265565b602082019050919050565b600060208201905081810360008301526112ca8161128e565b9050919050565b7f496e73756666696369656e742062616c616e6365000000000000000000000000600082015250565b6000611307601483610f2e565b9150611312826112d1565b602082019050919050565b60006020820190508181036000830152611336816112fa565b9050919050565b7f496e73756666696369656e7420616c6c6f77616e636500000000000000000000600082015250565b6000611373601683610f2e565b915061137e8261133d565b602082019050919050565b600060208201905081810360008301526113a281611366565b9050919050565b7f4e487b7100000000000000000000000000000000000000000000000000000000600052601160045260246000fd5b60006113e382611038565b91506113ee83611038565b9250828203905081811115611406576114056113a9565b5b92915050565b600061141782611038565b915061142283611038565b925082820190508082111561143a576114396113a9565b5b92915050565b7f4e6f206665657320746f20636f6e766572740000000000000000000000000000600082015250565b6000611476601283610f2e565b915061148182611440565b602082019050919050565b600060208201905081810360008301526114a581611469565b9050919050565b60006114b782611038565b91506114c283611038565b92508282026114d081611038565b915082820484148315176114e7576114e66113a9565b5b5092915050565b7f4e487b7100000000000000000000000000000000000000000000000000000000600052601260045260246000fd5b600061152882611038565b915061153383611038565b925082611543576115426114ee565b5b82820490509291505056fea264697066735822122006d3b97d70f38279c02c119ab6b79b2630aaa34e9bf23764ed045307b97fa1d764736f6c63430008120033",
					"opcodes": "PUSH1 0x80 PUSH1 0x40 MSTORE CALLVALUE DUP1 ISZERO PUSH3 0x11 JUMPI PUSH1 0x0 DUP1 REVERT JUMPDEST POP PUSH1 0x40 MLOAD PUSH3 0x1F2D CODESIZE SUB DUP1 PUSH3 0x1F2D DUP4 CODECOPY DUP2 DUP2 ADD PUSH1 0x40 MSTORE DUP2 ADD SWAP1 PUSH3 0x37 SWAP2 SWAP1 PUSH3 0x34A JUMP JUMPDEST DUP6 PUSH1 0x0 SWAP1 DUP2 PUSH3 0x48 SWAP2 SWAP1 PUSH3 0x665 JUMP JUMPDEST POP DUP5 PUSH1 0x1 SWAP1 DUP2 PUSH3 0x5A SWAP2 SWAP1 PUSH3 0x665 JUMP JUMPDEST POP PUSH1 0xA PUSH1 0x2 PUSH1 0x0 PUSH2 0x100 EXP DUP2 SLOAD DUP2 PUSH1 0xFF MUL NOT AND SWAP1 DUP4 PUSH1 0xFF AND MUL OR SWAP1 SSTORE POP PUSH1 0x2 PUSH1 0x0 SWAP1 SLOAD SWAP1 PUSH2 0x100 EXP SWAP1 DIV PUSH1 0xFF AND PUSH1 0xFF AND PUSH1 0xA PUSH3 0x98 SWAP2 SWAP1 PUSH3 0x8CF JUMP JUMPDEST DUP5 PUSH3 0xA5 SWAP2 SWAP1 PUSH3 0x920 JUMP JUMPDEST PUSH1 0x3 DUP2 SWAP1 SSTORE POP PUSH1 0x3 SLOAD PUSH1 0x4 PUSH1 0x0 CALLER PUSH20 0xFFFFFFFFFFFFFFFFFFFFFFFFFFFFFFFFFFFFFFFF AND PUSH20 0xFFFFFFFFFFFFFFFFFFFFFFFFFFFFFFFFFFFFFFFF AND DUP2 MSTORE PUSH1 0x20 ADD SWAP1 DUP2 MSTORE PUSH1 0x20 ADD PUSH1 0x0 KECCAK256 DUP2 SWAP1 SSTORE POP DUP3 PUSH1 0x6 DUP2 SWAP1 SSTORE POP DUP2 PUSH1 0x7 DUP2 SWAP1 SSTORE POP DUP1 PUSH1 0x8 DUP2 SWAP1 SSTORE POP CALLER PUSH20 0xFFFFFFFFFFFFFFFFFFFFFFFFFFFFFFFFFFFFFFFF AND PUSH1 0x0 PUSH20 0xFFFFFFFFFFFFFFFFFFFFFFFFFFFFFFFFFFFFFFFF AND PUSH32 0xDDF252AD1BE2C89B69C2B068FC378DAA952BA7F163C4A11628F55A4DF523B3EF PUSH1 0x3 SLOAD PUSH1 0x40 MLOAD PUSH3 0x168 SWAP2 SWAP1 PUSH3 0x97C JUMP JUMPDEST PUSH1 0x40 MLOAD DUP1 SWAP2 SUB SWAP1 LOG3 POP POP POP POP POP POP PUSH3 0x999 JUMP JUMPDEST PUSH1 0x0 PUSH1 0x40 MLOAD SWAP1 POP SWAP1 JUMP JUMPDEST PUSH1 0x0 DUP1 REVERT JUMPDEST PUSH1 0x0 DUP1 REVERT JUMPDEST PUSH1 0x0 DUP1 REVERT JUMPDEST PUSH1 0x0 DUP1 REVERT JUMPDEST PUSH1 0x0 PUSH1 0x1F NOT PUSH1 0x1F DUP4 ADD AND SWAP1 POP SWAP2 SWAP1 POP JUMP JUMPDEST PUSH32 0x4E487B7100000000000000000000000000000000000000000000000000000000 PUSH1 0x0 MSTORE PUSH1 0x41 PUSH1 0x4 MSTORE PUSH1 0x24 PUSH1 0x0 REVERT JUMPDEST PUSH3 0x1E5 DUP3 PUSH3 0x19A JUMP JUMPDEST DUP2 ADD DUP2 DUP2 LT PUSH8 0xFFFFFFFFFFFFFFFF DUP3 GT OR ISZERO PUSH3 0x207 JUMPI PUSH3 0x206 PUSH3 0x1AB JUMP JUMPDEST JUMPDEST DUP1 PUSH1 0x40 MSTORE POP POP POP JUMP JUMPDEST PUSH1 0x0 PUSH3 0x21C PUSH3 0x17C JUMP JUMPDEST SWAP1 POP PUSH3 0x22A DUP3 DUP3 PUSH3 0x1DA JUMP JUMPDEST SWAP2 SWAP1 POP JUMP JUMPDEST PUSH1 0x0 PUSH8 0xFFFFFFFFFFFFFFFF DUP3 GT ISZERO PUSH3 0x24D JUMPI PUSH3 0x24C PUSH3 0x1AB JUMP JUMPDEST JUMPDEST PUSH3 0x258 DUP3 PUSH3 0x19A JUMP JUMPDEST SWAP1 POP PUSH1 0x20 DUP2 ADD SWAP1 POP SWAP2 SWAP1 POP JUMP JUMPDEST PUSH1 0x0 JUMPDEST DUP4 DUP2 LT ISZERO PUSH3 0x285 JUMPI DUP1 DUP3 ADD MLOAD DUP2 DUP5 ADD MSTORE PUSH1 0x20 DUP2 ADD SWAP1 POP PUSH3 0x268 JUMP JUMPDEST PUSH1 0x0 DUP5 DUP5 ADD MSTORE POP POP POP POP JUMP JUMPDEST PUSH1 0x0 PUSH3 0x2A8 PUSH3 0x2A2 DUP5 PUSH3 0x22F JUMP JUMPDEST PUSH3 0x210 JUMP JUMPDEST SWAP1 POP DUP3 DUP2 MSTORE PUSH1 0x20 DUP2 ADD DUP5 DUP5 DUP5 ADD GT ISZERO PUSH3 0x2C7 JUMPI PUSH3 0x2C6 PUSH3 0x195 JUMP JUMPDEST JUMPDEST PUSH3 0x2D4 DUP5 DUP3 DUP6 PUSH3 0x265 JUMP JUMPDEST POP SWAP4 SWAP3 POP POP POP JUMP JUMPDEST PUSH1 0x0 DUP3 PUSH1 0x1F DUP4 ADD SLT PUSH3 0x2F4 JUMPI PUSH3 0x2F3 PUSH3 0x190 JUMP JUMPDEST JUMPDEST DUP2 MLOAD PUSH3 0x306 DUP5 DUP3 PUSH1 0x20 DUP7 ADD PUSH3 0x291 JUMP JUMPDEST SWAP2 POP POP SWAP3 SWAP2 POP POP JUMP JUMPDEST PUSH1 0x0 DUP2 SWAP1 POP SWAP2 SWAP1 POP JUMP JUMPDEST PUSH3 0x324 DUP2 PUSH3 0x30F JUMP JUMPDEST DUP2 EQ PUSH3 0x330 JUMPI PUSH1 0x0 DUP1 REVERT JUMPDEST POP JUMP JUMPDEST PUSH1 0x0 DUP2 MLOAD SWAP1 POP PUSH3 0x344 DUP2 PUSH3 0x319 JUMP JUMPDEST SWAP3 SWAP2 POP POP JUMP JUMPDEST PUSH1 0x0 DUP1 PUSH1 0x0 DUP1 PUSH1 0x0 DUP1 PUSH1 0xC0 DUP8 DUP10 SUB SLT ISZERO PUSH3 0x36A JUMPI PUSH3 0x369 PUSH3 0x186 JUMP JUMPDEST JUMPDEST PUSH1 0x0 DUP8 ADD MLOAD PUSH8 0xFFFFFFFFFFFFFFFF DUP2 GT ISZERO PUSH3 0x38B JUMPI PUSH3 0x38A PUSH3 0x18B JUMP JUMPDEST JUMPDEST PUSH3 0x399 DUP10 DUP3 DUP11 ADD PUSH3 0x2DC JUMP JUMPDEST SWAP7 POP POP PUSH1 0x20 DUP8 ADD MLOAD PUSH8 0xFFFFFFFFFFFFFFFF DUP2 GT ISZERO PUSH3 0x3BD JUMPI PUSH3 0x3BC PUSH3 0x18B JUMP JUMPDEST JUMPDEST PUSH3 0x3CB DUP10 DUP3 DUP11 ADD PUSH3 0x2DC JUMP JUMPDEST SWAP6 POP POP PUSH1 0x40 PUSH3 0x3DE DUP10 DUP3 DUP11 ADD PUSH3 0x333 JUMP JUMPDEST SWAP5 POP POP PUSH1 0x60 PUSH3 0x3F1 DUP10 DUP3 DUP11 ADD PUSH3 0x333 JUMP JUMPDEST SWAP4 POP POP PUSH1 0x80 PUSH3 0x404 DUP10 DUP3 DUP11 ADD PUSH3 0x333 JUMP JUMPDEST SWAP3 POP POP PUSH1 0xA0 PUSH3 0x417 DUP10 DUP3 DUP11 ADD PUSH3 0x333 JUMP JUMPDEST SWAP2 POP POP SWAP3 SWAP6 POP SWAP3 SWAP6 POP SWAP3 SWAP6 JUMP JUMPDEST PUSH1 0x0 DUP2 MLOAD SWAP1 POP SWAP2 SWAP1 POP JUMP JUMPDEST PUSH32 0x4E487B7100000000000000000000000000000000000000000000000000000000 PUSH1 0x0 MSTORE PUSH1 0x22 PUSH1 0x4 MSTORE PUSH1 0x24 PUSH1 0x0 REVERT JUMPDEST PUSH1 0x0 PUSH1 0x2 DUP3 DIV SWAP1 POP PUSH1 0x1 DUP3 AND DUP1 PUSH3 0x477 JUMPI PUSH1 0x7F DUP3 AND SWAP2 POP JUMPDEST PUSH1 0x20 DUP3 LT DUP2 SUB PUSH3 0x48D JUMPI PUSH3 0x48C PUSH3 0x42F JUMP JUMPDEST JUMPDEST POP SWAP2 SWAP1 POP JUMP JUMPDEST PUSH1 0x0 DUP2 SWAP1 POP DUP2 PUSH1 0x0 MSTORE PUSH1 0x20 PUSH1 0x0 KECCAK256 SWAP1 POP SWAP2 SWAP1 POP JUMP JUMPDEST PUSH1 0x0 PUSH1 0x20 PUSH1 0x1F DUP4 ADD DIV SWAP1 POP SWAP2 SWAP1 POP JUMP JUMPDEST PUSH1 0x0 DUP3 DUP3 SHL SWAP1 POP SWAP3 SWAP2 POP POP JUMP JUMPDEST PUSH1 0x0 PUSH1 0x8 DUP4 MUL PUSH3 0x4F7 PUSH32 0xFFFFFFFFFFFFFFFFFFFFFFFFFFFFFFFFFFFFFFFFFFFFFFFFFFFFFFFFFFFFFFFF DUP3 PUSH3 0x4B8 JUMP JUMPDEST PUSH3 0x503 DUP7 DUP4 PUSH3 0x4B8 JUMP JUMPDEST SWAP6 POP DUP1 NOT DUP5 AND SWAP4 POP DUP1 DUP7 AND DUP5 OR SWAP3 POP POP POP SWAP4 SWAP3 POP POP POP JUMP JUMPDEST PUSH1 0x0 DUP2 SWAP1 POP SWAP2 SWAP1 POP JUMP JUMPDEST PUSH1 0x0 PUSH3 0x546 PUSH3 0x540 PUSH3 0x53A DUP5 PUSH3 0x30F JUMP JUMPDEST PUSH3 0x51B JUMP JUMPDEST PUSH3 0x30F JUMP JUMPDEST SWAP1 POP SWAP2 SWAP1 POP JUMP JUMPDEST PUSH1 0x0 DUP2 SWAP1 POP SWAP2 SWAP1 POP JUMP JUMPDEST PUSH3 0x562 DUP4 PUSH3 0x525 JUMP JUMPDEST PUSH3 0x57A PUSH3 0x571 DUP3 PUSH3 0x54D JUMP JUMPDEST DUP5 DUP5 SLOAD PUSH3 0x4C5 JUMP JUMPDEST DUP3 SSTORE POP POP POP POP JUMP JUMPDEST PUSH1 0x0 SWAP1 JUMP JUMPDEST PUSH3 0x591 PUSH3 0x582 JUMP JUMPDEST PUSH3 0x59E DUP2 DUP5 DUP5 PUSH3 0x557 JUMP JUMPDEST POP POP POP JUMP JUMPDEST JUMPDEST DUP2 DUP2 LT ISZERO PUSH3 0x5C6 JUMPI PUSH3 0x5BA PUSH1 0x0 DUP3 PUSH3 0x587 JUMP JUMPDEST PUSH1 0x1 DUP2 ADD SWAP1 POP PUSH3 0x5A4 JUMP JUMPDEST POP POP JUMP JUMPDEST PUSH1 0x1F DUP3 GT ISZERO PUSH3 0x615 JUMPI PUSH3 0x5DF DUP2 PUSH3 0x493 JUMP JUMPDEST PUSH3 0x5EA DUP5 PUSH3 0x4A8 JUMP JUMPDEST DUP2 ADD PUSH1 0x20 DUP6 LT ISZERO PUSH3 0x5FA JUMPI DUP2 SWAP1 POP JUMPDEST PUSH3 0x612 PUSH3 0x609 DUP6 PUSH3 0x4A8 JUMP JUMPDEST DUP4 ADD DUP3 PUSH3 0x5A3 JUMP JUMPDEST POP POP JUMPDEST POP POP POP JUMP JUMPDEST PUSH1 0x0 DUP3 DUP3 SHR SWAP1 POP SWAP3 SWAP2 POP POP JUMP JUMPDEST PUSH1 0x0 PUSH3 0x63A PUSH1 0x0 NOT DUP5 PUSH1 0x8 MUL PUSH3 0x61A JUMP JUMPDEST NOT DUP1 DUP4 AND SWAP2 POP POP SWAP3 SWAP2 POP POP JUMP JUMPDEST PUSH1 0x0 PUSH3 0x655 DUP4 DUP4 PUSH3 0x627 JUMP JUMPDEST SWAP2 POP DUP3 PUSH1 0x2 MUL DUP3 OR SWAP1 POP SWAP3 SWAP2 POP POP JUMP JUMPDEST PUSH3 0x670 DUP3 PUSH3 0x424 JUMP JUMPDEST PUSH8 0xFFFFFFFFFFFFFFFF DUP2 GT ISZERO PUSH3 0x68C JUMPI PUSH3 0x68B PUSH3 0x1AB JUMP JUMPDEST JUMPDEST PUSH3 0x698 DUP3 SLOAD PUSH3 0x45E JUMP JUMPDEST PUSH3 0x6A5 DUP3 DUP3 DUP6 PUSH3 0x5CA JUMP JUMPDEST PUSH1 0x0 PUSH1 0x20 SWAP1 POP PUSH1 0x1F DUP4 GT PUSH1 0x1 DUP2 EQ PUSH3 0x6DD JUMPI PUSH1 0x0 DUP5 ISZERO PUSH3 0x6C8 JUMPI DUP3 DUP8 ADD MLOAD SWAP1 POP JUMPDEST PUSH3 0x6D4 DUP6 DUP3 PUSH3 0x647 JUMP JUMPDEST DUP7 SSTORE POP PUSH3 0x744 JUMP JUMPDEST PUSH1 0x1F NOT DUP5 AND PUSH3 0x6ED DUP7 PUSH3 0x493 JUMP JUMPDEST PUSH1 0x0 JUMPDEST DUP3 DUP2 LT ISZERO PUSH3 0x717 JUMPI DUP5 DUP10 ADD MLOAD DUP3 SSTORE PUSH1 0x1 DUP3 ADD SWAP2 POP PUSH1 0x20 DUP6 ADD SWAP5 POP PUSH1 0x20 DUP2 ADD SWAP1 POP PUSH3 0x6F0 JUMP JUMPDEST DUP7 DUP4 LT ISZERO PUSH3 0x737 JUMPI DUP5 DUP10 ADD MLOAD PUSH3 0x733 PUSH1 0x1F DUP10 AND DUP3 PUSH3 0x627 JUMP JUMPDEST DUP4 SSTORE POP JUMPDEST PUSH1 0x1 PUSH1 0x2 DUP9 MUL ADD DUP9 SSTORE POP POP POP JUMPDEST POP POP POP POP POP POP JUMP JUMPDEST PUSH32 0x4E487B7100000000000000000000000000000000000000000000000000000000 PUSH1 0x0 MSTORE PUSH1 0x11 PUSH1 0x4 MSTORE PUSH1 0x24 PUSH1 0x0 REVERT JUMPDEST PUSH1 0x0 DUP2 PUSH1 0x1 SHR SWAP1 POP SWAP2 SWAP1 POP JUMP JUMPDEST PUSH1 0x0 DUP1 DUP3 SWAP2 POP DUP4 SWAP1 POP JUMPDEST PUSH1 0x1 DUP6 GT ISZERO PUSH3 0x7DA JUMPI DUP1 DUP7 DIV DUP2 GT ISZERO PUSH3 0x7B2 JUMPI PUSH3 0x7B1 PUSH3 0x74C JUMP JUMPDEST JUMPDEST PUSH1 0x1 DUP6 AND ISZERO PUSH3 0x7C2 JUMPI DUP1 DUP3 MUL SWAP2 POP JUMPDEST DUP1 DUP2 MUL SWAP1 POP PUSH3 0x7D2 DUP6 PUSH3 0x77B JUMP JUMPDEST SWAP5 POP PUSH3 0x792 JUMP JUMPDEST SWAP5 POP SWAP5 SWAP3 POP POP POP JUMP JUMPDEST PUSH1 0x0 DUP3 PUSH3 0x7F5 JUMPI PUSH1 0x1 SWAP1 POP PUSH3 0x8C8 JUMP JUMPDEST DUP2 PUSH3 0x805 JUMPI PUSH1 0x0 SWAP1 POP PUSH3 0x8C8 JUMP JUMPDEST DUP2 PUSH1 0x1 DUP2 EQ PUSH3 0x81E JUMPI PUSH1 0x2 DUP2 EQ PUSH3 0x829 JUMPI PUSH3 0x85F JUMP JUMPDEST PUSH1 0x1 SWAP2 POP POP PUSH3 0x8C8 JUMP JUMPDEST PUSH1 0xFF DUP5 GT ISZERO PUSH3 0x83E JUMPI PUSH3 0x83D PUSH3 0x74C JUMP JUMPDEST JUMPDEST DUP4 PUSH1 0x2 EXP SWAP2 POP DUP5 DUP3 GT ISZERO PUSH3 0x858 JUMPI PUSH3 0x857 PUSH3 0x74C JUMP JUMPDEST JUMPDEST POP PUSH3 0x8C8 JUMP JUMPDEST POP PUSH1 0x20 DUP4 LT PUSH2 0x133 DUP4 LT AND PUSH1 0x4E DUP5 LT PUSH1 0xB DUP5 LT AND OR ISZERO PUSH3 0x899 JUMPI DUP3 DUP3 EXP SWAP1 POP DUP4 DUP2 GT ISZERO PUSH3 0x893 JUMPI PUSH3 0x892 PUSH3 0x74C JUMP JUMPDEST JUMPDEST PUSH3 0x8C8 JUMP JUMPDEST PUSH3 0x8A8 DUP5 DUP5 DUP5 PUSH1 0x1 PUSH3 0x788 JUMP JUMPDEST SWAP3 POP SWAP1 POP DUP2 DUP5 DIV DUP2 GT ISZERO PUSH3 0x8C2 JUMPI PUSH3 0x8C1 PUSH3 0x74C JUMP JUMPDEST JUMPDEST DUP2 DUP2 MUL SWAP1 POP JUMPDEST SWAP4 SWAP3 POP POP POP JUMP JUMPDEST PUSH1 0x0 PUSH3 0x8DC DUP3 PUSH3 0x30F JUMP JUMPDEST SWAP2 POP PUSH3 0x8E9 DUP4 PUSH3 0x30F JUMP JUMPDEST SWAP3 POP PUSH3 0x918 PUSH32 0xFFFFFFFFFFFFFFFFFFFFFFFFFFFFFFFFFFFFFFFFFFFFFFFFFFFFFFFFFFFFFFFF DUP5 DUP5 PUSH3 0x7E3 JUMP JUMPDEST SWAP1 POP SWAP3 SWAP2 POP POP JUMP JUMPDEST PUSH1 0x0 PUSH3 0x92D DUP3 PUSH3 0x30F JUMP JUMPDEST SWAP2 POP PUSH3 0x93A DUP4 PUSH3 0x30F JUMP JUMPDEST SWAP3 POP DUP3 DUP3 MUL PUSH3 0x94A DUP2 PUSH3 0x30F JUMP JUMPDEST SWAP2 POP DUP3 DUP3 DIV DUP5 EQ DUP4 ISZERO OR PUSH3 0x964 JUMPI PUSH3 0x963 PUSH3 0x74C JUMP JUMPDEST JUMPDEST POP SWAP3 SWAP2 POP POP JUMP JUMPDEST PUSH3 0x976 DUP2 PUSH3 0x30F JUMP JUMPDEST DUP3 MSTORE POP POP JUMP JUMPDEST PUSH1 0x0 PUSH1 0x20 DUP3 ADD SWAP1 POP PUSH3 0x993 PUSH1 0x0 DUP4 ADD DUP5 PUSH3 0x96B JUMP JUMPDEST SWAP3 SWAP2 POP POP JUMP JUMPDEST PUSH2 0x1584 DUP1 PUSH3 0x9A9 PUSH1 0x0 CODECOPY PUSH1 0x0 RETURN INVALID PUSH1 0x80 PUSH1 0x40 MSTORE CALLVALUE DUP1 ISZERO PUSH2 0x10 JUMPI PUSH1 0x0 DUP1 REVERT JUMPDEST POP PUSH1 0x4 CALLDATASIZE LT PUSH2 0xB4 JUMPI PUSH1 0x0 CALLDATALOAD PUSH1 0xE0 SHR DUP1 PUSH4 0x70A08231 GT PUSH2 0x71 JUMPI DUP1 PUSH4 0x70A08231 EQ PUSH2 0x191 JUMPI DUP1 PUSH4 0x7D1E29B2 EQ PUSH2 0x1C1 JUMPI DUP1 PUSH4 0x7DF405A4 EQ PUSH2 0x1DF JUMPI DUP1 PUSH4 0x95D89B41 EQ PUSH2 0x1FD JUMPI DUP1 PUSH4 0xA9059CBB EQ PUSH2 0x21B JUMPI DUP1 PUSH4 0xDD62ED3E EQ PUSH2 0x24B JUMPI PUSH2 0xB4 JUMP JUMPDEST DUP1 PUSH4 0x6FDDE03 EQ PUSH2 0xB9 JUMPI DUP1 PUSH4 0x95EA7B3 EQ PUSH2 0xD7 JUMPI DUP1 PUSH4 0x23B872DD EQ PUSH2 0x107 JUMPI DUP1 PUSH4 0x2B5335C3 EQ PUSH2 0x137 JUMPI DUP1 PUSH4 0x313CE567 EQ PUSH2 0x155 JUMPI DUP1 PUSH4 0x6FB1896C EQ PUSH2 0x173 JUMPI JUMPDEST PUSH1 0x0 DUP1 REVERT JUMPDEST PUSH2 0xC1 PUSH2 0x27B JUMP JUMPDEST PUSH1 0x40 MLOAD PUSH2 0xCE SWAP2 SWAP1 PUSH2 0xFB3 JUMP JUMPDEST PUSH1 0x40 MLOAD DUP1 SWAP2 SUB SWAP1 RETURN JUMPDEST PUSH2 0xF1 PUSH1 0x4 DUP1 CALLDATASIZE SUB DUP2 ADD SWAP1 PUSH2 0xEC SWAP2 SWAP1 PUSH2 0x106E JUMP JUMPDEST PUSH2 0x309 JUMP JUMPDEST PUSH1 0x40 MLOAD PUSH2 0xFE SWAP2 SWAP1 PUSH2 0x10C9 JUMP JUMPDEST PUSH1 0x40 MLOAD DUP1 SWAP2 SUB SWAP1 RETURN JUMPDEST PUSH2 0x121 PUSH1 0x4 DUP1 CALLDATASIZE SUB DUP2 ADD SWAP1 PUSH2 0x11C SWAP2 SWAP1 PUSH2 0x10E4 JUMP JUMPDEST PUSH2 0x3FB JUMP JUMPDEST PUSH1 0x40 MLOAD PUSH2 0x12E SWAP2 SWAP1 PUSH2 0x10C9 JUMP JUMPDEST PUSH1 0x40 MLOAD DUP1 SWAP2 SUB SWAP1 RETURN JUMPDEST PUSH2 0x13F PUSH2 0x836 JUMP JUMPDEST PUSH1 0x40 MLOAD PUSH2 0x14C SWAP2 SWAP1 PUSH2 0x10C9 JUMP JUMPDEST PUSH1 0x40 MLOAD DUP1 SWAP2 SUB SWAP1 RETURN JUMPDEST PUSH2 0x15D PUSH2 0xA18 JUMP JUMPDEST PUSH1 0x40 MLOAD PUSH2 0x16A SWAP2 SWAP1 PUSH2 0x1153 JUMP JUMPDEST PUSH1 0x40 MLOAD DUP1 SWAP2 SUB SWAP1 RETURN JUMPDEST PUSH2 0x17B PUSH2 0xA2B JUMP JUMPDEST PUSH1 0x40 MLOAD PUSH2 0x188 SWAP2 SWAP1 PUSH2 0x117D JUMP JUMPDEST PUSH1 0x40 MLOAD DUP1 SWAP2 SUB SWAP1 RETURN JUMPDEST PUSH2 0x1AB PUSH1 0x4 DUP1 CALLDATASIZE SUB DUP2 ADD SWAP1 PUSH2 0x1A6 SWAP2 SWAP1 PUSH2 0x1198 JUMP JUMPDEST PUSH2 0xA31 JUMP JUMPDEST PUSH1 0x40 MLOAD PUSH2 0x1B8 SWAP2 SWAP1 PUSH2 0x117D JUMP JUMPDEST PUSH1 0x40 MLOAD DUP1 SWAP2 SUB SWAP1 RETURN JUMPDEST PUSH2 0x1C9 PUSH2 0xA7A JUMP JUMPDEST PUSH1 0x40 MLOAD PUSH2 0x1D6 SWAP2 SWAP1 PUSH2 0x117D JUMP JUMPDEST PUSH1 0x40 MLOAD DUP1 SWAP2 SUB SWAP1 RETURN JUMPDEST PUSH2 0x1E7 PUSH2 0xA80 JUMP JUMPDEST PUSH1 0x40 MLOAD PUSH2 0x1F4 SWAP2 SWAP1 PUSH2 0x117D JUMP JUMPDEST PUSH1 0x40 MLOAD DUP1 SWAP2 SUB SWAP1 RETURN JUMPDEST PUSH2 0x205 PUSH2 0xA86 JUMP JUMPDEST PUSH1 0x40 MLOAD PUSH2 0x212 SWAP2 SWAP1 PUSH2 0xFB3 JUMP JUMPDEST PUSH1 0x40 MLOAD DUP1 SWAP2 SUB SWAP1 RETURN JUMPDEST PUSH2 0x235 PUSH1 0x4 DUP1 CALLDATASIZE SUB DUP2 ADD SWAP1 PUSH2 0x230 SWAP2 SWAP1 PUSH2 0x106E JUMP JUMPDEST PUSH2 0xB14 JUMP JUMPDEST PUSH1 0x40 MLOAD PUSH2 0x242 SWAP2 SWAP1 PUSH2 0x10C9 JUMP JUMPDEST PUSH1 0x40 MLOAD DUP1 SWAP2 SUB SWAP1 RETURN JUMPDEST PUSH2 0x265 PUSH1 0x4 DUP1 CALLDATASIZE SUB DUP2 ADD SWAP1 PUSH2 0x260 SWAP2 SWAP1 PUSH2 0x11C5 JUMP JUMPDEST PUSH2 0xDFC JUMP JUMPDEST PUSH1 0x40 MLOAD PUSH2 0x272 SWAP2 SWAP1 PUSH2 0x117D JUMP JUMPDEST PUSH1 0x40 MLOAD DUP1 SWAP2 SUB SWAP1 RETURN JUMPDEST PUSH1 0x0 DUP1 SLOAD PUSH2 0x288 SWAP1 PUSH2 0x1234 JUMP JUMPDEST DUP1 PUSH1 0x1F ADD PUSH1 0x20 DUP1 SWAP2 DIV MUL PUSH1 0x20 ADD PUSH1 0x40 MLOAD SWAP1 DUP2 ADD PUSH1 0x40 MSTORE DUP1 SWAP3 SWAP2 SWAP1 DUP2 DUP2 MSTORE PUSH1 0x20 ADD DUP3 DUP1 SLOAD PUSH2 0x2B4 SWAP1 PUSH2 0x1234 JUMP JUMPDEST DUP1 ISZERO PUSH2 0x301 JUMPI DUP1 PUSH1 0x1F LT PUSH2 0x2D6 JUMPI PUSH2 0x100 DUP1 DUP4 SLOAD DIV MUL DUP4 MSTORE SWAP2 PUSH1 0x20 ADD SWAP2 PUSH2 0x301 JUMP JUMPDEST DUP3 ADD SWAP2 SWAP1 PUSH1 0x0 MSTORE PUSH1 0x20 PUSH1 0x0 KECCAK256 SWAP1 JUMPDEST DUP2 SLOAD DUP2 MSTORE SWAP1 PUSH1 0x1 ADD SWAP1 PUSH1 0x20 ADD DUP1 DUP4 GT PUSH2 0x2E4 JUMPI DUP3 SWAP1 SUB PUSH1 0x1F AND DUP3 ADD SWAP2 JUMPDEST POP POP POP POP POP DUP2 JUMP JUMPDEST PUSH1 0x0 DUP2 PUSH1 0x5 PUSH1 0x0 CALLER PUSH20 0xFFFFFFFFFFFFFFFFFFFFFFFFFFFFFFFFFFFFFFFF AND PUSH20 0xFFFFFFFFFFFFFFFFFFFFFFFFFFFFFFFFFFFFFFFF AND DUP2 MSTORE PUSH1 0x20 ADD SWAP1 DUP2 MSTORE PUSH1 0x20 ADD PUSH1 0x0 KECCAK256 PUSH1 0x0 DUP6 PUSH20 0xFFFFFFFFFFFFFFFFFFFFFFFFFFFFFFFFFFFFFFFF AND PUSH20 0xFFFFFFFFFFFFFFFFFFFFFFFFFFFFFFFFFFFFFFFF AND DUP2 MSTORE PUSH1 0x20 ADD SWAP1 DUP2 MSTORE PUSH1 0x20 ADD PUSH1 0x0 KECCAK256 DUP2 SWAP1 SSTORE POP DUP3 PUSH20 0xFFFFFFFFFFFFFFFFFFFFFFFFFFFFFFFFFFFFFFFF AND CALLER PUSH20 0xFFFFFFFFFFFFFFFFFFFFFFFFFFFFFFFFFFFFFFFF AND PUSH32 0x8C5BE1E5EBEC7D5BD14F71427D1E84F3DD0314C0F7B2291E5B200AC8C7C3B925 DUP5 PUSH1 0x40 MLOAD PUSH2 0x3E9 SWAP2 SWAP1 PUSH2 0x117D JUMP JUMPDEST PUSH1 0x40 MLOAD DUP1 SWAP2 SUB SWAP1 LOG3 PUSH1 0x1 SWAP1 POP SWAP3 SWAP2 POP POP JUMP JUMPDEST PUSH1 0x0 DUP1 PUSH20 0xFFFFFFFFFFFFFFFFFFFFFFFFFFFFFFFFFFFFFFFF AND DUP4 PUSH20 0xFFFFFFFFFFFFFFFFFFFFFFFFFFFFFFFFFFFFFFFF AND SUB PUSH2 0x46B JUMPI PUSH1 0x40 MLOAD PUSH32 0x8C379A000000000000000000000000000000000000000000000000000000000 DUP2 MSTORE PUSH1 0x4 ADD PUSH2 0x462 SWAP1 PUSH2 0x12B1 JUMP JUMPDEST PUSH1 0x40 MLOAD DUP1 SWAP2 SUB SWAP1 REVERT JUMPDEST PUSH1 0x4 PUSH1 0x0 DUP6 PUSH20 0xFFFFFFFFFFFFFFFFFFFFFFFFFFFFFFFFFFFFFFFF AND PUSH20 0xFFFFFFFFFFFFFFFFFFFFFFFFFFFFFFFFFFFFFFFF AND DUP2 MSTORE PUSH1 0x20 ADD SWAP1 DUP2 MSTORE PUSH1 0x20 ADD PUSH1 0x0 KECCAK256 SLOAD DUP3 GT ISZERO PUSH2 0x4ED JUMPI PUSH1 0x40 MLOAD PUSH32 0x8C379A000000000000000000000000000000000000000000000000000000000 DUP2 MSTORE PUSH1 0x4 ADD PUSH2 0x4E4 SWAP1 PUSH2 0x131D JUMP JUMPDEST PUSH1 0x40 MLOAD DUP1 SWAP2 SUB SWAP1 REVERT JUMPDEST PUSH1 0x5 PUSH1 0x0 DUP6 PUSH20 0xFFFFFFFFFFFFFFFFFFFFFFFFFFFFFFFFFFFFFFFF AND PUSH20 0xFFFFFFFFFFFFFFFFFFFFFFFFFFFFFFFFFFFFFFFF AND DUP2 MSTORE PUSH1 0x20 ADD SWAP1 DUP2 MSTORE PUSH1 0x20 ADD PUSH1 0x0 KECCAK256 PUSH1 0x0 CALLER PUSH20 0xFFFFFFFFFFFFFFFFFFFFFFFFFFFFFFFFFFFFFFFF AND PUSH20 0xFFFFFFFFFFFFFFFFFFFFFFFFFFFFFFFFFFFFFFFF AND DUP2 MSTORE PUSH1 0x20 ADD SWAP1 DUP2 MSTORE PUSH1 0x20 ADD PUSH1 0x0 KECCAK256 SLOAD DUP3 GT ISZERO PUSH2 0x5AC JUMPI PUSH1 0x40 MLOAD PUSH32 0x8C379A000000000000000000000000000000000000000000000000000000000 DUP2 MSTORE PUSH1 0x4 ADD PUSH2 0x5A3 SWAP1 PUSH2 0x1389 JUMP JUMPDEST PUSH1 0x40 MLOAD DUP1 SWAP2 SUB SWAP1 REVERT JUMPDEST PUSH1 0x0 PUSH2 0x5B8 DUP4 DUP7 PUSH2 0xE83 JUMP JUMPDEST SWAP1 POP PUSH1 0x0 DUP2 DUP5 PUSH2 0x5C8 SWAP2 SWAP1 PUSH2 0x13D8 JUMP JUMPDEST SWAP1 POP DUP4 PUSH1 0x4 PUSH1 0x0 DUP9 PUSH20 0xFFFFFFFFFFFFFFFFFFFFFFFFFFFFFFFFFFFFFFFF AND PUSH20 0xFFFFFFFFFFFFFFFFFFFFFFFFFFFFFFFFFFFFFFFF AND DUP2 MSTORE PUSH1 0x20 ADD SWAP1 DUP2 MSTORE PUSH1 0x20 ADD PUSH1 0x0 KECCAK256 PUSH1 0x0 DUP3 DUP3 SLOAD PUSH2 0x619 SWAP2 SWAP1 PUSH2 0x13D8 JUMP JUMPDEST SWAP3 POP POP DUP2 SWAP1 SSTORE POP DUP1 PUSH1 0x4 PUSH1 0x0 DUP8 PUSH20 0xFFFFFFFFFFFFFFFFFFFFFFFFFFFFFFFFFFFFFFFF AND PUSH20 0xFFFFFFFFFFFFFFFFFFFFFFFFFFFFFFFFFFFFFFFF AND DUP2 MSTORE PUSH1 0x20 ADD SWAP1 DUP2 MSTORE PUSH1 0x20 ADD PUSH1 0x0 KECCAK256 PUSH1 0x0 DUP3 DUP3 SLOAD PUSH2 0x66F SWAP2 SWAP1 PUSH2 0x140C JUMP JUMPDEST SWAP3 POP POP DUP2 SWAP1 SSTORE POP DUP2 PUSH1 0x4 PUSH1 0x0 ADDRESS PUSH20 0xFFFFFFFFFFFFFFFFFFFFFFFFFFFFFFFFFFFFFFFF AND PUSH20 0xFFFFFFFFFFFFFFFFFFFFFFFFFFFFFFFFFFFFFFFF AND DUP2 MSTORE PUSH1 0x20 ADD SWAP1 DUP2 MSTORE PUSH1 0x20 ADD PUSH1 0x0 KECCAK256 PUSH1 0x0 DUP3 DUP3 SLOAD PUSH2 0x6C5 SWAP2 SWAP1 PUSH2 0x140C JUMP JUMPDEST SWAP3 POP POP DUP2 SWAP1 SSTORE POP DUP4 PUSH1 0x5 PUSH1 0x0 DUP9 PUSH20 0xFFFFFFFFFFFFFFFFFFFFFFFFFFFFFFFFFFFFFFFF AND PUSH20 0xFFFFFFFFFFFFFFFFFFFFFFFFFFFFFFFFFFFFFFFF AND DUP2 MSTORE PUSH1 0x20 ADD SWAP1 DUP2 MSTORE PUSH1 0x20 ADD PUSH1 0x0 KECCAK256 PUSH1 0x0 CALLER PUSH20 0xFFFFFFFFFFFFFFFFFFFFFFFFFFFFFFFFFFFFFFFF AND PUSH20 0xFFFFFFFFFFFFFFFFFFFFFFFFFFFFFFFFFFFFFFFF AND DUP2 MSTORE PUSH1 0x20 ADD SWAP1 DUP2 MSTORE PUSH1 0x20 ADD PUSH1 0x0 KECCAK256 PUSH1 0x0 DUP3 DUP3 SLOAD PUSH2 0x758 SWAP2 SWAP1 PUSH2 0x13D8 JUMP JUMPDEST SWAP3 POP POP DUP2 SWAP1 SSTORE POP DUP5 PUSH20 0xFFFFFFFFFFFFFFFFFFFFFFFFFFFFFFFFFFFFFFFF AND DUP7 PUSH20 0xFFFFFFFFFFFFFFFFFFFFFFFFFFFFFFFFFFFFFFFF AND PUSH32 0xDDF252AD1BE2C89B69C2B068FC378DAA952BA7F163C4A11628F55A4DF523B3EF DUP4 PUSH1 0x40 MLOAD PUSH2 0x7BC SWAP2 SWAP1 PUSH2 0x117D JUMP JUMPDEST PUSH1 0x40 MLOAD DUP1 SWAP2 SUB SWAP1 LOG3 ADDRESS PUSH20 0xFFFFFFFFFFFFFFFFFFFFFFFFFFFFFFFFFFFFFFFF AND DUP7 PUSH20 0xFFFFFFFFFFFFFFFFFFFFFFFFFFFFFFFFFFFFFFFF AND PUSH32 0xDDF252AD1BE2C89B69C2B068FC378DAA952BA7F163C4A11628F55A4DF523B3EF DUP5 PUSH1 0x40 MLOAD PUSH2 0x821 SWAP2 SWAP1 PUSH2 0x117D JUMP JUMPDEST PUSH1 0x40 MLOAD DUP1 SWAP2 SUB SWAP1 LOG3 PUSH1 0x1 SWAP3 POP POP POP SWAP4 SWAP3 POP POP POP JUMP JUMPDEST PUSH1 0x0 DUP1 PUSH1 0x4 PUSH1 0x0 ADDRESS PUSH20 0xFFFFFFFFFFFFFFFFFFFFFFFFFFFFFFFFFFFFFFFF AND PUSH20 0xFFFFFFFFFFFFFFFFFFFFFFFFFFFFFFFFFFFFFFFF AND DUP2 MSTORE PUSH1 0x20 ADD SWAP1 DUP2 MSTORE PUSH1 0x20 ADD PUSH1 0x0 KECCAK256 SLOAD GT PUSH2 0x8B9 JUMPI PUSH1 0x40 MLOAD PUSH32 0x8C379A000000000000000000000000000000000000000000000000000000000 DUP2 MSTORE PUSH1 0x4 ADD PUSH2 0x8B0 SWAP1 PUSH2 0x148C JUMP JUMPDEST PUSH1 0x40 MLOAD DUP1 SWAP2 SUB SWAP1 REVERT JUMPDEST PUSH1 0x0 PUSH1 0x4 PUSH1 0x0 ADDRESS PUSH20 0xFFFFFFFFFFFFFFFFFFFFFFFFFFFFFFFFFFFFFFFF AND PUSH20 0xFFFFFFFFFFFFFFFFFFFFFFFFFFFFFFFFFFFFFFFF AND DUP2 MSTORE PUSH1 0x20 ADD SWAP1 DUP2 MSTORE PUSH1 0x20 ADD PUSH1 0x0 KECCAK256 SLOAD SWAP1 POP PUSH1 0x0 PUSH1 0x8 SLOAD DUP3 PUSH2 0x90D SWAP2 SWAP1 PUSH2 0x14AC JUMP JUMPDEST SWAP1 POP PUSH1 0x0 PUSH1 0x4 PUSH1 0x0 ADDRESS PUSH20 0xFFFFFFFFFFFFFFFFFFFFFFFFFFFFFFFFFFFFFFFF AND PUSH20 0xFFFFFFFFFFFFFFFFFFFFFFFFFFFFFFFFFFFFFFFF AND DUP2 MSTORE PUSH1 0x20 ADD SWAP1 DUP2 MSTORE PUSH1 0x20 ADD PUSH1 0x0 KECCAK256 DUP2 SWAP1 SSTORE POP DUP1 PUSH1 0x4 PUSH1 0x0 CALLER PUSH20 0xFFFFFFFFFFFFFFFFFFFFFFFFFFFFFFFFFFFFFFFF AND PUSH20 0xFFFFFFFFFFFFFFFFFFFFFFFFFFFFFFFFFFFFFFFF AND DUP2 MSTORE PUSH1 0x20 ADD SWAP1 DUP2 MSTORE PUSH1 0x20 ADD PUSH1 0x0 KECCAK256 PUSH1 0x0 DUP3 DUP3 SLOAD PUSH2 0x9A3 SWAP2 SWAP1 PUSH2 0x140C JUMP JUMPDEST SWAP3 POP POP DUP2 SWAP1 SSTORE POP CALLER PUSH20 0xFFFFFFFFFFFFFFFFFFFFFFFFFFFFFFFFFFFFFFFF AND ADDRESS PUSH20 0xFFFFFFFFFFFFFFFFFFFFFFFFFFFFFFFFFFFFFFFF AND PUSH32 0xDDF252AD1BE2C89B69C2B068FC378DAA952BA7F163C4A11628F55A4DF523B3EF DUP4 PUSH1 0x40 MLOAD PUSH2 0xA07 SWAP2 SWAP1 PUSH2 0x117D JUMP JUMPDEST PUSH1 0x40 MLOAD DUP1 SWAP2 SUB SWAP1 LOG3 PUSH1 0x1 SWAP3 POP POP POP SWAP1 JUMP JUMPDEST PUSH1 0x2 PUSH1 0x0 SWAP1 SLOAD SWAP1 PUSH2 0x100 EXP SWAP1 DIV PUSH1 0xFF AND DUP2 JUMP JUMPDEST PUSH1 0x7 SLOAD DUP2 JUMP JUMPDEST PUSH1 0x0 PUSH1 0x4 PUSH1 0x0 DUP4 PUSH20 0xFFFFFFFFFFFFFFFFFFFFFFFFFFFFFFFFFFFFFFFF AND PUSH20 0xFFFFFFFFFFFFFFFFFFFFFFFFFFFFFFFFFFFFFFFF AND DUP2 MSTORE PUSH1 0x20 ADD SWAP1 DUP2 MSTORE PUSH1 0x20 ADD PUSH1 0x0 KECCAK256 SLOAD SWAP1 POP SWAP2 SWAP1 POP JUMP JUMPDEST PUSH1 0x8 SLOAD DUP2 JUMP JUMPDEST PUSH1 0x6 SLOAD DUP2 JUMP JUMPDEST PUSH1 0x1 DUP1 SLOAD PUSH2 0xA93 SWAP1 PUSH2 0x1234 JUMP JUMPDEST DUP1 PUSH1 0x1F ADD PUSH1 0x20 DUP1 SWAP2 DIV MUL PUSH1 0x20 ADD PUSH1 0x40 MLOAD SWAP1 DUP2 ADD PUSH1 0x40 MSTORE DUP1 SWAP3 SWAP2 SWAP1 DUP2 DUP2 MSTORE PUSH1 0x20 ADD DUP3 DUP1 SLOAD PUSH2 0xABF SWAP1 PUSH2 0x1234 JUMP JUMPDEST DUP1 ISZERO PUSH2 0xB0C JUMPI DUP1 PUSH1 0x1F LT PUSH2 0xAE1 JUMPI PUSH2 0x100 DUP1 DUP4 SLOAD DIV MUL DUP4 MSTORE SWAP2 PUSH1 0x20 ADD SWAP2 PUSH2 0xB0C JUMP JUMPDEST DUP3 ADD SWAP2 SWAP1 PUSH1 0x0 MSTORE PUSH1 0x20 PUSH1 0x0 KECCAK256 SWAP1 JUMPDEST DUP2 SLOAD DUP2 MSTORE SWAP1 PUSH1 0x1 ADD SWAP1 PUSH1 0x20 ADD DUP1 DUP4 GT PUSH2 0xAEF JUMPI DUP3 SWAP1 SUB PUSH1 0x1F AND DUP3 ADD SWAP2 JUMPDEST POP POP POP POP POP DUP2 JUMP JUMPDEST PUSH1 0x0 DUP1 PUSH20 0xFFFFFFFFFFFFFFFFFFFFFFFFFFFFFFFFFFFFFFFF AND DUP4 PUSH20 0xFFFFFFFFFFFFFFFFFFFFFFFFFFFFFFFFFFFFFFFF AND SUB PUSH2 0xB84 JUMPI PUSH1 0x40 MLOAD PUSH32 0x8C379A000000000000000000000000000000000000000000000000000000000 DUP2 MSTORE PUSH1 0x4 ADD PUSH2 0xB7B SWAP1 PUSH2 0x12B1 JUMP JUMPDEST PUSH1 0x40 MLOAD DUP1 SWAP2 SUB SWAP1 REVERT JUMPDEST PUSH1 0x4 PUSH1 0x0 CALLER PUSH20 0xFFFFFFFFFFFFFFFFFFFFFFFFFFFFFFFFFFFFFFFF AND PUSH20 0xFFFFFFFFFFFFFFFFFFFFFFFFFFFFFFFFFFFFFFFF AND DUP2 MSTORE PUSH1 0x20 ADD SWAP1 DUP2 MSTORE PUSH1 0x20 ADD PUSH1 0x0 KECCAK256 SLOAD DUP3 GT ISZERO PUSH2 0xC06 JUMPI PUSH1 0x40 MLOAD PUSH32 0x8C379A000000000000000000000000000000000000000000000000000000000 DUP2 MSTORE PUSH1 0x4 ADD PUSH2 0xBFD SWAP1 PUSH2 0x131D JUMP JUMPDEST PUSH1 0x40 MLOAD DUP1 SWAP2 SUB SWAP1 REVERT JUMPDEST PUSH1 0x0 PUSH2 0xC12 DUP4 CALLER PUSH2 0xE83 JUMP JUMPDEST SWAP1 POP PUSH1 0x0 DUP2 DUP5 PUSH2 0xC22 SWAP2 SWAP1 PUSH2 0x13D8 JUMP JUMPDEST SWAP1 POP DUP4 PUSH1 0x4 PUSH1 0x0 CALLER PUSH20 0xFFFFFFFFFFFFFFFFFFFFFFFFFFFFFFFFFFFFFFFF AND PUSH20 0xFFFFFFFFFFFFFFFFFFFFFFFFFFFFFFFFFFFFFFFF AND DUP2 MSTORE PUSH1 0x20 ADD SWAP1 DUP2 MSTORE PUSH1 0x20 ADD PUSH1 0x0 KECCAK256 PUSH1 0x0 DUP3 DUP3 SLOAD PUSH2 0xC73 SWAP2 SWAP1 PUSH2 0x13D8 JUMP JUMPDEST SWAP3 POP POP DUP2 SWAP1 SSTORE POP DUP1 PUSH1 0x4 PUSH1 0x0 DUP8 PUSH20 0xFFFFFFFFFFFFFFFFFFFFFFFFFFFFFFFFFFFFFFFF AND PUSH20 0xFFFFFFFFFFFFFFFFFFFFFFFFFFFFFFFFFFFFFFFF AND DUP2 MSTORE PUSH1 0x20 ADD SWAP1 DUP2 MSTORE PUSH1 0x20 ADD PUSH1 0x0 KECCAK256 PUSH1 0x0 DUP3 DUP3 SLOAD PUSH2 0xCC9 SWAP2 SWAP1 PUSH2 0x140C JUMP JUMPDEST SWAP3 POP POP DUP2 SWAP1 SSTORE POP DUP2 PUSH1 0x4 PUSH1 0x0 ADDRESS PUSH20 0xFFFFFFFFFFFFFFFFFFFFFFFFFFFFFFFFFFFFFFFF AND PUSH20 0xFFFFFFFFFFFFFFFFFFFFFFFFFFFFFFFFFFFFFFFF AND DUP2 MSTORE PUSH1 0x20 ADD SWAP1 DUP2 MSTORE PUSH1 0x20 ADD PUSH1 0x0 KECCAK256 PUSH1 0x0 DUP3 DUP3 SLOAD PUSH2 0xD1F SWAP2 SWAP1 PUSH2 0x140C JUMP JUMPDEST SWAP3 POP POP DUP2 SWAP1 SSTORE POP DUP5 PUSH20 0xFFFFFFFFFFFFFFFFFFFFFFFFFFFFFFFFFFFFFFFF AND CALLER PUSH20 0xFFFFFFFFFFFFFFFFFFFFFFFFFFFFFFFFFFFFFFFF AND PUSH32 0xDDF252AD1BE2C89B69C2B068FC378DAA952BA7F163C4A11628F55A4DF523B3EF DUP4 PUSH1 0x40 MLOAD PUSH2 0xD83 SWAP2 SWAP1 PUSH2 0x117D JUMP JUMPDEST PUSH1 0x40 MLOAD DUP1 SWAP2 SUB SWAP1 LOG3 ADDRESS PUSH20 0xFFFFFFFFFFFFFFFFFFFFFFFFFFFFFFFFFFFFFFFF AND CALLER PUSH20 0xFFFFFFFFFFFFFFFFFFFFFFFFFFFFFFFFFFFFFFFF AND PUSH32 0xDDF252AD1BE2C89B69C2B068FC378DAA952BA7F163C4A11628F55A4DF523B3EF DUP5 PUSH1 0x40 MLOAD PUSH2 0xDE8 SWAP2 SWAP1 PUSH2 0x117D JUMP JUMPDEST PUSH1 0x40 MLOAD DUP1 SWAP2 SUB SWAP1 LOG3 PUSH1 0x1 SWAP3 POP POP POP SWAP3 SWAP2 POP POP JUMP JUMPDEST PUSH1 0x0 PUSH1 0x5 PUSH1 0x0 DUP5 PUSH20 0xFFFFFFFFFFFFFFFFFFFFFFFFFFFFFFFFFFFFFFFF AND PUSH20 0xFFFFFFFFFFFFFFFFFFFFFFFFFFFFFFFFFFFFFFFF AND DUP2 MSTORE PUSH1 0x20 ADD SWAP1 DUP2 MSTORE PUSH1 0x20 ADD PUSH1 0x0 KECCAK256 PUSH1 0x0 DUP4 PUSH20 0xFFFFFFFFFFFFFFFFFFFFFFFFFFFFFFFFFFFFFFFF AND PUSH20 0xFFFFFFFFFFFFFFFFFFFFFFFFFFFFFFFFFFFFFFFF AND DUP2 MSTORE PUSH1 0x20 ADD SWAP1 DUP2 MSTORE PUSH1 0x20 ADD PUSH1 0x0 KECCAK256 SLOAD SWAP1 POP SWAP3 SWAP2 POP POP JUMP JUMPDEST PUSH1 0x0 DUP1 ADDRESS PUSH20 0xFFFFFFFFFFFFFFFFFFFFFFFFFFFFFFFFFFFFFFFF AND DUP4 PUSH20 0xFFFFFFFFFFFFFFFFFFFFFFFFFFFFFFFFFFFFFFFF AND EQ PUSH2 0xEFD JUMPI DUP3 PUSH20 0xFFFFFFFFFFFFFFFFFFFFFFFFFFFFFFFFFFFFFFFF AND CALLER PUSH20 0xFFFFFFFFFFFFFFFFFFFFFFFFFFFFFFFFFFFFFFFF AND EQ PUSH2 0xEF4 JUMPI PUSH1 0x7 SLOAD PUSH2 0xEF8 JUMP JUMPDEST PUSH1 0x6 SLOAD JUMPDEST PUSH2 0xF00 JUMP JUMPDEST PUSH1 0x0 JUMPDEST SWAP1 POP PUSH1 0x64 DUP2 DUP6 PUSH2 0xF10 SWAP2 SWAP1 PUSH2 0x14AC JUMP JUMPDEST PUSH2 0xF1A SWAP2 SWAP1 PUSH2 0x151D JUMP JUMPDEST SWAP2 POP POP SWAP3 SWAP2 POP POP JUMP JUMPDEST PUSH1 0x0 DUP2 MLOAD SWAP1 POP SWAP2 SWAP1 POP JUMP JUMPDEST PUSH1 0x0 DUP3 DUP3 MSTORE PUSH1 0x20 DUP3 ADD SWAP1 POP SWAP3 SWAP2 POP POP JUMP JUMPDEST PUSH1 0x0 JUMPDEST DUP4 DUP2 LT ISZERO PUSH2 0xF5D JUMPI DUP1 DUP3 ADD MLOAD DUP2 DUP5 ADD MSTORE PUSH1 0x20 DUP2 ADD SWAP1 POP PUSH2 0xF42 JUMP JUMPDEST PUSH1 0x0 DUP5 DUP5 ADD MSTORE POP POP POP POP JUMP JUMPDEST PUSH1 0x0 PUSH1 0x1F NOT PUSH1 0x1F DUP4 ADD AND SWAP1 POP SWAP2 SWAP1 POP JUMP JUMPDEST PUSH1 0x0 PUSH2 0xF85 DUP3 PUSH2 0xF23 JUMP JUMPDEST PUSH2 0xF8F DUP2 DUP6 PUSH2 0xF2E JUMP JUMPDEST SWAP4 POP PUSH2 0xF9F DUP2 DUP6 PUSH1 0x20 DUP7 ADD PUSH2 0xF3F JUMP JUMPDEST PUSH2 0xFA8 DUP2 PUSH2 0xF69 JUMP JUMPDEST DUP5 ADD SWAP2 POP POP SWAP3 SWAP2 POP POP JUMP JUMPDEST PUSH1 0x0 PUSH1 0x20 DUP3 ADD SWAP1 POP DUP2 DUP2 SUB PUSH1 0x0 DUP4 ADD MSTORE PUSH2 0xFCD DUP2 DUP5 PUSH2 0xF7A JUMP JUMPDEST SWAP1 POP SWAP3 SWAP2 POP POP JUMP JUMPDEST PUSH1 0x0 DUP1 REVERT JUMPDEST PUSH1 0x0 PUSH20 0xFFFFFFFFFFFFFFFFFFFFFFFFFFFFFFFFFFFFFFFF DUP3 AND SWAP1 POP SWAP2 SWAP1 POP JUMP JUMPDEST PUSH1 0x0 PUSH2 0x1005 DUP3 PUSH2 0xFDA JUMP JUMPDEST SWAP1 POP SWAP2 SWAP1 POP JUMP JUMPDEST PUSH2 0x1015 DUP2 PUSH2 0xFFA JUMP JUMPDEST DUP2 EQ PUSH2 0x1020 JUMPI PUSH1 0x0 DUP1 REVERT JUMPDEST POP JUMP JUMPDEST PUSH1 0x0 DUP2 CALLDATALOAD SWAP1 POP PUSH2 0x1032 DUP2 PUSH2 0x100C JUMP JUMPDEST SWAP3 SWAP2 POP POP JUMP JUMPDEST PUSH1 0x0 DUP2 SWAP1 POP SWAP2 SWAP1 POP JUMP JUMPDEST PUSH2 0x104B DUP2 PUSH2 0x1038 JUMP JUMPDEST DUP2 EQ PUSH2 0x1056 JUMPI PUSH1 0x0 DUP1 REVERT JUMPDEST POP JUMP JUMPDEST PUSH1 0x0 DUP2 CALLDATALOAD SWAP1 POP PUSH2 0x1068 DUP2 PUSH2 0x1042 JUMP JUMPDEST SWAP3 SWAP2 POP POP JUMP JUMPDEST PUSH1 0x0 DUP1 PUSH1 0x40 DUP4 DUP6 SUB SLT ISZERO PUSH2 0x1085 JUMPI PUSH2 0x1084 PUSH2 0xFD5 JUMP JUMPDEST JUMPDEST PUSH1 0x0 PUSH2 0x1093 DUP6 DUP3 DUP7 ADD PUSH2 0x1023 JUMP JUMPDEST SWAP3 POP POP PUSH1 0x20 PUSH2 0x10A4 DUP6 DUP3 DUP7 ADD PUSH2 0x1059 JUMP JUMPDEST SWAP2 POP POP SWAP3 POP SWAP3 SWAP1 POP JUMP JUMPDEST PUSH1 0x0 DUP2 ISZERO ISZERO SWAP1 POP SWAP2 SWAP1 POP JUMP JUMPDEST PUSH2 0x10C3 DUP2 PUSH2 0x10AE JUMP JUMPDEST DUP3 MSTORE POP POP JUMP JUMPDEST PUSH1 0x0 PUSH1 0x20 DUP3 ADD SWAP1 POP PUSH2 0x10DE PUSH1 0x0 DUP4 ADD DUP5 PUSH2 0x10BA JUMP JUMPDEST SWAP3 SWAP2 POP POP JUMP JUMPDEST PUSH1 0x0 DUP1 PUSH1 0x0 PUSH1 0x60 DUP5 DUP7 SUB SLT ISZERO PUSH2 0x10FD JUMPI PUSH2 0x10FC PUSH2 0xFD5 JUMP JUMPDEST JUMPDEST PUSH1 0x0 PUSH2 0x110B DUP7 DUP3 DUP8 ADD PUSH2 0x1023 JUMP JUMPDEST SWAP4 POP POP PUSH1 0x20 PUSH2 0x111C DUP7 DUP3 DUP8 ADD PUSH2 0x1023 JUMP JUMPDEST SWAP3 POP POP PUSH1 0x40 PUSH2 0x112D DUP7 DUP3 DUP8 ADD PUSH2 0x1059 JUMP JUMPDEST SWAP2 POP POP SWAP3 POP SWAP3 POP SWAP3 JUMP JUMPDEST PUSH1 0x0 PUSH1 0xFF DUP3 AND SWAP1 POP SWAP2 SWAP1 POP JUMP JUMPDEST PUSH2 0x114D DUP2 PUSH2 0x1137 JUMP JUMPDEST DUP3 MSTORE POP POP JUMP JUMPDEST PUSH1 0x0 PUSH1 0x20 DUP3 ADD SWAP1 POP PUSH2 0x1168 PUSH1 0x0 DUP4 ADD DUP5 PUSH2 0x1144 JUMP JUMPDEST SWAP3 SWAP2 POP POP JUMP JUMPDEST PUSH2 0x1177 DUP2 PUSH2 0x1038 JUMP JUMPDEST DUP3 MSTORE POP POP JUMP JUMPDEST PUSH1 0x0 PUSH1 0x20 DUP3 ADD SWAP1 POP PUSH2 0x1192 PUSH1 0x0 DUP4 ADD DUP5 PUSH2 0x116E JUMP JUMPDEST SWAP3 SWAP2 POP POP JUMP JUMPDEST PUSH1 0x0 PUSH1 0x20 DUP3 DUP5 SUB SLT ISZERO PUSH2 0x11AE JUMPI PUSH2 0x11AD PUSH2 0xFD5 JUMP JUMPDEST JUMPDEST PUSH1 0x0 PUSH2 0x11BC DUP5 DUP3 DUP6 ADD PUSH2 0x1023 JUMP JUMPDEST SWAP2 POP POP SWAP3 SWAP2 POP POP JUMP JUMPDEST PUSH1 0x0 DUP1 PUSH1 0x40 DUP4 DUP6 SUB SLT ISZERO PUSH2 0x11DC JUMPI PUSH2 0x11DB PUSH2 0xFD5 JUMP JUMPDEST JUMPDEST PUSH1 0x0 PUSH2 0x11EA DUP6 DUP3 DUP7 ADD PUSH2 0x1023 JUMP JUMPDEST SWAP3 POP POP PUSH1 0x20 PUSH2 0x11FB DUP6 DUP3 DUP7 ADD PUSH2 0x1023 JUMP JUMPDEST SWAP2 POP POP SWAP3 POP SWAP3 SWAP1 POP JUMP JUMPDEST PUSH32 0x4E487B7100000000000000000000000000000000000000000000000000000000 PUSH1 0x0 MSTORE PUSH1 0x22 PUSH1 0x4 MSTORE PUSH1 0x24 PUSH1 0x0 REVERT JUMPDEST PUSH1 0x0 PUSH1 0x2 DUP3 DIV SWAP1 POP PUSH1 0x1 DUP3 AND DUP1 PUSH2 0x124C JUMPI PUSH1 0x7F DUP3 AND SWAP2 POP JUMPDEST PUSH1 0x20 DUP3 LT DUP2 SUB PUSH2 0x125F JUMPI PUSH2 0x125E PUSH2 0x1205 JUMP JUMPDEST JUMPDEST POP SWAP2 SWAP1 POP JUMP JUMPDEST PUSH32 0x496E76616C696420616464726573730000000000000000000000000000000000 PUSH1 0x0 DUP3 ADD MSTORE POP JUMP JUMPDEST PUSH1 0x0 PUSH2 0x129B PUSH1 0xF DUP4 PUSH2 0xF2E JUMP JUMPDEST SWAP2 POP PUSH2 0x12A6 DUP3 PUSH2 0x1265 JUMP JUMPDEST PUSH1 0x20 DUP3 ADD SWAP1 POP SWAP2 SWAP1 POP JUMP JUMPDEST PUSH1 0x0 PUSH1 0x20 DUP3 ADD SWAP1 POP DUP2 DUP2 SUB PUSH1 0x0 DUP4 ADD MSTORE PUSH2 0x12CA DUP2 PUSH2 0x128E JUMP JUMPDEST SWAP1 POP SWAP2 SWAP1 POP JUMP JUMPDEST PUSH32 0x496E73756666696369656E742062616C616E6365000000000000000000000000 PUSH1 0x0 DUP3 ADD MSTORE POP JUMP JUMPDEST PUSH1 0x0 PUSH2 0x1307 PUSH1 0x14 DUP4 PUSH2 0xF2E JUMP JUMPDEST SWAP2 POP PUSH2 0x1312 DUP3 PUSH2 0x12D1 JUMP JUMPDEST PUSH1 0x20 DUP3 ADD SWAP1 POP SWAP2 SWAP1 POP JUMP JUMPDEST PUSH1 0x0 PUSH1 0x20 DUP3 ADD SWAP1 POP DUP2 DUP2 SUB PUSH1 0x0 DUP4 ADD MSTORE PUSH2 0x1336 DUP2 PUSH2 0x12FA JUMP JUMPDEST SWAP1 POP SWAP2 SWAP1 POP JUMP JUMPDEST PUSH32 0x496E73756666696369656E7420616C6C6F77616E636500000000000000000000 PUSH1 0x0 DUP3 ADD MSTORE POP JUMP JUMPDEST PUSH1 0x0 PUSH2 0x1373 PUSH1 0x16 DUP4 PUSH2 0xF2E JUMP JUMPDEST SWAP2 POP PUSH2 0x137E DUP3 PUSH2 0x133D JUMP JUMPDEST PUSH1 0x20 DUP3 ADD SWAP1 POP SWAP2 SWAP1 POP JUMP JUMPDEST PUSH1 0x0 PUSH1 0x20 DUP3 ADD SWAP1 POP DUP2 DUP2 SUB PUSH1 0x0 DUP4 ADD MSTORE PUSH2 0x13A2 DUP2 PUSH2 0x1366 JUMP JUMPDEST SWAP1 POP SWAP2 SWAP1 POP JUMP JUMPDEST PUSH32 0x4E487B7100000000000000000000000000000000000000000000000000000000 PUSH1 0x0 MSTORE PUSH1 0x11 PUSH1 0x4 MSTORE PUSH1 0x24 PUSH1 0x0 REVERT JUMPDEST PUSH1 0x0 PUSH2 0x13E3 DUP3 PUSH2 0x1038 JUMP JUMPDEST SWAP2 POP PUSH2 0x13EE DUP4 PUSH2 0x1038 JUMP JUMPDEST SWAP3 POP DUP3 DUP3 SUB SWAP1 POP DUP2 DUP2 GT ISZERO PUSH2 0x1406 JUMPI PUSH2 0x1405 PUSH2 0x13A9 JUMP JUMPDEST JUMPDEST SWAP3 SWAP2 POP POP JUMP JUMPDEST PUSH1 0x0 PUSH2 0x1417 DUP3 PUSH2 0x1038 JUMP JUMPDEST SWAP2 POP PUSH2 0x1422 DUP4 PUSH2 0x1038 JUMP JUMPDEST SWAP3 POP DUP3 DUP3 ADD SWAP1 POP DUP1 DUP3 GT ISZERO PUSH2 0x143A JUMPI PUSH2 0x1439 PUSH2 0x13A9 JUMP JUMPDEST JUMPDEST SWAP3 SWAP2 POP POP JUMP JUMPDEST PUSH32 0x4E6F206665657320746F20636F6E766572740000000000000000000000000000 PUSH1 0x0 DUP3 ADD MSTORE POP JUMP JUMPDEST PUSH1 0x0 PUSH2 0x1476 PUSH1 0x12 DUP4 PUSH2 0xF2E JUMP JUMPDEST SWAP2 POP PUSH2 0x1481 DUP3 PUSH2 0x1440 JUMP JUMPDEST PUSH1 0x20 DUP3 ADD SWAP1 POP SWAP2 SWAP1 POP JUMP JUMPDEST PUSH1 0x0 PUSH1 0x20 DUP3 ADD SWAP1 POP DUP2 DUP2 SUB PUSH1 0x0 DUP4 ADD MSTORE PUSH2 0x14A5 DUP2 PUSH2 0x1469 JUMP JUMPDEST SWAP1 POP SWAP2 SWAP1 POP JUMP JUMPDEST PUSH1 0x0 PUSH2 0x14B7 DUP3 PUSH2 0x1038 JUMP JUMPDEST SWAP2 POP PUSH2 0x14C2 DUP4 PUSH2 0x1038 JUMP JUMPDEST SWAP3 POP DUP3 DUP3 MUL PUSH2 0x14D0 DUP2 PUSH2 0x1038 JUMP JUMPDEST SWAP2 POP DUP3 DUP3 DIV DUP5 EQ DUP4 ISZERO OR PUSH2 0x14E7 JUMPI PUSH2 0x14E6 PUSH2 0x13A9 JUMP JUMPDEST JUMPDEST POP SWAP3 SWAP2 POP POP JUMP JUMPDEST PUSH32 0x4E487B7100000000000000000000000000000000000000000000000000000000 PUSH1 0x0 MSTORE PUSH1 0x12 PUSH1 0x4 MSTORE PUSH1 0x24 PUSH1 0x0 REVERT JUMPDEST PUSH1 0x0 PUSH2 0x1528 DUP3 PUSH2 0x1038 JUMP JUMPDEST SWAP2 POP PUSH2 0x1533 DUP4 PUSH2 0x1038 JUMP JUMPDEST SWAP3 POP DUP3 PUSH2 0x1543 JUMPI PUSH2 0x1542 PUSH2 0x14EE JUMP JUMPDEST JUMPDEST DUP3 DUP3 DIV SWAP1 POP SWAP3 SWAP2 POP POP JUMP INVALID LOG2 PUSH5 0x6970667358 0x22 SLT KECCAK256 MOD 0xD3 0xB9 PUSH30 0x70F38279C02C119AB6B79B2630AAA34E9BF23764ED045307B97FA1D76473 PUSH16 0x6C634300081200330000000000000000 "
				},
				"gasEstimates": {
					"creation": {
						"codeDepositCost": "1101600",
						"executionCost": "infinite",
						"totalCost": "infinite"
					},
					"external": {
						"allowance(address,address)": "infinite",
						"approve(address,uint256)": "infinite",
						"balanceOf(address)": "2841",
						"buyTaxPercent()": "2473",
						"convertFees()": "infinite",
						"decimals()": "2560",
						"feeConversionRate()": "2451",
						"name()": "infinite",
						"sellTaxPercent()": "2540",
						"symbol()": "infinite",
						"transfer(address,uint256)": "infinite",
						"transferFrom(address,address,uint256)": "infinite"
					},
					"internal": {
						"calculateTransferFee(uint256,address)": "infinite"
					}
				},
				"methodIdentifiers": {
					"allowance(address,address)": "dd62ed3e",
					"approve(address,uint256)": "095ea7b3",
					"balanceOf(address)": "70a08231",
					"buyTaxPercent()": "7df405a4",
					"convertFees()": "2b5335c3",
					"decimals()": "313ce567",
					"feeConversionRate()": "7d1e29b2",
					"name()": "06fdde03",
					"sellTaxPercent()": "6fb1896c",
					"symbol()": "95d89b41",
					"transfer(address,uint256)": "a9059cbb",
					"transferFrom(address,address,uint256)": "23b872dd"
				}
			},
			"storageLayout": {
				"storage": [
					{
						"astId": 3,
						"contract": "bentoken.sol:BenToken",
						"label": "name",
						"offset": 0,
						"slot": "0",
						"type": "t_string_storage"
					},
					{
						"astId": 5,
						"contract": "bentoken.sol:BenToken",
						"label": "symbol",
						"offset": 0,
						"slot": "1",
						"type": "t_string_storage"
					},
					{
						"astId": 7,
						"contract": "bentoken.sol:BenToken",
						"label": "decimals",
						"offset": 0,
						"slot": "2",
						"type": "t_uint8"
					},
					{
						"astId": 9,
						"contract": "bentoken.sol:BenToken",
						"label": "totalSupply",
						"offset": 0,
						"slot": "3",
						"type": "t_uint256"
					},
					{
						"astId": 13,
						"contract": "bentoken.sol:BenToken",
						"label": "balances",
						"offset": 0,
						"slot": "4",
						"type": "t_mapping(t_address,t_uint256)"
					},
					{
						"astId": 19,
						"contract": "bentoken.sol:BenToken",
						"label": "allowed",
						"offset": 0,
						"slot": "5",
						"type": "t_mapping(t_address,t_mapping(t_address,t_uint256))"
					},
					{
						"astId": 21,
						"contract": "bentoken.sol:BenToken",
						"label": "buyTaxPercent",
						"offset": 0,
						"slot": "6",
						"type": "t_uint256"
					},
					{
						"astId": 23,
						"contract": "bentoken.sol:BenToken",
						"label": "sellTaxPercent",
						"offset": 0,
						"slot": "7",
						"type": "t_uint256"
					},
					{
						"astId": 25,
						"contract": "bentoken.sol:BenToken",
						"label": "feeConversionRate",
						"offset": 0,
						"slot": "8",
						"type": "t_uint256"
					}
				],
				"types": {
					"t_address": {
						"encoding": "inplace",
						"label": "address",
						"numberOfBytes": "20"
					},
					"t_mapping(t_address,t_mapping(t_address,t_uint256))": {
						"encoding": "mapping",
						"key": "t_address",
						"label": "mapping(address => mapping(address => uint256))",
						"numberOfBytes": "32",
						"value": "t_mapping(t_address,t_uint256)"
					},
					"t_mapping(t_address,t_uint256)": {
						"encoding": "mapping",
						"key": "t_address",
						"label": "mapping(address => uint256)",
						"numberOfBytes": "32",
						"value": "t_uint256"
					},
					"t_string_storage": {
						"encoding": "bytes",
						"label": "string",
						"numberOfBytes": "32"
					},
					"t_uint256": {
						"encoding": "inplace",
						"label": "uint256",
						"numberOfBytes": "32"
					},
					"t_uint8": {
						"encoding": "inplace",
						"label": "uint8",
						"numberOfBytes": "1"
					}
				}
			},
			"userdoc": {
				"kind": "user",
				"methods": {},
				"version": 1
			}
		}
	}
}